{
  "contractName": "VestingToken",
  "abi": [
    {
      "constant": true,
      "inputs": [],
      "name": "name",
      "outputs": [
        {
          "name": "",
          "type": "string"
        }
      ],
      "payable": false,
      "stateMutability": "view",
      "type": "function"
    },
    {
      "constant": false,
      "inputs": [
        {
          "name": "_spender",
          "type": "address"
        },
        {
          "name": "_amount",
          "type": "uint256"
        }
      ],
      "name": "approve",
      "outputs": [
        {
          "name": "success",
          "type": "bool"
        }
      ],
      "payable": false,
      "stateMutability": "nonpayable",
      "type": "function"
    },
    {
      "constant": true,
      "inputs": [],
      "name": "creationBlock",
      "outputs": [
        {
          "name": "",
          "type": "uint256"
        }
      ],
      "payable": false,
      "stateMutability": "view",
      "type": "function"
    },
    {
      "constant": true,
      "inputs": [],
      "name": "totalSupply",
      "outputs": [
        {
          "name": "",
          "type": "uint256"
        }
      ],
      "payable": false,
      "stateMutability": "view",
      "type": "function"
    },
    {
      "constant": false,
      "inputs": [
        {
          "name": "_from",
          "type": "address"
        },
        {
          "name": "_to",
          "type": "address"
        },
        {
          "name": "_amount",
          "type": "uint256"
        }
      ],
      "name": "transferFrom",
      "outputs": [
        {
          "name": "success",
          "type": "bool"
        }
      ],
      "payable": false,
      "stateMutability": "nonpayable",
      "type": "function"
    },
    {
      "constant": true,
      "inputs": [],
      "name": "decimals",
      "outputs": [
        {
          "name": "",
          "type": "uint8"
        }
      ],
      "payable": false,
      "stateMutability": "view",
      "type": "function"
    },
    {
      "constant": false,
      "inputs": [
        {
          "name": "_newController",
          "type": "address"
        }
      ],
      "name": "changeController",
      "outputs": [],
      "payable": false,
      "stateMutability": "nonpayable",
      "type": "function"
    },
    {
      "constant": true,
      "inputs": [
        {
          "name": "_owner",
          "type": "address"
        },
        {
          "name": "_blockNumber",
          "type": "uint256"
        }
      ],
      "name": "balanceOfAt",
      "outputs": [
        {
          "name": "",
          "type": "uint256"
        }
      ],
      "payable": false,
      "stateMutability": "view",
      "type": "function"
    },
    {
      "constant": true,
      "inputs": [],
      "name": "version",
      "outputs": [
        {
          "name": "",
          "type": "string"
        }
      ],
      "payable": false,
      "stateMutability": "view",
      "type": "function"
    },
    {
      "constant": false,
      "inputs": [
        {
          "name": "_cloneTokenName",
          "type": "string"
        },
        {
          "name": "_cloneDecimalUnits",
          "type": "uint8"
        },
        {
          "name": "_cloneTokenSymbol",
          "type": "string"
        },
        {
          "name": "_snapshotBlock",
          "type": "uint256"
        },
        {
          "name": "_transfersEnabled",
          "type": "bool"
        }
      ],
      "name": "createCloneToken",
      "outputs": [
        {
          "name": "",
          "type": "address"
        }
      ],
      "payable": false,
      "stateMutability": "nonpayable",
      "type": "function"
    },
    {
      "constant": true,
      "inputs": [
        {
          "name": "_owner",
          "type": "address"
        }
      ],
      "name": "balanceOf",
      "outputs": [
        {
          "name": "balance",
          "type": "uint256"
        }
      ],
      "payable": false,
      "stateMutability": "view",
      "type": "function"
    },
    {
      "constant": true,
      "inputs": [],
      "name": "parentToken",
      "outputs": [
        {
          "name": "",
          "type": "address"
        }
      ],
      "payable": false,
      "stateMutability": "view",
      "type": "function"
    },
    {
      "constant": false,
      "inputs": [
        {
          "name": "_owner",
          "type": "address"
        },
        {
          "name": "_amount",
          "type": "uint256"
        }
      ],
      "name": "generateTokens",
      "outputs": [
        {
          "name": "",
          "type": "bool"
        }
      ],
      "payable": false,
      "stateMutability": "nonpayable",
      "type": "function"
    },
    {
      "constant": true,
      "inputs": [],
      "name": "symbol",
      "outputs": [
        {
          "name": "",
          "type": "string"
        }
      ],
      "payable": false,
      "stateMutability": "view",
      "type": "function"
    },
    {
      "constant": true,
      "inputs": [
        {
          "name": "_blockNumber",
          "type": "uint256"
        }
      ],
      "name": "totalSupplyAt",
      "outputs": [
        {
          "name": "",
          "type": "uint256"
        }
      ],
      "payable": false,
      "stateMutability": "view",
      "type": "function"
    },
    {
      "constant": false,
      "inputs": [
        {
          "name": "_to",
          "type": "address"
        },
        {
          "name": "_amount",
          "type": "uint256"
        }
      ],
      "name": "transfer",
      "outputs": [
        {
          "name": "success",
          "type": "bool"
        }
      ],
      "payable": false,
      "stateMutability": "nonpayable",
      "type": "function"
    },
    {
      "constant": true,
      "inputs": [],
      "name": "transfersEnabled",
      "outputs": [
        {
          "name": "",
          "type": "bool"
        }
      ],
      "payable": false,
      "stateMutability": "view",
      "type": "function"
    },
    {
      "constant": true,
      "inputs": [],
      "name": "parentSnapShotBlock",
      "outputs": [
        {
          "name": "",
          "type": "uint256"
        }
      ],
      "payable": false,
      "stateMutability": "view",
      "type": "function"
    },
    {
      "constant": false,
      "inputs": [
        {
          "name": "_spender",
          "type": "address"
        },
        {
          "name": "_amount",
          "type": "uint256"
        },
        {
          "name": "_extraData",
          "type": "bytes"
        }
      ],
      "name": "approveAndCall",
      "outputs": [
        {
          "name": "success",
          "type": "bool"
        }
      ],
      "payable": false,
      "stateMutability": "nonpayable",
      "type": "function"
    },
    {
      "constant": false,
      "inputs": [
        {
          "name": "_owner",
          "type": "address"
        },
        {
          "name": "_amount",
          "type": "uint256"
        }
      ],
      "name": "destroyTokens",
      "outputs": [
        {
          "name": "",
          "type": "bool"
        }
      ],
      "payable": false,
      "stateMutability": "nonpayable",
      "type": "function"
    },
    {
      "constant": true,
      "inputs": [
        {
          "name": "_owner",
          "type": "address"
        },
        {
          "name": "_spender",
          "type": "address"
        }
      ],
      "name": "allowance",
      "outputs": [
        {
          "name": "remaining",
          "type": "uint256"
        }
      ],
      "payable": false,
      "stateMutability": "view",
      "type": "function"
    },
    {
      "constant": false,
      "inputs": [
        {
          "name": "_token",
          "type": "address"
        }
      ],
      "name": "claimTokens",
      "outputs": [],
      "payable": false,
      "stateMutability": "nonpayable",
      "type": "function"
    },
    {
      "constant": true,
      "inputs": [],
      "name": "tokenFactory",
      "outputs": [
        {
          "name": "",
          "type": "address"
        }
      ],
      "payable": false,
      "stateMutability": "view",
      "type": "function"
    },
    {
      "constant": false,
      "inputs": [
        {
          "name": "_transfersEnabled",
          "type": "bool"
        }
      ],
      "name": "enableTransfers",
      "outputs": [],
      "payable": false,
      "stateMutability": "nonpayable",
      "type": "function"
    },
    {
      "constant": true,
      "inputs": [],
      "name": "controller",
      "outputs": [
        {
          "name": "",
          "type": "address"
        }
      ],
      "payable": false,
      "stateMutability": "view",
      "type": "function"
    },
    {
      "inputs": [
        {
          "name": "tokenFactory",
          "type": "address"
        },
        {
          "name": "parentToken",
          "type": "address"
        },
        {
          "name": "parentSnapShotBlock",
          "type": "uint256"
        },
        {
          "name": "tokenName",
          "type": "string"
        },
        {
          "name": "decimalUnits",
          "type": "uint8"
        },
        {
          "name": "tokenSymbol",
          "type": "string"
        },
        {
          "name": "transfersEnabled",
          "type": "bool"
        }
      ],
      "payable": false,
      "stateMutability": "nonpayable",
      "type": "constructor"
    },
    {
      "payable": true,
      "stateMutability": "payable",
      "type": "fallback"
    },
    {
      "anonymous": false,
      "inputs": [
        {
          "indexed": true,
          "name": "_token",
          "type": "address"
        },
        {
          "indexed": true,
          "name": "_controller",
          "type": "address"
        },
        {
          "indexed": false,
          "name": "_amount",
          "type": "uint256"
        }
      ],
      "name": "ClaimedTokens",
      "type": "event"
    },
    {
      "anonymous": false,
      "inputs": [
        {
          "indexed": true,
          "name": "_from",
          "type": "address"
        },
        {
          "indexed": true,
          "name": "_to",
          "type": "address"
        },
        {
          "indexed": false,
          "name": "_amount",
          "type": "uint256"
        }
      ],
      "name": "Transfer",
      "type": "event"
    },
    {
      "anonymous": false,
      "inputs": [
        {
          "indexed": true,
          "name": "_cloneToken",
          "type": "address"
        },
        {
          "indexed": false,
          "name": "_snapshotBlock",
          "type": "uint256"
        }
      ],
      "name": "NewCloneToken",
      "type": "event"
    },
    {
      "anonymous": false,
      "inputs": [
        {
          "indexed": true,
          "name": "_owner",
          "type": "address"
        },
        {
          "indexed": true,
          "name": "_spender",
          "type": "address"
        },
        {
          "indexed": false,
          "name": "_amount",
          "type": "uint256"
        }
      ],
      "name": "Approval",
      "type": "event"
    },
    {
      "constant": true,
      "inputs": [],
      "name": "initiated",
      "outputs": [
        {
          "name": "",
          "type": "bool"
        }
      ],
      "payable": false,
      "stateMutability": "view",
      "type": "function"
    },
    {
      "constant": true,
      "inputs": [],
      "name": "cliff",
      "outputs": [
        {
          "name": "",
          "type": "uint256"
        }
      ],
      "payable": false,
      "stateMutability": "view",
      "type": "function"
    },
    {
      "constant": true,
      "inputs": [],
      "name": "start",
      "outputs": [
        {
          "name": "",
          "type": "uint256"
        }
      ],
      "payable": false,
      "stateMutability": "view",
      "type": "function"
    },
    {
      "constant": true,
      "inputs": [],
      "name": "duration",
      "outputs": [
        {
          "name": "",
          "type": "uint256"
        }
      ],
      "payable": false,
      "stateMutability": "view",
      "type": "function"
    },
    {
      "constant": true,
      "inputs": [
        {
          "name": "beneficiary",
          "type": "address"
        }
      ],
      "name": "released",
      "outputs": [
        {
          "name": "",
          "type": "uint256"
        }
      ],
      "payable": false,
      "stateMutability": "view",
      "type": "function"
    },
    {
      "constant": false,
      "inputs": [
        {
          "name": "start",
          "type": "uint256"
        },
        {
          "name": "cliffDuration",
          "type": "uint256"
        },
        {
          "name": "duration",
          "type": "uint256"
        }
      ],
      "name": "initiate",
      "outputs": [],
      "payable": false,
      "stateMutability": "nonpayable",
      "type": "function"
    },
    {
      "constant": false,
      "inputs": [
        {
          "name": "beneficiary",
          "type": "address"
        }
      ],
      "name": "destroyReleasableTokens",
      "outputs": [
        {
          "name": "unreleased",
          "type": "uint256"
        }
      ],
      "payable": false,
      "stateMutability": "nonpayable",
      "type": "function"
    },
    {
      "constant": true,
      "inputs": [
        {
          "name": "beneficiary",
          "type": "address"
        }
      ],
      "name": "releasableAmount",
      "outputs": [
        {
          "name": "",
          "type": "uint256"
        }
      ],
      "payable": false,
      "stateMutability": "view",
      "type": "function"
    }
  ],
  "bytecode": "0x60806040526040805190810160405280600781526020017f4d4d545f302e32000000000000000000000000000000000000000000000000008152506004908051906020019062000051929190620002b4565b503480156200005f57600080fd5b506040516200453938038062004539833981018060405260e08110156200008557600080fd5b810190808051906020019092919080519060200190929190805190602001909291908051640100000000811115620000bc57600080fd5b82810190506020810184811115620000d357600080fd5b8151856001820283011164010000000082111715620000f157600080fd5b50509291906020018051906020019092919080516401000000008111156200011857600080fd5b828101905060208101848111156200012f57600080fd5b81518560018202830111640100000000821117156200014d57600080fd5b50509291906020018051906020019092919050505086868686868686336000806101000a81548173ffffffffffffffffffffffffffffffffffffffff021916908373ffffffffffffffffffffffffffffffffffffffff16021790555086600b60016101000a81548173ffffffffffffffffffffffffffffffffffffffff021916908373ffffffffffffffffffffffffffffffffffffffff160217905550836001908051906020019062000202929190620002b4565b5082600260006101000a81548160ff021916908360ff160217905550816003908051906020019062000236929190620002b4565b5085600560006101000a81548173ffffffffffffffffffffffffffffffffffffffff021916908373ffffffffffffffffffffffffffffffffffffffff1602179055508460068190555080600b60006101000a81548160ff02191690831515021790555043600781905550505050505050505050505050505062000363565b828054600181600116156101000203166002900490600052602060002090601f016020900481019282601f10620002f757805160ff191683800117855562000328565b8280016001018555821562000328579182015b82811115620003275782518255916020019190600101906200030a565b5b5090506200033791906200033b565b5090565b6200036091905b808211156200035c57600081600090555060010162000342565b5090565b90565b6141c680620003736000396000f3fe6080604052600436106101a1576000357c0100000000000000000000000000000000000000000000000000000000900463ffffffff16806306fdde03146102db578063095ea7b31461036b5780630fb5a6b4146103de57806313d033c0146104095780631726cbc814610434578063176345141461049957806318160ddd146104c45780631f82b525146104ef57806323b872dd14610554578063313ce567146105e75780633cebb823146106185780634ee2cd7e1461066957806354fd4d50146106d85780636638c0871461076857806370a082311461092a57806380a540011461098f578063827f32c0146109e657806395d89b4114610a59578063981b24d014610ae95780639852595c14610b385780639f11853614610b9d578063a9059cbb14610bcc578063be9a655514610c3f578063bef97c8714610c6a578063c5bcc4f114610c99578063c99b5d4714610cc4578063cae9ca5114610d13578063d3ce77fe14610e1d578063dd62ed3e14610e90578063df8de3e714610f15578063e77772fe14610f66578063f41e60c514610fbd578063f77c479114610ffa575b6101cb6000809054906101000a900473ffffffffffffffffffffffffffffffffffffffff16611051565b15156101d657600080fd5b6000809054906101000a900473ffffffffffffffffffffffffffffffffffffffff1673ffffffffffffffffffffffffffffffffffffffff1663f48c305434336040518363ffffffff167c0100000000000000000000000000000000000000000000000000000000028152600401808273ffffffffffffffffffffffffffffffffffffffff1673ffffffffffffffffffffffffffffffffffffffff1681526020019150506020604051808303818588803b15801561029257600080fd5b505af11580156102a6573d6000803e3d6000fd5b50505050506040513d60208110156102bd57600080fd5b810190808051906020019092919050505015156102d957600080fd5b005b3480156102e757600080fd5b506102f06110a4565b6040518080602001828103825283818151815260200191508051906020019080838360005b83811015610330578082015181840152602081019050610315565b50505050905090810190601f16801561035d5780820380516001836020036101000a031916815260200191505b509250505060405180910390f35b34801561037757600080fd5b506103c46004803603604081101561038e57600080fd5b81019080803573ffffffffffffffffffffffffffffffffffffffff16906020019092919080359060200190929190505050611142565b604051808215151515815260200191505060405180910390f35b3480156103ea57600080fd5b506103f36114e2565b6040518082815260200191505060405180910390f35b34801561041557600080fd5b5061041e6114ec565b6040518082815260200191505060405180910390f35b34801561044057600080fd5b506104836004803603602081101561045757600080fd5b81019080803573ffffffffffffffffffffffffffffffffffffffff1690602001909291905050506114f6565b6040518082815260200191505060405180910390f35b3480156104a557600080fd5b506104ae611559565b6040518082815260200191505060405180910390f35b3480156104d057600080fd5b506104d961155f565b6040518082815260200191505060405180910390f35b3480156104fb57600080fd5b5061053e6004803603602081101561051257600080fd5b81019080803573ffffffffffffffffffffffffffffffffffffffff16906020019092919050505061156f565b6040518082815260200191505060405180910390f35b34801561056057600080fd5b506105cd6004803603606081101561057757600080fd5b81019080803573ffffffffffffffffffffffffffffffffffffffff169060200190929190803573ffffffffffffffffffffffffffffffffffffffff169060200190929190803590602001909291905050506118c6565b604051808215151515815260200191505060405180910390f35b3480156105f357600080fd5b506105fc611af4565b604051808260ff1660ff16815260200191505060405180910390f35b34801561062457600080fd5b506106676004803603602081101561063b57600080fd5b81019080803573ffffffffffffffffffffffffffffffffffffffff169060200190929190505050611b07565b005b34801561067557600080fd5b506106c26004803603604081101561068c57600080fd5b81019080803573ffffffffffffffffffffffffffffffffffffffff16906020019092919080359060200190929190505050611c34565b6040518082815260200191505060405180910390f35b3480156106e457600080fd5b506106ed611ed4565b6040518080602001828103825283818151815260200191508051906020019080838360005b8381101561072d578082015181840152602081019050610712565b50505050905090810190601f16801561075a5780820380516001836020036101000a031916815260200191505b509250505060405180910390f35b34801561077457600080fd5b506108e8600480360360a081101561078b57600080fd5b81019080803590602001906401000000008111156107a857600080fd5b8201836020820111156107ba57600080fd5b803590602001918460018302840111640100000000831117156107dc57600080fd5b91908080601f016020809104026020016040519081016040528093929190818152602001838380828437600081840152601f19601f820116905080830192505050505050509192919290803560ff1690602001909291908035906020019064010000000081111561084c57600080fd5b82018360208201111561085e57600080fd5b8035906020019184600183028401116401000000008311171561088057600080fd5b91908080601f016020809104026020016040519081016040528093929190818152602001838380828437600081840152601f19601f82011690508083019250505050505050919291929080359060200190929190803515159060200190929190505050611f72565b604051808273ffffffffffffffffffffffffffffffffffffffff1673ffffffffffffffffffffffffffffffffffffffff16815260200191505060405180910390f35b34801561093657600080fd5b506109796004803603602081101561094d57600080fd5b81019080803573ffffffffffffffffffffffffffffffffffffffff169060200190929190505050612286565b6040518082815260200191505060405180910390f35b34801561099b57600080fd5b506109a4612299565b604051808273ffffffffffffffffffffffffffffffffffffffff1673ffffffffffffffffffffffffffffffffffffffff16815260200191505060405180910390f35b3480156109f257600080fd5b50610a3f60048036036040811015610a0957600080fd5b81019080803573ffffffffffffffffffffffffffffffffffffffff169060200190929190803590602001909291905050506122bf565b604051808215151515815260200191505060405180910390f35b348015610a6557600080fd5b50610a6e6124af565b6040518080602001828103825283818151815260200191508051906020019080838360005b83811015610aae578082015181840152602081019050610a93565b50505050905090810190601f168015610adb5780820380516001836020036101000a031916815260200191505b509250505060405180910390f35b348015610af557600080fd5b50610b2260048036036020811015610b0c57600080fd5b810190808035906020019092919050505061254d565b6040518082815260200191505060405180910390f35b348015610b4457600080fd5b50610b8760048036036020811015610b5b57600080fd5b81019080803573ffffffffffffffffffffffffffffffffffffffff169060200190929190505050612701565b6040518082815260200191505060405180910390f35b348015610ba957600080fd5b50610bb261274a565b604051808215151515815260200191505060405180910390f35b348015610bd857600080fd5b50610c2560048036036040811015610bef57600080fd5b81019080803573ffffffffffffffffffffffffffffffffffffffff16906020019092919080359060200190929190505050612761565b604051808215151515815260200191505060405180910390f35b348015610c4b57600080fd5b50610c54612822565b6040518082815260200191505060405180910390f35b348015610c7657600080fd5b50610c7f61282c565b604051808215151515815260200191505060405180910390f35b348015610ca557600080fd5b50610cae61283f565b6040518082815260200191505060405180910390f35b348015610cd057600080fd5b50610d1160048036036060811015610ce757600080fd5b81019080803590602001909291908035906020019092919080359060200190929190505050612845565b005b348015610d1f57600080fd5b50610e0360048036036060811015610d3657600080fd5b81019080803573ffffffffffffffffffffffffffffffffffffffff1690602001909291908035906020019092919080359060200190640100000000811115610d7d57600080fd5b820183602082011115610d8f57600080fd5b80359060200191846001830284011164010000000083111715610db157600080fd5b91908080601f016020809104026020016040519081016040528093929190818152602001838380828437600081840152601f19601f820116905080830192505050505050509192919290505050612c1a565b604051808215151515815260200191505060405180910390f35b348015610e2957600080fd5b50610e7660048036036040811015610e4057600080fd5b81019080803573ffffffffffffffffffffffffffffffffffffffff16906020019092919080359060200190929190505050612d98565b604051808215151515815260200191505060405180910390f35b348015610e9c57600080fd5b50610eff60048036036040811015610eb357600080fd5b81019080803573ffffffffffffffffffffffffffffffffffffffff169060200190929190803573ffffffffffffffffffffffffffffffffffffffff169060200190929190505050612f84565b6040518082815260200191505060405180910390f35b348015610f2157600080fd5b50610f6460048036036020811015610f3857600080fd5b81019080803573ffffffffffffffffffffffffffffffffffffffff16906020019092919050505061300b565b005b348015610f7257600080fd5b50610f7b613417565b604051808273ffffffffffffffffffffffffffffffffffffffff1673ffffffffffffffffffffffffffffffffffffffff16815260200191505060405180910390f35b348015610fc957600080fd5b50610ff860048036036020811015610fe057600080fd5b8101908080351515906020019092919050505061343d565b005b34801561100657600080fd5b5061100f613544565b604051808273ffffffffffffffffffffffffffffffffffffffff1673ffffffffffffffffffffffffffffffffffffffff16815260200191505060405180910390f35b600080600073ffffffffffffffffffffffffffffffffffffffff168373ffffffffffffffffffffffffffffffffffffffff16141561109357600091505061109f565b823b9050600081119150505b919050565b60018054600181600116156101000203166002900480601f01602080910402602001604051908101604052809291908181526020018280546001816001161561010002031660029004801561113a5780601f1061110f5761010080835404028352916020019161113a565b820191906000526020600020905b81548152906001019060200180831161111d57829003601f168201915b505050505081565b6000600b60009054906101000a900460ff1615156111ee576040517f08c379a00000000000000000000000000000000000000000000000000000000081526004018080602001828103825260238152602001807f4d696e694d65546f6b656e3a207472616e73666572206973206e6f7420656e6181526020017f626c65000000000000000000000000000000000000000000000000000000000081525060400191505060405180910390fd5b600082148061127957506000600960003373ffffffffffffffffffffffffffffffffffffffff1673ffffffffffffffffffffffffffffffffffffffff16815260200190815260200160002060008573ffffffffffffffffffffffffffffffffffffffff1673ffffffffffffffffffffffffffffffffffffffff16815260200190815260200160002054145b151561128457600080fd5b6112ae6000809054906101000a900473ffffffffffffffffffffffffffffffffffffffff16611051565b156113f2576000809054906101000a900473ffffffffffffffffffffffffffffffffffffffff1673ffffffffffffffffffffffffffffffffffffffff1663da682aeb3385856040518463ffffffff167c0100000000000000000000000000000000000000000000000000000000028152600401808473ffffffffffffffffffffffffffffffffffffffff1673ffffffffffffffffffffffffffffffffffffffff1681526020018373ffffffffffffffffffffffffffffffffffffffff1673ffffffffffffffffffffffffffffffffffffffff1681526020018281526020019350505050602060405180830381600087803b1580156113ab57600080fd5b505af11580156113bf573d6000803e3d6000fd5b505050506040513d60208110156113d557600080fd5b810190808051906020019092919050505015156113f157600080fd5b5b81600960003373ffffffffffffffffffffffffffffffffffffffff1673ffffffffffffffffffffffffffffffffffffffff16815260200190815260200160002060008573ffffffffffffffffffffffffffffffffffffffff1673ffffffffffffffffffffffffffffffffffffffff168152602001908152602001600020819055508273ffffffffffffffffffffffffffffffffffffffff163373ffffffffffffffffffffffffffffffffffffffff167f8c5be1e5ebec7d5bd14f71427d1e84f3dd0314c0f7b2291e5b200ac8c7c3b925846040518082815260200191505060405180910390a36001905092915050565b6000600e54905090565b6000600c54905090565b6000611552600f60008473ffffffffffffffffffffffffffffffffffffffff1673ffffffffffffffffffffffffffffffffffffffff1681526020019081526020016000205461154484613569565b61369a90919063ffffffff16565b9050919050565b60075481565b600061156a4361254d565b905090565b6000600b60159054906101000a900460ff16151561161b576040517f08c379a000000000000000000000000000000000000000000000000000000000815260040180806020018281038252602e8152602001807f56657374696e67546f6b656e3a2063616e6e6f7420657865637574652062656681526020017f6f726520696e6974696174696f6e00000000000000000000000000000000000081525060400191505060405180910390fd5b6000809054906101000a900473ffffffffffffffffffffffffffffffffffffffff1673ffffffffffffffffffffffffffffffffffffffff163373ffffffffffffffffffffffffffffffffffffffff16141515611705576040517f08c379a00000000000000000000000000000000000000000000000000000000081526004018080602001828103825260288152602001807f436f6e74726f6c6c65643a2063616c6c6572206973206e6f742074686520636f81526020017f6e74726f6c6c657200000000000000000000000000000000000000000000000081525060400191505060405180910390fd5b61170e826114f6565b9050600081111515611788576040517f08c379a000000000000000000000000000000000000000000000000000000000815260040180806020018281038252601f8152602001807f56657374696e67546f6b656e3a206e6f20746f6b656e7320617265206475650081525060200191505060405180910390fd5b6117da81600f60008573ffffffffffffffffffffffffffffffffffffffff1673ffffffffffffffffffffffffffffffffffffffff1681526020019081526020016000205461372590919063ffffffff16565b600f60008473ffffffffffffffffffffffffffffffffffffffff1673ffffffffffffffffffffffffffffffffffffffff168152602001908152602001600020819055506118278282612d98565b15156118c1576040517f08c379a00000000000000000000000000000000000000000000000000000000081526004018080602001828103825260268152602001807f56657374696e67546f6b656e3a206661696c656420746f2064657374726f792081526020017f746f6b656e73000000000000000000000000000000000000000000000000000081525060400191505060405180910390fd5b919050565b60008060009054906101000a900473ffffffffffffffffffffffffffffffffffffffff1673ffffffffffffffffffffffffffffffffffffffff163373ffffffffffffffffffffffffffffffffffffffff16141515611ade57600b60009054906101000a900460ff1615156119c8576040517f08c379a00000000000000000000000000000000000000000000000000000000081526004018080602001828103825260238152602001807f4d696e694d65546f6b656e3a207472616e73666572206973206e6f7420656e6181526020017f626c65000000000000000000000000000000000000000000000000000000000081525060400191505060405180910390fd5b81600960008673ffffffffffffffffffffffffffffffffffffffff1673ffffffffffffffffffffffffffffffffffffffff16815260200190815260200160002060003373ffffffffffffffffffffffffffffffffffffffff1673ffffffffffffffffffffffffffffffffffffffff1681526020019081526020016000205410151515611a5357600080fd5b81600960008673ffffffffffffffffffffffffffffffffffffffff1673ffffffffffffffffffffffffffffffffffffffff16815260200190815260200160002060003373ffffffffffffffffffffffffffffffffffffffff1673ffffffffffffffffffffffffffffffffffffffff168152602001908152602001600020600082825403925050819055505b611ae98484846137af565b600190509392505050565b600260009054906101000a900460ff1681565b6000809054906101000a900473ffffffffffffffffffffffffffffffffffffffff1673ffffffffffffffffffffffffffffffffffffffff163373ffffffffffffffffffffffffffffffffffffffff16141515611bf1576040517f08c379a00000000000000000000000000000000000000000000000000000000081526004018080602001828103825260288152602001807f436f6e74726f6c6c65643a2063616c6c6572206973206e6f742074686520636f81526020017f6e74726f6c6c657200000000000000000000000000000000000000000000000081525060400191505060405180910390fd5b806000806101000a81548173ffffffffffffffffffffffffffffffffffffffff021916908373ffffffffffffffffffffffffffffffffffffffff16021790555050565b600080600860008573ffffffffffffffffffffffffffffffffffffffff1673ffffffffffffffffffffffffffffffffffffffff168152602001908152602001600020805490501480611d0d575081600860008573ffffffffffffffffffffffffffffffffffffffff1673ffffffffffffffffffffffffffffffffffffffff1681526020019081526020016000206000815481101515611ccf57fe5b9060005260206000200160000160009054906101000a90046fffffffffffffffffffffffffffffffff166fffffffffffffffffffffffffffffffff16115b15611e8357600073ffffffffffffffffffffffffffffffffffffffff16600560009054906101000a900473ffffffffffffffffffffffffffffffffffffffff1673ffffffffffffffffffffffffffffffffffffffff16141515611e7a57600560009054906101000a900473ffffffffffffffffffffffffffffffffffffffff1673ffffffffffffffffffffffffffffffffffffffff16634ee2cd7e84611db58560065461386a565b6040518363ffffffff167c0100000000000000000000000000000000000000000000000000000000028152600401808373ffffffffffffffffffffffffffffffffffffffff1673ffffffffffffffffffffffffffffffffffffffff1681526020018281526020019250505060206040518083038186803b158015611e3857600080fd5b505afa158015611e4c573d6000803e3d6000fd5b505050506040513d6020811015611e6257600080fd5b81019080805190602001909291905050509050611ece565b60009050611ece565b611ecb600860008573ffffffffffffffffffffffffffffffffffffffff1673ffffffffffffffffffffffffffffffffffffffff16815260200190815260200160002083613883565b90505b92915050565b60048054600181600116156101000203166002900480601f016020809104026020016040519081016040528092919081815260200182805460018160011615610100020316600290048015611f6a5780601f10611f3f57610100808354040283529160200191611f6a565b820191906000526020600020905b815481529060010190602001808311611f4d57829003601f168201915b505050505081565b600080831415611f80574392505b6000600b60019054906101000a900473ffffffffffffffffffffffffffffffffffffffff1673ffffffffffffffffffffffffffffffffffffffff16635b7b72c130868a8a8a896040518763ffffffff167c0100000000000000000000000000000000000000000000000000000000028152600401808773ffffffffffffffffffffffffffffffffffffffff1673ffffffffffffffffffffffffffffffffffffffff168152602001868152602001806020018560ff1660ff1681526020018060200184151515158152602001838103835287818151815260200191508051906020019080838360005b83811015612083578082015181840152602081019050612068565b50505050905090810190601f1680156120b05780820380516001836020036101000a031916815260200191505b50838103825285818151815260200191508051906020019080838360005b838110156120e95780820151818401526020810190506120ce565b50505050905090810190601f1680156121165780820380516001836020036101000a031916815260200191505b5098505050505050505050602060405180830381600087803b15801561213b57600080fd5b505af115801561214f573d6000803e3d6000fd5b505050506040513d602081101561216557600080fd5b810190808051906020019092919050505090508073ffffffffffffffffffffffffffffffffffffffff16633cebb823336040518263ffffffff167c0100000000000000000000000000000000000000000000000000000000028152600401808273ffffffffffffffffffffffffffffffffffffffff1673ffffffffffffffffffffffffffffffffffffffff168152602001915050600060405180830381600087803b15801561221357600080fd5b505af1158015612227573d6000803e3d6000fd5b505050508073ffffffffffffffffffffffffffffffffffffffff167f086c875b377f900b07ce03575813022f05dd10ed7640b5282cf6d3c3fc352ade856040518082815260200191505060405180910390a28091505095945050505050565b60006122928243611c34565b9050919050565b600560009054906101000a900473ffffffffffffffffffffffffffffffffffffffff1681565b60008060009054906101000a900473ffffffffffffffffffffffffffffffffffffffff1673ffffffffffffffffffffffffffffffffffffffff163373ffffffffffffffffffffffffffffffffffffffff161415156123ab576040517f08c379a00000000000000000000000000000000000000000000000000000000081526004018080602001828103825260288152602001807f436f6e74726f6c6c65643a2063616c6c6572206973206e6f742074686520636f81526020017f6e74726f6c6c657200000000000000000000000000000000000000000000000081525060400191505060405180910390fd5b60006123b561155f565b905080838201101515156123c857600080fd5b60006123d385612286565b905080848201101515156123e657600080fd5b6123f3600a858401613a92565b61243d600860008773ffffffffffffffffffffffffffffffffffffffff1673ffffffffffffffffffffffffffffffffffffffff168152602001908152602001600020858301613a92565b8473ffffffffffffffffffffffffffffffffffffffff16600073ffffffffffffffffffffffffffffffffffffffff167fddf252ad1be2c89b69c2b068fc378daa952ba7f163c4a11628f55a4df523b3ef866040518082815260200191505060405180910390a360019250505092915050565b60038054600181600116156101000203166002900480601f0160208091040260200160405190810160405280929190818152602001828054600181600116156101000203166002900480156125455780601f1061251a57610100808354040283529160200191612545565b820191906000526020600020905b81548152906001019060200180831161252857829003601f168201915b505050505081565b600080600a8054905014806125ac575081600a600081548110151561256e57fe5b9060005260206000200160000160009054906101000a90046fffffffffffffffffffffffffffffffff166fffffffffffffffffffffffffffffffff16115b156126ee57600073ffffffffffffffffffffffffffffffffffffffff16600560009054906101000a900473ffffffffffffffffffffffffffffffffffffffff1673ffffffffffffffffffffffffffffffffffffffff161415156126e557600560009054906101000a900473ffffffffffffffffffffffffffffffffffffffff1673ffffffffffffffffffffffffffffffffffffffff1663981b24d06126538460065461386a565b6040518263ffffffff167c01000000000000000000000000000000000000000000000000000000000281526004018082815260200191505060206040518083038186803b1580156126a357600080fd5b505afa1580156126b7573d6000803e3d6000fd5b505050506040513d60208110156126cd57600080fd5b810190808051906020019092919050505090506126fc565b600090506126fc565b6126f9600a83613883565b90505b919050565b6000600f60008373ffffffffffffffffffffffffffffffffffffffff1673ffffffffffffffffffffffffffffffffffffffff168152602001908152602001600020549050919050565b6000600b60159054906101000a900460ff16905090565b6000600b60009054906101000a900460ff16151561280d576040517f08c379a00000000000000000000000000000000000000000000000000000000081526004018080602001828103825260238152602001807f4d696e694d65546f6b656e3a207472616e73666572206973206e6f7420656e6181526020017f626c65000000000000000000000000000000000000000000000000000000000081525060400191505060405180910390fd5b6128183384846137af565b6001905092915050565b6000600d54905090565b600b60009054906101000a900460ff1681565b60065481565b600b60159054906101000a900460ff161515156128f0576040517f08c379a000000000000000000000000000000000000000000000000000000000815260040180806020018281038252602d8152602001807f56657374696e67546f6b656e3a2063616e6e6f7420657865637574652061667481526020017f657220696e6974696174696f6e0000000000000000000000000000000000000081525060400191505060405180910390fd5b6000809054906101000a900473ffffffffffffffffffffffffffffffffffffffff1673ffffffffffffffffffffffffffffffffffffffff163373ffffffffffffffffffffffffffffffffffffffff161415156129da576040517f08c379a00000000000000000000000000000000000000000000000000000000081526004018080602001828103825260288152602001807f436f6e74726f6c6c65643a2063616c6c6572206973206e6f742074686520636f81526020017f6e74726f6c6c657200000000000000000000000000000000000000000000000081525060400191505060405180910390fd5b6001600b60156101000a81548160ff0219169083151502179055506129ff600061343d565b808211151515612a9d576040517f08c379a000000000000000000000000000000000000000000000000000000000815260040180806020018281038252602b8152602001807f56657374696e67546f6b656e3a20636c696666206973206c6f6e67657220746881526020017f616e206475726174696f6e00000000000000000000000000000000000000000081525060400191505060405180910390fd5b600081111515612b15576040517f08c379a000000000000000000000000000000000000000000000000000000000815260040180806020018281038252601b8152602001807f56657374696e67546f6b656e3a206475726174696f6e2069732030000000000081525060200191505060405180910390fd5b42612b3e612b2f62278d0084613c0790919063ffffffff16565b8561372590919063ffffffff16565b111515612bd9576040517f08c379a000000000000000000000000000000000000000000000000000000000815260040180806020018281038252602f8152602001807f56657374696e67546f6b656e3a2066696e616c2074696d65206973206265666f81526020017f72652063757272656e742074696d65000000000000000000000000000000000081525060400191505060405180910390fd5b80600e81905550612c08612bf962278d0084613c0790919063ffffffff16565b8461372590919063ffffffff16565b600c8190555082600d81905550505050565b6000612c268484611142565b1515612c3157600080fd5b8373ffffffffffffffffffffffffffffffffffffffff16638f4ffcb1338530866040518563ffffffff167c0100000000000000000000000000000000000000000000000000000000028152600401808573ffffffffffffffffffffffffffffffffffffffff1673ffffffffffffffffffffffffffffffffffffffff1681526020018481526020018373ffffffffffffffffffffffffffffffffffffffff1673ffffffffffffffffffffffffffffffffffffffff16815260200180602001828103825283818151815260200191508051906020019080838360005b83811015612d26578082015181840152602081019050612d0b565b50505050905090810190601f168015612d535780820380516001836020036101000a031916815260200191505b5095505050505050600060405180830381600087803b158015612d7557600080fd5b505af1158015612d89573d6000803e3d6000fd5b50505050600190509392505050565b60008060009054906101000a900473ffffffffffffffffffffffffffffffffffffffff1673ffffffffffffffffffffffffffffffffffffffff163373ffffffffffffffffffffffffffffffffffffffff16141515612e84576040517f08c379a00000000000000000000000000000000000000000000000000000000081526004018080602001828103825260288152602001807f436f6e74726f6c6c65643a2063616c6c6572206973206e6f742074686520636f81526020017f6e74726f6c6c657200000000000000000000000000000000000000000000000081525060400191505060405180910390fd5b6000612e8e61155f565b9050828110151515612e9f57600080fd5b6000612eaa85612286565b9050838110151515612ebb57600080fd5b612ec8600a858403613a92565b612f12600860008773ffffffffffffffffffffffffffffffffffffffff1673ffffffffffffffffffffffffffffffffffffffff168152602001908152602001600020858303613a92565b600073ffffffffffffffffffffffffffffffffffffffff168573ffffffffffffffffffffffffffffffffffffffff167fddf252ad1be2c89b69c2b068fc378daa952ba7f163c4a11628f55a4df523b3ef866040518082815260200191505060405180910390a360019250505092915050565b6000600960008473ffffffffffffffffffffffffffffffffffffffff1673ffffffffffffffffffffffffffffffffffffffff16815260200190815260200160002060008373ffffffffffffffffffffffffffffffffffffffff1673ffffffffffffffffffffffffffffffffffffffff16815260200190815260200160002054905092915050565b6000809054906101000a900473ffffffffffffffffffffffffffffffffffffffff1673ffffffffffffffffffffffffffffffffffffffff163373ffffffffffffffffffffffffffffffffffffffff161415156130f5576040517f08c379a00000000000000000000000000000000000000000000000000000000081526004018080602001828103825260288152602001807f436f6e74726f6c6c65643a2063616c6c6572206973206e6f742074686520636f81526020017f6e74726f6c6c657200000000000000000000000000000000000000000000000081525060400191505060405180910390fd5b600073ffffffffffffffffffffffffffffffffffffffff168173ffffffffffffffffffffffffffffffffffffffff1614156131ae576000809054906101000a900473ffffffffffffffffffffffffffffffffffffffff1673ffffffffffffffffffffffffffffffffffffffff166108fc3073ffffffffffffffffffffffffffffffffffffffff16319081150290604051600060405180830381858888f193505050501580156131a8573d6000803e3d6000fd5b50613414565b600081905060008173ffffffffffffffffffffffffffffffffffffffff166370a08231306040518263ffffffff167c0100000000000000000000000000000000000000000000000000000000028152600401808273ffffffffffffffffffffffffffffffffffffffff1673ffffffffffffffffffffffffffffffffffffffff16815260200191505060206040518083038186803b15801561324e57600080fd5b505afa158015613262573d6000803e3d6000fd5b505050506040513d602081101561327857600080fd5b810190808051906020019092919050505090508173ffffffffffffffffffffffffffffffffffffffff1663a9059cbb6000809054906101000a900473ffffffffffffffffffffffffffffffffffffffff16836040518363ffffffff167c0100000000000000000000000000000000000000000000000000000000028152600401808373ffffffffffffffffffffffffffffffffffffffff1673ffffffffffffffffffffffffffffffffffffffff16815260200182815260200192505050602060405180830381600087803b15801561334f57600080fd5b505af1158015613363573d6000803e3d6000fd5b505050506040513d602081101561337957600080fd5b8101908080519060200190929190505050506000809054906101000a900473ffffffffffffffffffffffffffffffffffffffff1673ffffffffffffffffffffffffffffffffffffffff168373ffffffffffffffffffffffffffffffffffffffff167ff931edb47c50b4b4104c187b5814a9aef5f709e17e2ecf9617e860cacade929c836040518082815260200191505060405180910390a350505b50565b600b60019054906101000a900473ffffffffffffffffffffffffffffffffffffffff1681565b6000809054906101000a900473ffffffffffffffffffffffffffffffffffffffff1673ffffffffffffffffffffffffffffffffffffffff163373ffffffffffffffffffffffffffffffffffffffff16141515613527576040517f08c379a00000000000000000000000000000000000000000000000000000000081526004018080602001828103825260288152602001807f436f6e74726f6c6c65643a2063616c6c6572206973206e6f742074686520636f81526020017f6e74726f6c6c657200000000000000000000000000000000000000000000000081525060400191505060405180910390fd5b80600b60006101000a81548160ff02191690831515021790555050565b6000809054906101000a900473ffffffffffffffffffffffffffffffffffffffff1681565b6000600b60159054906101000a900460ff16151561358a5760009050613695565b600061359583612286565b905060006135eb600f60008673ffffffffffffffffffffffffffffffffffffffff1673ffffffffffffffffffffffffffffffffffffffff168152602001908152602001600020548361372590919063ffffffff16565b9050600c5442101561360257600092505050613695565b61362e61361d62278d00600e54613c0790919063ffffffff16565b600d5461372590919063ffffffff16565b42101515613640578092505050613695565b613690600e5461368262278d00613674613665600d544261369a90919063ffffffff16565b86613c0790919063ffffffff16565b613cd490919063ffffffff16565b613cd490919063ffffffff16565b925050505b919050565b6000828211151515613714576040517f08c379a000000000000000000000000000000000000000000000000000000000815260040180806020018281038252601e8152602001807f536166654d6174683a207375627472616374696f6e206f766572666c6f77000081525060200191505060405180910390fd5b600082840390508091505092915050565b60008082840190508381101515156137a5576040517f08c379a000000000000000000000000000000000000000000000000000000000815260040180806020018281038252601b8152602001807f536166654d6174683a206164646974696f6e206f766572666c6f77000000000081525060200191505060405180910390fd5b8091505092915050565b600b60159054906101000a900460ff1615151561385a576040517f08c379a000000000000000000000000000000000000000000000000000000000815260040180806020018281038252602d8152602001807f56657374696e67546f6b656e3a2063616e6e6f7420657865637574652061667481526020017f657220696e6974696174696f6e0000000000000000000000000000000000000081525060400191505060405180910390fd5b613865838383613d67565b505050565b6000818310613879578161387b565b825b905092915050565b6000808380549050141561389a5760009050613a8c565b8260018480549050038154811015156138af57fe5b9060005260206000200160000160009054906101000a90046fffffffffffffffffffffffffffffffff166fffffffffffffffffffffffffffffffff168210151561394b5782600184805490500381548110151561390857fe5b9060005260206000200160000160109054906101000a90046fffffffffffffffffffffffffffffffff166fffffffffffffffffffffffffffffffff169050613a8c565b82600081548110151561395a57fe5b9060005260206000200160000160009054906101000a90046fffffffffffffffffffffffffffffffff166fffffffffffffffffffffffffffffffff168210156139a65760009050613a8c565b60008090506000600185805490500390505b81811115613a3d57600060026001848401018115156139d357fe5b0490508486828154811015156139e557fe5b9060005260206000200160000160009054906101000a90046fffffffffffffffffffffffffffffffff166fffffffffffffffffffffffffffffffff16111515613a3057809250613a37565b6001810391505b506139b8565b8482815481101515613a4b57fe5b9060005260206000200160000160109054906101000a90046fffffffffffffffffffffffffffffffff166fffffffffffffffffffffffffffffffff16925050505b92915050565b600082805490501480613af4575043826001848054905003815481101515613ab657fe5b9060005260206000200160000160009054906101000a90046fffffffffffffffffffffffffffffffff166fffffffffffffffffffffffffffffffff16105b15613ba357600082838054809190600101613b0f9190614109565b815481101515613b1b57fe5b906000526020600020019050438160000160006101000a8154816fffffffffffffffffffffffffffffffff02191690836fffffffffffffffffffffffffffffffff160217905550818160000160106101000a8154816fffffffffffffffffffffffffffffffff02191690836fffffffffffffffffffffffffffffffff16021790555050613c03565b6000826001848054905003815481101515613bba57fe5b906000526020600020019050818160000160106101000a8154816fffffffffffffffffffffffffffffffff02191690836fffffffffffffffffffffffffffffffff160217905550505b5050565b600080831415613c1a5760009050613cce565b60008284029050828482811515613c2d57fe5b04141515613cc9576040517f08c379a00000000000000000000000000000000000000000000000000000000081526004018080602001828103825260218152602001807f536166654d6174683a206d756c7469706c69636174696f6e206f766572666c6f81526020017f770000000000000000000000000000000000000000000000000000000000000081525060400191505060405180910390fd5b809150505b92915050565b60008082111515613d4d576040517f08c379a000000000000000000000000000000000000000000000000000000000815260040180806020018281038252601a8152602001807f536166654d6174683a206469766973696f6e206279207a65726f00000000000081525060200191505060405180910390fd5b60008284811515613d5a57fe5b0490508091505092915050565b6000811415613dda578173ffffffffffffffffffffffffffffffffffffffff168373ffffffffffffffffffffffffffffffffffffffff167fddf252ad1be2c89b69c2b068fc378daa952ba7f163c4a11628f55a4df523b3ef836040518082815260200191505060405180910390a3614104565b43600654101515613dea57600080fd5b600073ffffffffffffffffffffffffffffffffffffffff168273ffffffffffffffffffffffffffffffffffffffff1614158015613e5357503073ffffffffffffffffffffffffffffffffffffffff168273ffffffffffffffffffffffffffffffffffffffff1614155b1515613e5e57600080fd5b6000613e6a8443611c34565b9050818110151515613e7b57600080fd5b613ea56000809054906101000a900473ffffffffffffffffffffffffffffffffffffffff16611051565b15613fe9576000809054906101000a900473ffffffffffffffffffffffffffffffffffffffff1673ffffffffffffffffffffffffffffffffffffffff16634a3931498585856040518463ffffffff167c0100000000000000000000000000000000000000000000000000000000028152600401808473ffffffffffffffffffffffffffffffffffffffff1673ffffffffffffffffffffffffffffffffffffffff1681526020018373ffffffffffffffffffffffffffffffffffffffff1673ffffffffffffffffffffffffffffffffffffffff1681526020018281526020019350505050602060405180830381600087803b158015613fa257600080fd5b505af1158015613fb6573d6000803e3d6000fd5b505050506040513d6020811015613fcc57600080fd5b81019080805190602001909291905050501515613fe857600080fd5b5b614033600860008673ffffffffffffffffffffffffffffffffffffffff1673ffffffffffffffffffffffffffffffffffffffff168152602001908152602001600020838303613a92565b600061403f8443611c34565b9050808382011015151561405257600080fd5b61409c600860008673ffffffffffffffffffffffffffffffffffffffff1673ffffffffffffffffffffffffffffffffffffffff168152602001908152602001600020848301613a92565b8373ffffffffffffffffffffffffffffffffffffffff168573ffffffffffffffffffffffffffffffffffffffff167fddf252ad1be2c89b69c2b068fc378daa952ba7f163c4a11628f55a4df523b3ef856040518082815260200191505060405180910390a350505b505050565b8154818355818111156141305781836000526020600020918201910161412f9190614135565b5b505050565b61419791905b8082111561419357600080820160006101000a8154906fffffffffffffffffffffffffffffffff02191690556000820160106101000a8154906fffffffffffffffffffffffffffffffff02191690555060010161413b565b5090565b9056fea165627a7a723058203eca2209ec141f431323830d651cf3be4358ba9e12d9a584dde32cbad1ca30870029",
  "source": "pragma solidity ^0.5.0;\r\n\r\nimport \"./minime/MiniMeToken.sol\";\r\nimport \"./openzeppelin-solidity/math/SafeMath.sol\";\r\n\r\ncontract VestingToken is MiniMeToken {\r\n    using SafeMath for uint256;\r\n\r\n    bool private _initiated;\r\n\r\n    // Durations and timestamps are expressed in UNIX time, the same units as block.timestamp.\r\n    uint256 private _cliff;\r\n    uint256 private _start;\r\n    uint256 private _duration;\r\n    uint256 constant MONTH_IN_SECONDS = 60 * 60 * 24 * 30;\r\n\r\n    mapping (address => uint256) private _released;\r\n\r\n    constructor (\r\n        address tokenFactory,\r\n        address payable parentToken,\r\n        uint parentSnapShotBlock,\r\n        string memory tokenName,\r\n        uint8 decimalUnits,\r\n        string memory tokenSymbol,\r\n        bool transfersEnabled\r\n    )\r\n        public\r\n        MiniMeToken(tokenFactory, parentToken, parentSnapShotBlock, tokenName, decimalUnits, tokenSymbol, transfersEnabled)\r\n    {\r\n        // solhint-disable-previous-line no-empty-blocks\r\n    }\r\n\r\n    modifier beforeInitiated() {\r\n        require(!_initiated, \"VestingToken: cannot execute after initiation\");\r\n        _;\r\n    }\r\n\r\n    modifier afterInitiated() {\r\n        require(_initiated, \"VestingToken: cannot execute before initiation\");\r\n        _;\r\n    }\r\n\r\n    /**\r\n     * @dev Returns true if the token can be released, and false otherwise.\r\n     */\r\n    function initiated() public view returns (bool) {\r\n        return _initiated;\r\n    }\r\n\r\n    /**\r\n     * @return the cliff time of the token vesting.\r\n     */\r\n    function cliff() public view returns (uint256) {\r\n        return _cliff;\r\n    }\r\n\r\n    /**\r\n     * @return the start time of the token vesting.\r\n     */\r\n    function start() public view returns (uint256) {\r\n        return _start;\r\n    }\r\n\r\n    /**\r\n     * @return the duration of the token vesting.\r\n     */\r\n    function duration() public view returns (uint256) {\r\n        return _duration;\r\n    }\r\n\r\n    /**\r\n     * @param beneficiary the beneficiary of the tokens.\r\n     * @return the amount of the token released.\r\n     */\r\n    function released(address beneficiary) public view returns (uint256) {\r\n        return _released[beneficiary];\r\n    }\r\n\r\n    /**\r\n     * @notice Makes vested tokens releasable.\r\n     * @param start the time (as Unix time) at which point vesting starts\r\n     * @param cliffDuration duration in months of the cliff in which tokens will begin to vest\r\n     * @param duration duration in months of the period in which the tokens will vest\r\n     */\r\n    function initiate(uint256 start, uint256 cliffDuration, uint256 duration) public beforeInitiated onlyController {\r\n        _initiated = true;\r\n\r\n        enableTransfers(false);\r\n\r\n        // solhint-disable-next-line max-line-length\r\n        require(cliffDuration <= duration, \"VestingToken: cliff is longer than duration\");\r\n        require(duration > 0, \"VestingToken: duration is 0\");\r\n        // solhint-disable-next-line max-line-length\r\n        require(start.add(duration.mul(MONTH_IN_SECONDS)) > block.timestamp, \"VestingToken: final time is before current time\");\r\n\r\n        _duration = duration;\r\n        _cliff = start.add(cliffDuration.mul(MONTH_IN_SECONDS));\r\n        _start = start;\r\n    }\r\n\r\n    /**\r\n     * @dev This is the actual transfer function in the token contract.\r\n     * @param from The address holding the tokens being transferred\r\n     * @param to The address of the recipient\r\n     * @param amount The amount of tokens to be transferred\r\n     */\r\n    function doTransfer(address from, address to, uint amount) internal beforeInitiated {\r\n        super.doTransfer(from, to, amount);\r\n    }\r\n\r\n    /**\r\n     * @notice Destroys releasable tokens.\r\n     * @param beneficiary the beneficiary of the tokens.\r\n     */\r\n    function destroyReleasableTokens(address beneficiary) public afterInitiated onlyController returns (uint256 unreleased) {\r\n        unreleased = releasableAmount(beneficiary);\r\n\r\n        require(unreleased > 0, \"VestingToken: no tokens are due\");\r\n\r\n        _released[beneficiary] = _released[beneficiary].add(unreleased);\r\n\r\n        require(destroyTokens(beneficiary, unreleased), \"VestingToken: failed to destroy tokens\");\r\n    }\r\n\r\n    /**\r\n     * @dev Calculates the amount that has already vested but hasn't been released yet.\r\n     * @param beneficiary the beneficiary of the tokens.\r\n     */\r\n    function releasableAmount(address beneficiary) public view returns (uint256) {\r\n        return _vestedAmount(beneficiary).sub(_released[beneficiary]);\r\n    }\r\n\r\n    /**\r\n     * @dev Calculates the amount that has already vested.\r\n     * @param beneficiary the beneficiary of the tokens.\r\n     */\r\n    function _vestedAmount(address beneficiary) private view returns (uint256) {\r\n        if (!_initiated) {\r\n            return 0;\r\n        }\r\n\r\n        uint256 currentVestedAmount = balanceOf(beneficiary);\r\n        uint256 totalVestedAmount = currentVestedAmount.add(_released[beneficiary]);\r\n\r\n        if (block.timestamp < _cliff) {\r\n            return 0;\r\n        } else if (block.timestamp >= _start.add(_duration.mul(MONTH_IN_SECONDS))) {\r\n            return totalVestedAmount;\r\n        } else {\r\n            return totalVestedAmount.mul(block.timestamp.sub(_start)).div(MONTH_IN_SECONDS).div(_duration);\r\n        }\r\n    }\r\n}\r\n",
  "sourcePath": "C:\\Users\\modagi\\Desktop\\modagi\\github\\onther\\presale-contracts\\contracts\\VestingToken.sol",
  "compiler": {
    "name": "solc",
    "version": "0.5.0+commit.1d4f565a.Emscripten.clang"
  },
  "schemaVersion": "3.0.1",
  "updatedAt": "2020-07-17T06:32:09.046Z",
  "devdoc": {
    "methods": {
      "approve(address,uint256)": {
        "return": "True if the approval was successful"
      },
      "approveAndCall(address,uint256,bytes)": {
        "return": "True if the function call was successful"
      },
      "balanceOf(address)": {
        "return": "The balance of `_owner` at the current block"
      },
      "balanceOfAt(address,uint256)": {
        "return": "The balance at `_blockNumber`"
      },
      "changeController(address)": {
        "params": {
          "_newController": "The new controller of the contract"
        }
      },
      "cliff()": {
        "return": "the cliff time of the token vesting.\r"
      },
      "createCloneToken(string,uint8,string,uint256,bool)": {
        "return": "The address of the new MiniMeToken Contract"
      },
      "destroyReleasableTokens(address)": {
        "params": {
          "beneficiary": "the beneficiary of the tokens.\r"
        }
      },
      "destroyTokens(address,uint256)": {
        "return": "True if the tokens are burned correctly"
      },
      "duration()": {
        "return": "the duration of the token vesting.\r"
      },
      "enableTransfers(bool)": {
        "params": {
          "_transfersEnabled": "True if transfers are allowed in the clone"
        }
      },
      "generateTokens(address,uint256)": {
        "return": "True if the tokens are generated correctly"
      },
      "initiate(uint256,uint256,uint256)": {
        "params": {
          "cliffDuration": "duration in months of the cliff in which tokens will begin to vest\r",
          "duration": "duration in months of the period in which the tokens will vest\r",
          "start": "the time (as Unix time) at which point vesting starts\r"
        }
      },
      "initiated()": {
        "details": "Returns true if the token can be released, and false otherwise.\r"
      },
      "releasableAmount(address)": {
        "details": "Calculates the amount that has already vested but hasn't been released yet.\r",
        "params": {
          "beneficiary": "the beneficiary of the tokens.\r"
        }
      },
      "released(address)": {
        "params": {
          "beneficiary": "the beneficiary of the tokens.\r"
        },
        "return": "the amount of the token released.\r"
      },
      "start()": {
        "return": "the start time of the token vesting.\r"
      },
      "totalSupply()": {
        "return": "The total number of tokens"
      },
      "totalSupplyAt(uint256)": {
        "return": "The total amount of tokens at `_blockNumber`"
      },
      "transfer(address,uint256)": {
        "return": "Whether the transfer was successful or not"
      },
      "transferFrom(address,address,uint256)": {
        "return": "True if the transfer was successful"
      }
    }
  },
  "userdoc": {
    "methods": {
      "allowance(address,address)": {
        "notice": "to spend"
      },
      "claimTokens(address)": {
        "notice": "set to 0 in case you want to extract ether."
      },
      "destroyReleasableTokens(address)": {
        "notice": "Destroys releasable tokens.\r"
      },
      "initiate(uint256,uint256,uint256)": {
        "notice": "Makes vested tokens releasable.\r"
      }
    }
  }
}