{
  "contractName": "VestingSwapper",
  "abi": [
    {
      "inputs": [
        {
          "internalType": "contract ERC20Mintable",
          "name": "token",
          "type": "address"
        }
      ],
      "payable": false,
      "stateMutability": "nonpayable",
      "type": "constructor"
    },
    {
      "anonymous": false,
      "inputs": [
        {
          "indexed": false,
          "internalType": "address",
          "name": "recipient",
          "type": "address"
        }
      ],
      "name": "PrimaryTransferred",
      "type": "event"
    },
    {
      "anonymous": false,
      "inputs": [
        {
          "indexed": false,
          "internalType": "address",
          "name": "account",
          "type": "address"
        },
        {
          "indexed": false,
          "internalType": "uint256",
          "name": "unreleased",
          "type": "uint256"
        },
        {
          "indexed": false,
          "internalType": "uint256",
          "name": "transferred",
          "type": "uint256"
        }
      ],
      "name": "Swapped",
      "type": "event"
    },
    {
      "anonymous": false,
      "inputs": [
        {
          "indexed": false,
          "internalType": "address",
          "name": "recipient",
          "type": "address"
        },
        {
          "indexed": false,
          "internalType": "uint256",
          "name": "amount",
          "type": "uint256"
        }
      ],
      "name": "Withdrew",
      "type": "event"
    },
    {
      "constant": true,
      "inputs": [],
      "name": "_token",
      "outputs": [
        {
          "internalType": "contract ERC20Mintable",
          "name": "",
          "type": "address"
        }
      ],
      "payable": false,
      "stateMutability": "view",
      "type": "function"
    },
    {
      "constant": true,
      "inputs": [
        {
          "internalType": "address",
          "name": "",
          "type": "address"
        },
        {
          "internalType": "address",
          "name": "",
          "type": "address"
        }
      ],
      "name": "beneficiaryInfo",
      "outputs": [
        {
          "internalType": "uint256",
          "name": "totalAmount",
          "type": "uint256"
        },
        {
          "internalType": "uint256",
          "name": "releasedAmount",
          "type": "uint256"
        }
      ],
      "payable": false,
      "stateMutability": "view",
      "type": "function"
    },
    {
      "constant": true,
      "inputs": [],
      "name": "primary",
      "outputs": [
        {
          "internalType": "address",
          "name": "",
          "type": "address"
        }
      ],
      "payable": false,
      "stateMutability": "view",
      "type": "function"
    },
    {
      "constant": false,
      "inputs": [
        {
          "internalType": "address",
          "name": "recipient",
          "type": "address"
        }
      ],
      "name": "transferPrimary",
      "outputs": [],
      "payable": false,
      "stateMutability": "nonpayable",
      "type": "function"
    },
    {
      "constant": true,
      "inputs": [],
      "name": "vault",
      "outputs": [
        {
          "internalType": "contract TONVault",
          "name": "",
          "type": "address"
        }
      ],
      "payable": false,
      "stateMutability": "view",
      "type": "function"
    },
    {
      "constant": true,
      "inputs": [
        {
          "internalType": "address",
          "name": "",
          "type": "address"
        }
      ],
      "name": "vestingInfo",
      "outputs": [
        {
          "internalType": "bool",
          "name": "isInitiated",
          "type": "bool"
        },
        {
          "internalType": "uint256",
          "name": "start",
          "type": "uint256"
        },
        {
          "internalType": "uint256",
          "name": "cliff",
          "type": "uint256"
        },
        {
          "internalType": "uint256",
          "name": "firstClaimTimestamp",
          "type": "uint256"
        },
        {
          "internalType": "uint256",
          "name": "firstClaimAmount",
          "type": "uint256"
        },
        {
          "internalType": "uint256",
          "name": "durationUnit",
          "type": "uint256"
        },
        {
          "internalType": "uint256",
          "name": "durationInSeconds",
          "type": "uint256"
        },
        {
          "internalType": "uint256",
          "name": "ratio",
          "type": "uint256"
        },
        {
          "internalType": "uint256",
          "name": "initialTotalSupply",
          "type": "uint256"
        }
      ],
      "payable": false,
      "stateMutability": "view",
      "type": "function"
    },
    {
      "constant": false,
      "inputs": [
        {
          "internalType": "contract VestingToken",
          "name": "vestingToken",
          "type": "address"
        }
      ],
      "name": "swap",
      "outputs": [
        {
          "internalType": "bool",
          "name": "",
          "type": "bool"
        }
      ],
      "payable": false,
      "stateMutability": "nonpayable",
      "type": "function"
    },
    {
      "constant": false,
      "inputs": [
        {
          "internalType": "contract VestingToken",
          "name": "vestingToken",
          "type": "address"
        },
        {
          "internalType": "address payable",
          "name": "newController",
          "type": "address"
        }
      ],
      "name": "changeController",
      "outputs": [],
      "payable": false,
      "stateMutability": "nonpayable",
      "type": "function"
    },
    {
      "constant": false,
      "inputs": [
        {
          "internalType": "contract TONVault",
          "name": "vaultAddress",
          "type": "address"
        }
      ],
      "name": "setVault",
      "outputs": [],
      "payable": false,
      "stateMutability": "nonpayable",
      "type": "function"
    },
    {
      "constant": false,
      "inputs": [
        {
          "internalType": "address payable",
          "name": "recipient",
          "type": "address"
        },
        {
          "internalType": "uint256",
          "name": "amount256",
          "type": "uint256"
        }
      ],
      "name": "withdraw",
      "outputs": [],
      "payable": false,
      "stateMutability": "nonpayable",
      "type": "function"
    },
    {
      "constant": false,
      "inputs": [
        {
          "internalType": "address",
          "name": "_owner",
          "type": "address"
        }
      ],
      "name": "proxyPayment",
      "outputs": [
        {
          "internalType": "bool",
          "name": "",
          "type": "bool"
        }
      ],
      "payable": true,
      "stateMutability": "payable",
      "type": "function"
    },
    {
      "constant": false,
      "inputs": [
        {
          "internalType": "address",
          "name": "_from",
          "type": "address"
        },
        {
          "internalType": "address",
          "name": "_to",
          "type": "address"
        },
        {
          "internalType": "uint256",
          "name": "_amount",
          "type": "uint256"
        }
      ],
      "name": "onTransfer",
      "outputs": [
        {
          "internalType": "bool",
          "name": "",
          "type": "bool"
        }
      ],
      "payable": false,
      "stateMutability": "nonpayable",
      "type": "function"
    },
    {
      "constant": false,
      "inputs": [
        {
          "internalType": "address",
          "name": "_owner",
          "type": "address"
        },
        {
          "internalType": "address",
          "name": "_spender",
          "type": "address"
        },
        {
          "internalType": "uint256",
          "name": "_amount",
          "type": "uint256"
        }
      ],
      "name": "onApprove",
      "outputs": [
        {
          "internalType": "bool",
          "name": "",
          "type": "bool"
        }
      ],
      "payable": false,
      "stateMutability": "nonpayable",
      "type": "function"
    },
    {
      "constant": false,
      "inputs": [
        {
          "internalType": "address",
          "name": "from",
          "type": "address"
        },
        {
          "internalType": "uint256",
          "name": "_amount",
          "type": "uint256"
        },
        {
          "internalType": "address payable",
          "name": "_token",
          "type": "address"
        },
        {
          "internalType": "bytes",
          "name": "_data",
          "type": "bytes"
        }
      ],
      "name": "receiveApproval",
      "outputs": [],
      "payable": false,
      "stateMutability": "nonpayable",
      "type": "function"
    },
    {
      "constant": false,
      "inputs": [
        {
          "internalType": "address",
          "name": "vestingToken",
          "type": "address"
        },
        {
          "internalType": "uint256",
          "name": "start",
          "type": "uint256"
        },
        {
          "internalType": "uint256",
          "name": "cliffDurationInSeconds",
          "type": "uint256"
        },
        {
          "internalType": "uint256",
          "name": "firstClaimDurationInSeconds",
          "type": "uint256"
        },
        {
          "internalType": "uint256",
          "name": "firstClaimAmount",
          "type": "uint256"
        },
        {
          "internalType": "uint256",
          "name": "durationUnit",
          "type": "uint256"
        }
      ],
      "name": "initiate",
      "outputs": [],
      "payable": false,
      "stateMutability": "nonpayable",
      "type": "function"
    },
    {
      "constant": false,
      "inputs": [
        {
          "internalType": "address",
          "name": "vestingToken",
          "type": "address"
        },
        {
          "internalType": "uint256",
          "name": "tokenRatio",
          "type": "uint256"
        }
      ],
      "name": "updateRatio",
      "outputs": [],
      "payable": false,
      "stateMutability": "nonpayable",
      "type": "function"
    },
    {
      "constant": true,
      "inputs": [
        {
          "internalType": "address",
          "name": "vestingToken",
          "type": "address"
        }
      ],
      "name": "ratio",
      "outputs": [
        {
          "internalType": "uint256",
          "name": "",
          "type": "uint256"
        }
      ],
      "payable": false,
      "stateMutability": "view",
      "type": "function"
    },
    {
      "constant": true,
      "inputs": [
        {
          "internalType": "address",
          "name": "vestingToken",
          "type": "address"
        }
      ],
      "name": "initiated",
      "outputs": [
        {
          "internalType": "bool",
          "name": "",
          "type": "bool"
        }
      ],
      "payable": false,
      "stateMutability": "view",
      "type": "function"
    },
    {
      "constant": true,
      "inputs": [
        {
          "internalType": "address",
          "name": "vestingToken",
          "type": "address"
        }
      ],
      "name": "start",
      "outputs": [
        {
          "internalType": "uint256",
          "name": "",
          "type": "uint256"
        }
      ],
      "payable": false,
      "stateMutability": "view",
      "type": "function"
    },
    {
      "constant": true,
      "inputs": [
        {
          "internalType": "address",
          "name": "vestingToken",
          "type": "address"
        }
      ],
      "name": "cliff",
      "outputs": [
        {
          "internalType": "uint256",
          "name": "",
          "type": "uint256"
        }
      ],
      "payable": false,
      "stateMutability": "view",
      "type": "function"
    },
    {
      "constant": true,
      "inputs": [
        {
          "internalType": "address",
          "name": "vestingToken",
          "type": "address"
        }
      ],
      "name": "firstClaim",
      "outputs": [
        {
          "internalType": "uint256",
          "name": "",
          "type": "uint256"
        }
      ],
      "payable": false,
      "stateMutability": "view",
      "type": "function"
    },
    {
      "constant": true,
      "inputs": [
        {
          "internalType": "address",
          "name": "vestingToken",
          "type": "address"
        }
      ],
      "name": "duration",
      "outputs": [
        {
          "internalType": "uint256",
          "name": "",
          "type": "uint256"
        }
      ],
      "payable": false,
      "stateMutability": "view",
      "type": "function"
    },
    {
      "constant": true,
      "inputs": [
        {
          "internalType": "address",
          "name": "vestingToken",
          "type": "address"
        },
        {
          "internalType": "address",
          "name": "beneficiary",
          "type": "address"
        }
      ],
      "name": "totalAmount",
      "outputs": [
        {
          "internalType": "uint256",
          "name": "",
          "type": "uint256"
        }
      ],
      "payable": false,
      "stateMutability": "view",
      "type": "function"
    },
    {
      "constant": true,
      "inputs": [
        {
          "internalType": "address",
          "name": "vestingToken",
          "type": "address"
        },
        {
          "internalType": "address",
          "name": "beneficiary",
          "type": "address"
        }
      ],
      "name": "released",
      "outputs": [
        {
          "internalType": "uint256",
          "name": "",
          "type": "uint256"
        }
      ],
      "payable": false,
      "stateMutability": "view",
      "type": "function"
    },
    {
      "constant": true,
      "inputs": [
        {
          "internalType": "address",
          "name": "vestingToken",
          "type": "address"
        },
        {
          "internalType": "address",
          "name": "beneficiary",
          "type": "address"
        }
      ],
      "name": "releasableAmount",
      "outputs": [
        {
          "internalType": "uint256",
          "name": "",
          "type": "uint256"
        }
      ],
      "payable": false,
      "stateMutability": "view",
      "type": "function"
    }
  ],
  "bytecode": "0x608060405234801561001057600080fd5b50604051612ce4380380612ce48339818101604052602081101561003357600080fd5b8101908080519060200190929190505050336000806101000a81548173ffffffffffffffffffffffffffffffffffffffff021916908373ffffffffffffffffffffffffffffffffffffffff1602179055507f4101e71e974f68df5e9730cc223280b41654676bbb052cdcc735c3337e64d2d96000809054906101000a900473ffffffffffffffffffffffffffffffffffffffff16604051808273ffffffffffffffffffffffffffffffffffffffff1673ffffffffffffffffffffffffffffffffffffffff16815260200191505060405180910390a180600360006101000a81548173ffffffffffffffffffffffffffffffffffffffff021916908373ffffffffffffffffffffffffffffffffffffffff16021790555050612b8b806101596000396000f3fe6080604052600436106101665760003560e01c80638f4ffcb1116100d1578063da682aeb1161008a578063f3fef3a311610064578063f3fef3a314610b28578063f48c305414610b83578063f78e633d14610bdf578063fbfa77cf14610c8057610166565b8063da682aeb146109d9578063dd0b281e14610a6c578063ecd0c0c314610ad157610166565b80638f4ffcb114610695578063b36760a3146107a7578063c6dbdf611461080c578063cc17ddf914610863578063cdce101b146108ef578063d8948a891461095457610166565b8063424b446011610123578063424b4460146103e95780634a3931491461044e5780636817031b146104e15780637068ca0d146105325780637243cfbb1461058d578063848baebf1461061257610166565b806303438dd01461016b578063049939f3146101d45780630b40495b1461023d5780632348238c146102a25780633e11e378146102f3578063406072a914610364575b600080fd5b34801561017757600080fd5b506101ba6004803603602081101561018e57600080fd5b81019080803573ffffffffffffffffffffffffffffffffffffffff169060200190929190505050610cd7565b604051808215151515815260200191505060405180910390f35b3480156101e057600080fd5b50610223600480360360208110156101f757600080fd5b81019080803573ffffffffffffffffffffffffffffffffffffffff169060200190929190505050611143565b604051808215151515815260200191505060405180910390f35b34801561024957600080fd5b5061028c6004803603602081101561026057600080fd5b81019080803573ffffffffffffffffffffffffffffffffffffffff1690602001909291905050506111a1565b6040518082815260200191505060405180910390f35b3480156102ae57600080fd5b506102f1600480360360208110156102c557600080fd5b81019080803573ffffffffffffffffffffffffffffffffffffffff1690602001909291905050506111f2565b005b3480156102ff57600080fd5b506103626004803603604081101561031657600080fd5b81019080803573ffffffffffffffffffffffffffffffffffffffff169060200190929190803573ffffffffffffffffffffffffffffffffffffffff1690602001909291905050506113e4565b005b34801561037057600080fd5b506103d36004803603604081101561038757600080fd5b81019080803573ffffffffffffffffffffffffffffffffffffffff169060200190929190803573ffffffffffffffffffffffffffffffffffffffff169060200190929190505050611524565b6040518082815260200191505060405180910390f35b3480156103f557600080fd5b506104386004803603602081101561040c57600080fd5b81019080803573ffffffffffffffffffffffffffffffffffffffff1690602001909291905050506115ae565b6040518082815260200191505060405180910390f35b34801561045a57600080fd5b506104c76004803603606081101561047157600080fd5b81019080803573ffffffffffffffffffffffffffffffffffffffff169060200190929190803573ffffffffffffffffffffffffffffffffffffffff169060200190929190803590602001909291905050506115ff565b604051808215151515815260200191505060405180910390f35b3480156104ed57600080fd5b506105306004803603602081101561050457600080fd5b81019080803573ffffffffffffffffffffffffffffffffffffffff16906020019092919050505061160c565b005b34801561053e57600080fd5b5061058b6004803603604081101561055557600080fd5b81019080803573ffffffffffffffffffffffffffffffffffffffff169060200190929190803590602001909291905050506116f5565b005b34801561059957600080fd5b506105fc600480360360408110156105b057600080fd5b81019080803573ffffffffffffffffffffffffffffffffffffffff169060200190929190803573ffffffffffffffffffffffffffffffffffffffff1690602001909291905050506118df565b6040518082815260200191505060405180910390f35b34801561061e57600080fd5b50610693600480360360c081101561063557600080fd5b81019080803573ffffffffffffffffffffffffffffffffffffffff1690602001909291908035906020019092919080359060200190929190803590602001909291908035906020019092919080359060200190929190505050611913565b005b3480156106a157600080fd5b506107a5600480360360808110156106b857600080fd5b81019080803573ffffffffffffffffffffffffffffffffffffffff16906020019092919080359060200190929190803573ffffffffffffffffffffffffffffffffffffffff1690602001909291908035906020019064010000000081111561071f57600080fd5b82018360208201111561073157600080fd5b8035906020019184600183028401116401000000008311171561075357600080fd5b91908080601f016020809104026020016040519081016040528093929190818152602001838380828437600081840152601f19601f820116905080830192505050505050509192919290505050611d24565b005b3480156107b357600080fd5b506107f6600480360360208110156107ca57600080fd5b81019080803573ffffffffffffffffffffffffffffffffffffffff169060200190929190505050611f9c565b6040518082815260200191505060405180910390f35b34801561081857600080fd5b50610821611fed565b604051808273ffffffffffffffffffffffffffffffffffffffff1673ffffffffffffffffffffffffffffffffffffffff16815260200191505060405180910390f35b34801561086f57600080fd5b506108d26004803603604081101561088657600080fd5b81019080803573ffffffffffffffffffffffffffffffffffffffff169060200190929190803573ffffffffffffffffffffffffffffffffffffffff169060200190929190505050612016565b604051808381526020018281526020019250505060405180910390f35b3480156108fb57600080fd5b5061093e6004803603602081101561091257600080fd5b81019080803573ffffffffffffffffffffffffffffffffffffffff169060200190929190505050612047565b6040518082815260200191505060405180910390f35b34801561096057600080fd5b506109c36004803603604081101561097757600080fd5b81019080803573ffffffffffffffffffffffffffffffffffffffff169060200190929190803573ffffffffffffffffffffffffffffffffffffffff169060200190929190505050612098565b6040518082815260200191505060405180910390f35b3480156109e557600080fd5b50610a52600480360360608110156109fc57600080fd5b81019080803573ffffffffffffffffffffffffffffffffffffffff169060200190929190803573ffffffffffffffffffffffffffffffffffffffff16906020019092919080359060200190929190505050612122565b604051808215151515815260200191505060405180910390f35b348015610a7857600080fd5b50610abb60048036036020811015610a8f57600080fd5b81019080803573ffffffffffffffffffffffffffffffffffffffff16906020019092919050505061212f565b6040518082815260200191505060405180910390f35b348015610add57600080fd5b50610ae6612180565b604051808273ffffffffffffffffffffffffffffffffffffffff1673ffffffffffffffffffffffffffffffffffffffff16815260200191505060405180910390f35b348015610b3457600080fd5b50610b8160048036036040811015610b4b57600080fd5b81019080803573ffffffffffffffffffffffffffffffffffffffff169060200190929190803590602001909291905050506121a6565b005b610bc560048036036020811015610b9957600080fd5b81019080803573ffffffffffffffffffffffffffffffffffffffff16906020019092919050505061239f565b604051808215151515815260200191505060405180910390f35b348015610beb57600080fd5b50610c2e60048036036020811015610c0257600080fd5b81019080803573ffffffffffffffffffffffffffffffffffffffff1690602001909291905050506123aa565b604051808a151515158152602001898152602001888152602001878152602001868152602001858152602001848152602001838152602001828152602001995050505050505050505060405180910390f35b348015610c8c57600080fd5b50610c95612405565b604051808273ffffffffffffffffffffffffffffffffffffffff1673ffffffffffffffffffffffffffffffffffffffff16815260200191505060405180910390f35b600080600260008473ffffffffffffffffffffffffffffffffffffffff1673ffffffffffffffffffffffffffffffffffffffff16815260200190815260200160002060070154905060008111610d78576040517f08c379a000000000000000000000000000000000000000000000000000000000815260040180806020018281038252602c815260200180612a8a602c913960400191505060405180910390fd5b6000610d8484336118df565b90506000811415610d9a5760019250505061113e565b6000610daf838361242b90919063ffffffff16565b905060008573ffffffffffffffffffffffffffffffffffffffff1663d3ce77fe30856040518363ffffffff1660e01b8152600401808373ffffffffffffffffffffffffffffffffffffffff1673ffffffffffffffffffffffffffffffffffffffff16815260200182815260200192505050602060405180830381600087803b158015610e3a57600080fd5b505af1158015610e4e573d6000803e3d6000fd5b505050506040513d6020811015610e6457600080fd5b8101908080519060200190929190505050905080610e8157600080fd5b600360009054906101000a900473ffffffffffffffffffffffffffffffffffffffff1673ffffffffffffffffffffffffffffffffffffffff166323b872dd600460009054906101000a900473ffffffffffffffffffffffffffffffffffffffff1630856040518463ffffffff1660e01b8152600401808473ffffffffffffffffffffffffffffffffffffffff1673ffffffffffffffffffffffffffffffffffffffff1681526020018373ffffffffffffffffffffffffffffffffffffffff1673ffffffffffffffffffffffffffffffffffffffff1681526020018281526020019350505050602060405180830381600087803b158015610f8057600080fd5b505af1158015610f94573d6000803e3d6000fd5b505050506040513d6020811015610faa57600080fd5b8101908080519060200190929190505050905080610fc757600080fd5b600360009054906101000a900473ffffffffffffffffffffffffffffffffffffffff1673ffffffffffffffffffffffffffffffffffffffff1663a9059cbb33846040518363ffffffff1660e01b8152600401808373ffffffffffffffffffffffffffffffffffffffff1673ffffffffffffffffffffffffffffffffffffffff16815260200182815260200192505050602060405180830381600087803b15801561107057600080fd5b505af1158015611084573d6000803e3d6000fd5b505050506040513d602081101561109a57600080fd5b81019080805190602001909291905050509050806110b757600080fd5b6110c28633856124b1565b7f3a9a9f34f5831e9c8ecb66ab3aa308b2ff31eaca434615f6c9cadc656a9af71c338484604051808473ffffffffffffffffffffffffffffffffffffffff1673ffffffffffffffffffffffffffffffffffffffff168152602001838152602001828152602001935050505060405180910390a160019450505050505b919050565b600080600260008473ffffffffffffffffffffffffffffffffffffffff1673ffffffffffffffffffffffffffffffffffffffff16815260200190815260200160002090508060000160009054906101000a900460ff16915050919050565b600080600260008473ffffffffffffffffffffffffffffffffffffffff1673ffffffffffffffffffffffffffffffffffffffff16815260200190815260200160002090508060070154915050919050565b6000809054906101000a900473ffffffffffffffffffffffffffffffffffffffff1673ffffffffffffffffffffffffffffffffffffffff163373ffffffffffffffffffffffffffffffffffffffff1614611297576040517f08c379a000000000000000000000000000000000000000000000000000000000815260040180806020018281038252602c815260200180612b2b602c913960400191505060405180910390fd5b600073ffffffffffffffffffffffffffffffffffffffff168173ffffffffffffffffffffffffffffffffffffffff16141561131d576040517f08c379a000000000000000000000000000000000000000000000000000000000815260040180806020018281038252602a815260200180612ad7602a913960400191505060405180910390fd5b806000806101000a81548173ffffffffffffffffffffffffffffffffffffffff021916908373ffffffffffffffffffffffffffffffffffffffff1602179055507f4101e71e974f68df5e9730cc223280b41654676bbb052cdcc735c3337e64d2d96000809054906101000a900473ffffffffffffffffffffffffffffffffffffffff16604051808273ffffffffffffffffffffffffffffffffffffffff1673ffffffffffffffffffffffffffffffffffffffff16815260200191505060405180910390a150565b6000809054906101000a900473ffffffffffffffffffffffffffffffffffffffff1673ffffffffffffffffffffffffffffffffffffffff163373ffffffffffffffffffffffffffffffffffffffff1614611489576040517f08c379a000000000000000000000000000000000000000000000000000000000815260040180806020018281038252602c815260200180612b2b602c913960400191505060405180910390fd5b8173ffffffffffffffffffffffffffffffffffffffff16633cebb823826040518263ffffffff1660e01b8152600401808273ffffffffffffffffffffffffffffffffffffffff1673ffffffffffffffffffffffffffffffffffffffff168152602001915050600060405180830381600087803b15801561150857600080fd5b505af115801561151c573d6000803e3d6000fd5b505050505050565b6000600160008473ffffffffffffffffffffffffffffffffffffffff1673ffffffffffffffffffffffffffffffffffffffff16815260200190815260200160002060008373ffffffffffffffffffffffffffffffffffffffff1673ffffffffffffffffffffffffffffffffffffffff16815260200190815260200160002060010154905092915050565b600080600260008473ffffffffffffffffffffffffffffffffffffffff1673ffffffffffffffffffffffffffffffffffffffff16815260200190815260200160002090508060030154915050919050565b6000600190509392505050565b6000809054906101000a900473ffffffffffffffffffffffffffffffffffffffff1673ffffffffffffffffffffffffffffffffffffffff163373ffffffffffffffffffffffffffffffffffffffff16146116b1576040517f08c379a000000000000000000000000000000000000000000000000000000000815260040180806020018281038252602c815260200180612b2b602c913960400191505060405180910390fd5b80600460006101000a81548173ffffffffffffffffffffffffffffffffffffffff021916908373ffffffffffffffffffffffffffffffffffffffff16021790555050565b6000809054906101000a900473ffffffffffffffffffffffffffffffffffffffff1673ffffffffffffffffffffffffffffffffffffffff163373ffffffffffffffffffffffffffffffffffffffff161461179a576040517f08c379a000000000000000000000000000000000000000000000000000000000815260040180806020018281038252602c815260200180612b2b602c913960400191505060405180910390fd5b81600260008273ffffffffffffffffffffffffffffffffffffffff1673ffffffffffffffffffffffffffffffffffffffff16815260200190815260200160002060000160009054906101000a900460ff1615806118385750600260008273ffffffffffffffffffffffffffffffffffffffff1673ffffffffffffffffffffffffffffffffffffffff1681526020019081526020016000206001015442105b61188d576040517f08c379a000000000000000000000000000000000000000000000000000000000815260040180806020018281038252602a815260200180612b01602a913960400191505060405180910390fd5b6000600260008573ffffffffffffffffffffffffffffffffffffffff1673ffffffffffffffffffffffffffffffffffffffff168152602001908152602001600020905082816007018190555050505050565b6000806118ec8484611524565b905061190a816118fc8686612556565b6126da90919063ffffffff16565b91505092915050565b6000809054906101000a900473ffffffffffffffffffffffffffffffffffffffff1673ffffffffffffffffffffffffffffffffffffffff163373ffffffffffffffffffffffffffffffffffffffff16146119b8576040517f08c379a000000000000000000000000000000000000000000000000000000000815260040180806020018281038252602c815260200180612b2b602c913960400191505060405180910390fd5b85600260008273ffffffffffffffffffffffffffffffffffffffff1673ffffffffffffffffffffffffffffffffffffffff16815260200190815260200160002060000160009054906101000a900460ff1615611a5f576040517f08c379a000000000000000000000000000000000000000000000000000000000815260040180806020018281038252602f815260200180612a5b602f913960400191505060405180910390fd5b611a7562278d008361242b90919063ffffffff16565b851115611acd576040517f08c379a000000000000000000000000000000000000000000000000000000000815260040180806020018281038252602d8152602001806129fd602d913960400191505060405180910390fd5b60008211611b43576040517f08c379a000000000000000000000000000000000000000000000000000000000815260040180806020018281038252601d8152602001807f56657374696e67537761707065723a206475726174696f6e206973203000000081525060200191505060405180910390fd5b42611b6c611b5d62278d008561242b90919063ffffffff16565b8861276390919063ffffffff16565b11611bc2576040517f08c379a0000000000000000000000000000000000000000000000000000000008152600401808060200182810382526031815260200180612a2a6031913960400191505060405180910390fd5b6000600260008973ffffffffffffffffffffffffffffffffffffffff1673ffffffffffffffffffffffffffffffffffffffff1681526020019081526020016000209050868160010181905550611c21868861276390919063ffffffff16565b8160020181905550611c3c858861276390919063ffffffff16565b8160030181905550838160040181905550828160050181905550611c6c62278d008461242b90919063ffffffff16565b816006018190555060018160000160006101000a81548160ff0219169083151502179055508773ffffffffffffffffffffffffffffffffffffffff166318160ddd6040518163ffffffff1660e01b815260040160206040518083038186803b158015611cd757600080fd5b505afa158015611ceb573d6000803e3d6000fd5b505050506040513d6020811015611d0157600080fd5b810190808051906020019092919050505081600801819055505050505050505050565b60008290508073ffffffffffffffffffffffffffffffffffffffff166370a08231866040518263ffffffff1660e01b8152600401808273ffffffffffffffffffffffffffffffffffffffff1673ffffffffffffffffffffffffffffffffffffffff16815260200191505060206040518083038186803b158015611da657600080fd5b505afa158015611dba573d6000803e3d6000fd5b505050506040513d6020811015611dd057600080fd5b8101908080519060200190929190505050841115611e39576040517f08c379a00000000000000000000000000000000000000000000000000000000081526004018080602001828103825260278152602001806129af6027913960400191505060405180910390fd5b60008173ffffffffffffffffffffffffffffffffffffffff166323b872dd8730886040518463ffffffff1660e01b8152600401808473ffffffffffffffffffffffffffffffffffffffff1673ffffffffffffffffffffffffffffffffffffffff1681526020018373ffffffffffffffffffffffffffffffffffffffff1673ffffffffffffffffffffffffffffffffffffffff1681526020018281526020019350505050602060405180830381600087803b158015611ef657600080fd5b505af1158015611f0a573d6000803e3d6000fd5b505050506040513d6020811015611f2057600080fd5b8101908080519060200190929190505050905080611f89576040517f08c379a00000000000000000000000000000000000000000000000000000000081526004018080602001828103825260278152602001806129d66027913960400191505060405180910390fd5b611f948287876127eb565b505050505050565b600080600260008473ffffffffffffffffffffffffffffffffffffffff1673ffffffffffffffffffffffffffffffffffffffff16815260200190815260200160002090508060050154915050919050565b60008060009054906101000a900473ffffffffffffffffffffffffffffffffffffffff16905090565b6001602052816000526040600020602052806000526040600020600091509150508060000154908060010154905082565b600080600260008473ffffffffffffffffffffffffffffffffffffffff1673ffffffffffffffffffffffffffffffffffffffff16815260200190815260200160002090508060020154915050919050565b6000600160008473ffffffffffffffffffffffffffffffffffffffff1673ffffffffffffffffffffffffffffffffffffffff16815260200190815260200160002060008373ffffffffffffffffffffffffffffffffffffffff1673ffffffffffffffffffffffffffffffffffffffff16815260200190815260200160002060000154905092915050565b6000600190509392505050565b600080600260008473ffffffffffffffffffffffffffffffffffffffff1673ffffffffffffffffffffffffffffffffffffffff16815260200190815260200160002090508060010154915050919050565b600360009054906101000a900473ffffffffffffffffffffffffffffffffffffffff1681565b6000809054906101000a900473ffffffffffffffffffffffffffffffffffffffff1673ffffffffffffffffffffffffffffffffffffffff163373ffffffffffffffffffffffffffffffffffffffff161461224b576040517f08c379a000000000000000000000000000000000000000000000000000000000815260040180806020018281038252602c815260200180612b2b602c913960400191505060405180910390fd5b600360009054906101000a900473ffffffffffffffffffffffffffffffffffffffff1673ffffffffffffffffffffffffffffffffffffffff1663a9059cbb83836040518363ffffffff1660e01b8152600401808373ffffffffffffffffffffffffffffffffffffffff1673ffffffffffffffffffffffffffffffffffffffff16815260200182815260200192505050602060405180830381600087803b1580156122f457600080fd5b505af1158015612308573d6000803e3d6000fd5b505050506040513d602081101561231e57600080fd5b8101908080519060200190929190505050507fb244b9a17ad633c6e83b7983ee04320484956a68ddbe96a0b70dfca1cf19d7238282604051808373ffffffffffffffffffffffffffffffffffffffff1673ffffffffffffffffffffffffffffffffffffffff1681526020018281526020019250505060405180910390a15050565b600060019050919050565b60026020528060005260406000206000915090508060000160009054906101000a900460ff16908060010154908060020154908060030154908060040154908060050154908060060154908060070154908060080154905089565b600460009054906101000a900473ffffffffffffffffffffffffffffffffffffffff1681565b60008083141561243e57600090506124ab565b600082840290508284828161244f57fe5b04146124a6576040517f08c379a0000000000000000000000000000000000000000000000000000000008152600401808060200182810382526021815260200180612ab66021913960400191505060405180910390fd5b809150505b92915050565b6000600160008573ffffffffffffffffffffffffffffffffffffffff1673ffffffffffffffffffffffffffffffffffffffff16815260200190815260200160002060008473ffffffffffffffffffffffffffffffffffffffff1673ffffffffffffffffffffffffffffffffffffffff168152602001908152602001600020905061254882826001015461276390919063ffffffff16565b816001018190555050505050565b600080600260008573ffffffffffffffffffffffffffffffffffffffff1673ffffffffffffffffffffffffffffffffffffffff16815260200190815260200160002090508060000160009054906101000a900460ff166125ba5760009150506126d4565b80600201544210156125d05760009150506126d4565b80600301544210156125ee576125e68484612890565b9150506126d4565b6126098160060154826003015461276390919063ffffffff16565b4210612621576126198484612098565b9150506126d4565b600061262d8585612890565b90506000612670600161266262278d006126548760030154426126da90919063ffffffff16565b61291f90919063ffffffff16565b61276390919063ffffffff16565b9050600061267e8787612098565b90506126cd836126bf86600501546126b1866126a389886126da90919063ffffffff16565b61242b90919063ffffffff16565b61291f90919063ffffffff16565b61276390919063ffffffff16565b9450505050505b92915050565b600082821115612752576040517f08c379a000000000000000000000000000000000000000000000000000000000815260040180806020018281038252601e8152602001807f536166654d6174683a207375627472616374696f6e206f766572666c6f77000081525060200191505060405180910390fd5b600082840390508091505092915050565b6000808284019050838110156127e1576040517f08c379a000000000000000000000000000000000000000000000000000000000815260040180806020018281038252601b8152602001807f536166654d6174683a206164646974696f6e206f766572666c6f77000000000081525060200191505060405180910390fd5b8091505092915050565b6000600160008573ffffffffffffffffffffffffffffffffffffffff1673ffffffffffffffffffffffffffffffffffffffff16815260200190815260200160002060008473ffffffffffffffffffffffffffffffffffffffff1673ffffffffffffffffffffffffffffffffffffffff168152602001908152602001600020905061288282826000015461276390919063ffffffff16565b816000018190555050505050565b600080600260008573ffffffffffffffffffffffffffffffffffffffff1673ffffffffffffffffffffffffffffffffffffffff168152602001908152602001600020905060006128e08585612098565b90506000826008015490506129148161290684866004015461242b90919063ffffffff16565b61291f90919063ffffffff16565b935050505092915050565b6000808211612996576040517f08c379a000000000000000000000000000000000000000000000000000000000815260040180806020018281038252601a8152602001807f536166654d6174683a206469766973696f6e206279207a65726f00000000000081525060200191505060405180910390fd5b60008284816129a157fe5b049050809150509291505056fe56657374696e67537761707065723a2072656365697665417070726f76616c206572726f72203156657374696e67537761707065723a2072656365697665417070726f76616c206572726f72203256657374696e67537761707065723a20636c696666206973206c6f6e676572207468616e206475726174696f6e56657374696e67537761707065723a2066696e616c2074696d65206973206265666f72652063757272656e742074696d6556657374696e67537761707065723a2063616e6e6f74206578656375746520616674657220696e6974696174696f6e56657374696e67537761707065723a206e6f742076616c69642073616c6520746f6b656e2061646472657373536166654d6174683a206d756c7469706c69636174696f6e206f766572666c6f775365636f6e646172793a206e6577207072696d61727920697320746865207a65726f206164647265737356657374696e67537761707065723a2063616e6e6f7420657865637574652061667465722073746172745365636f6e646172793a2063616c6c6572206973206e6f7420746865207072696d617279206163636f756e74a265627a7a72315820854607b8dd2672ec478a2e9d52fd8f9444bafe4a7e1dfac935ea243d6e580e0e64736f6c63430005100032",
  "source": "pragma solidity ^0.5.0;\n\nimport \"./openzeppelin-solidity/token/ERC20/ERC20Mintable.sol\";\nimport \"./openzeppelin-solidity/token/ERC20/IERC20.sol\";\nimport \"./openzeppelin-solidity/math/SafeMath.sol\";\nimport \"./openzeppelin-solidity/ownership/Secondary.sol\";\nimport \"./VestingToken.sol\";\nimport \"./TONVault.sol\";\n\ncontract VestingSwapper is Secondary {\n    using SafeMath for uint256;\n\n    uint256 constant UNIT_IN_SECONDS = 60 * 60 * 24 * 30;\n\n    struct BeneficiaryInfo {\n        uint256 totalAmount; // total deposit amount\n        uint256 releasedAmount; // released amount\n    }\n\n    struct VestingInfo {\n        bool isInitiated;\n        uint256 start; // start timestamp\n        uint256 cliff; // cilff timestamp\n        uint256 firstClaimTimestamp; // the timestamp of the first claim\n        uint256 firstClaimAmount; // the first claim amount of the VestingToken\n        uint256 durationUnit; // duration unit\n        uint256 durationInSeconds; // duration in seconds\n        uint256 ratio;\n        uint256 initialTotalSupply; // totalSupply of the VestingToken when initiated\n    }\n\n    // (VestingToken => (beneficiary => info))\n    mapping(address => mapping(address => BeneficiaryInfo)) public beneficiaryInfo;\n\n    // VestingToken => info\n    mapping(address => VestingInfo) public vestingInfo;\n\n    ERC20Mintable public _token;\n    TONVault public vault;\n\n    event Swapped(address account, uint256 unreleased, uint256 transferred);\n    event Withdrew(address recipient, uint256 amount);\n\n    modifier beforeInitiated(address vestingToken) {\n        require(!vestingInfo[vestingToken].isInitiated, \"VestingSwapper: cannot execute after initiation\");\n        _;\n    }\n\n    modifier beforeStart(address vestingToken) {\n        require(!vestingInfo[vestingToken].isInitiated || block.timestamp < vestingInfo[vestingToken].start, \"VestingSwapper: cannot execute after start\");\n        _;\n    }\n\n    // @param token ton token\n    constructor (ERC20Mintable token) public {\n        _token = token;\n    }\n\n    // @param vestingToken the address of vesting token\n    function swap(VestingToken vestingToken) external returns (bool) {\n        uint256 ratio = vestingInfo[address(vestingToken)].ratio;\n        require(ratio > 0, \"VestingSwapper: not valid sale token address\");\n\n        uint256 unreleased = releasableAmount(address(vestingToken), msg.sender);\n        if (unreleased == 0) {\n            return true;\n        }\n        uint256 ton_amount = unreleased.mul(ratio);\n        bool success = vestingToken.destroyTokens(address(this), unreleased);\n        require(success);\n        //success = _token.transfer(msg.sender, ton_amount);\n        success = _token.transferFrom(address(vault), address(this), ton_amount);\n        require(success);\n        success = _token.transfer(msg.sender, ton_amount);\n        require(success);\n        increaseReleasedAmount(address(vestingToken), msg.sender, unreleased);\n        \n        emit Swapped(msg.sender, unreleased, ton_amount);\n        return true;\n    }\n\n    function changeController(VestingToken vestingToken, address payable newController) external onlyPrimary {\n        vestingToken.changeController(newController);\n    }\n\n    function setVault(TONVault vaultAddress) external onlyPrimary {\n        vault = vaultAddress;\n    }\n\n    function withdraw(address payable recipient, uint amount256) external onlyPrimary {\n        _token.transfer(recipient, amount256);\n        emit Withdrew(recipient, amount256);\n    }\n\n    // TokenController\n\n    /// @notice Called when `_owner` sends ether to the MiniMe Token contract\n    /// @param _owner The address that sent the ether to create tokens\n    /// @return True if the ether is accepted, false if it throws\n    function proxyPayment(address _owner) public payable returns(bool) {\n        return true;\n    }\n\n    /// @notice Notifies the controller about a token transfer allowing the\n    ///  controller to react if desired\n    /// @param _from The origin of the transfer\n    /// @param _to The destination of the transfer\n    /// @param _amount The amount of the transfer\n    /// @return False if the controller does not authorize the transfer\n    function onTransfer(address _from, address _to, uint _amount) public returns(bool) {\n        return true;\n    }\n\n    /// @notice Notifies the controller about an approval allowing the\n    ///  controller to react if desired\n    /// @param _owner The address that calls `approve()`\n    /// @param _spender The spender in the `approve()` call\n    /// @param _amount The amount in the `approve()` call\n    /// @return False if the controller does not authorize the approval\n    function onApprove(address _owner, address _spender, uint _amount) public returns(bool) {\n        return true;\n    }\n\n    //\n    // init\n    //\n\n    /*function registerBeneficiary(address vestingToken, address[] memory beneficiaries, uint256[] memory amounts) public onlyPrimary {\n        require(beneficiaries.length == amounts.length);\n        for (uint256 i = 0; i < beneficiaries.length; i++) {\n            BeneficiaryInfo storage info = beneficiaryInfo[vestingToken][beneficiaries[i]];\n            info.totalAmount = amounts[i];\n        }\n    }*/\n\n    function receiveApproval(address from, uint256 _amount, address payable _token, bytes memory _data) public {\n        VestingToken token = VestingToken(_token);\n        require(_amount <= token.balanceOf(from), \"VestingSwapper: receiveApproval error 1\");\n\n        bool success = token.transferFrom(from, address(this), _amount);\n        require(success, \"VestingSwapper: receiveApproval error 2\");\n\n        add(token, from, _amount);\n    }\n\n    function add(VestingToken vestingToken, address beneficiary, uint256 amount) internal {\n        BeneficiaryInfo storage info = beneficiaryInfo[address(vestingToken)][beneficiary];\n        info.totalAmount = info.totalAmount.add(amount);\n    }\n\n    //\n    // init vesting info\n    //\n\n    // @notice initiate VestingToken\n    // @param vestingToken the address of vesting token\n    // @param start start timestamp\n    // @param cliffDurationInSeconds cliff duration from start date in seconds\n    // @param firstClaimDurationInSeconds the first claim duration from start date in seconds\n    // @param firstClaimAmount the first claim amount of the VestingToken\n    // @param durationUnit duration unit \n    function initiate(address vestingToken, uint256 start, uint256 cliffDurationInSeconds, uint256 firstClaimDurationInSeconds, uint256 firstClaimAmount, uint256 durationUnit) public onlyPrimary beforeInitiated(vestingToken) {\n        require(cliffDurationInSeconds <= durationUnit.mul(UNIT_IN_SECONDS), \"VestingSwapper: cliff is longer than duration\");\n        require(durationUnit > 0, \"VestingSwapper: duration is 0\");\n        require(start.add(durationUnit.mul(UNIT_IN_SECONDS)) > block.timestamp, \"VestingSwapper: final time is before current time\");\n        // TODO: firstClaimAmount should be less than token total supply\n\n        VestingInfo storage info = vestingInfo[vestingToken];\n        info.start = start;\n        info.cliff = start.add(cliffDurationInSeconds);\n        info.firstClaimTimestamp = start.add(firstClaimDurationInSeconds);\n        info.firstClaimAmount = firstClaimAmount;\n        info.durationUnit = durationUnit;\n        info.durationInSeconds = durationUnit.mul(UNIT_IN_SECONDS);\n        info.isInitiated = true;\n        info.initialTotalSupply = IERC20(vestingToken).totalSupply();\n    }\n\n    function updateRatio(address vestingToken, uint256 tokenRatio) external onlyPrimary beforeStart(vestingToken) {\n        VestingInfo storage info = vestingInfo[vestingToken];\n        info.ratio = tokenRatio;\n    }\n\n    // @notice get swapping ratio of VestingToken\n    // @param vestingToken the address of vesting token\n    // @param beneficiary the address of beneficiary\n    // @return the swapping ratio of the token\n    function ratio(address vestingToken) public view returns (uint256) {\n        VestingInfo storage info = vestingInfo[vestingToken];\n        return info.ratio;\n    }\n\n    //\n    // get vesting info\n    //\n\n    function initiated(address vestingToken) public view returns (bool) {\n        VestingInfo storage info = vestingInfo[vestingToken];\n        return info.isInitiated;\n    }\n\n    // @notice get vesting start date\n    // @param vestingToken the address of vesting token\n    // @return timestamp of the start date\n    function start(address vestingToken) public view returns (uint256) {\n        VestingInfo storage info = vestingInfo[vestingToken];\n        return info.start;\n    }\n\n    // @notice get vesting cliff date\n    // @param vestingToken the address of vesting token\n    // @return timestamp of the cliff date\n    function cliff(address vestingToken) public view returns (uint256) {\n        VestingInfo storage info = vestingInfo[vestingToken];\n        return info.cliff;\n    }\n\n    function firstClaim(address vestingToken) public view returns (uint256) {\n        VestingInfo storage info = vestingInfo[vestingToken];\n        return info.firstClaimTimestamp;\n    }\n\n    // @notice get the number of duration unit\n    // @param vestingToken the address of vesting token\n    // @return the number of duration unit\n    function duration(address vestingToken) public view returns (uint256) {\n        VestingInfo storage info = vestingInfo[vestingToken];\n        return info.durationUnit;\n    }\n\n    //\n    // beneficiary info\n    //\n\n    // @notice get total deposit amount of VestingToken\n    // @param vestingToken the address of vesting token\n    // @param beneficiary the address of beneficiary\n    // @return the amount of the token deposited\n    function totalAmount(address vestingToken, address beneficiary) public view returns (uint256) {\n        return beneficiaryInfo[vestingToken][beneficiary].totalAmount;\n    }\n\n    // @notice get released(swapped) amount of VestingToken\n    // @param vestingToken the address of vesting token\n    // @param beneficiary the address of beneficiary\n    // @return the amount of the token released\n    function released(address vestingToken, address beneficiary) public view returns (uint256) {\n        return beneficiaryInfo[vestingToken][beneficiary].releasedAmount;\n    }\n\n    // @notice get releasable amount of VestingToken\n    // @param vestingToken the address of vesting token\n    // @param beneficiary the address of beneficiary\n    // @return the releasable amount of the token\n    function releasableAmount(address vestingToken, address beneficiary) public view returns (uint256) {\n        uint256 releasedAmount = released(vestingToken, beneficiary);\n        return _releasableAmountLimit(vestingToken, beneficiary).sub(releasedAmount);\n    }\n\n    function increaseReleasedAmount(address vestingToken, address beneficiary, uint256 amount) internal {\n        BeneficiaryInfo storage info = beneficiaryInfo[vestingToken][beneficiary];\n        info.releasedAmount = info.releasedAmount.add(amount);\n    }\n\n    function _releasableAmountLimit(address vestingToken, address beneficiary) internal view returns (uint256) {\n        VestingInfo storage vestingInfo = vestingInfo[vestingToken];\n\n        if (!vestingInfo.isInitiated) {\n            return 0;\n        }\n\n        if (block.timestamp < vestingInfo.cliff) {\n            return 0;\n        } else if (block.timestamp < vestingInfo.firstClaimTimestamp) {\n            return firstClaimAmount(vestingToken, beneficiary);\n        } else if (block.timestamp >= vestingInfo.firstClaimTimestamp.add(vestingInfo.durationInSeconds)) {\n            return totalAmount(vestingToken, beneficiary);\n        } else {\n            uint256 userFirstClaimAmount = firstClaimAmount(vestingToken, beneficiary);\n            uint256 currenUnit = block.timestamp.sub(vestingInfo.firstClaimTimestamp).div(UNIT_IN_SECONDS).add(1);\n            uint256 totalAmount = totalAmount(vestingToken, beneficiary);\n            return totalAmount.sub(userFirstClaimAmount).mul(currenUnit).div(vestingInfo.durationUnit).add(userFirstClaimAmount);\n        }\n    }\n    \n    function firstClaimAmount(address vestingToken, address beneficiary) internal view returns (uint256) {\n        VestingInfo storage vestingInfo = vestingInfo[vestingToken];\n\n        uint256 userTotalAmount = totalAmount(vestingToken, beneficiary);\n        uint256 tokenTotalAmount = vestingInfo.initialTotalSupply;\n        return vestingInfo.firstClaimAmount.mul(userTotalAmount).div(tokenTotalAmount);\n    }\n}\n",
  "sourcePath": "/home/modagi/github/onther/presale-contracts/contracts/VestingSwapper.sol",
  "compiler": {
    "name": "solc",
    "version": "0.5.16+commit.9c3226ce.Emscripten.clang"
  },
  "schemaVersion": "3.2.0",
  "updatedAt": "2020-07-24T07:17:04.983Z",
  "networkType": "ethereum",
  "devdoc": {
    "methods": {
      "onApprove(address,address,uint256)": {
        "params": {
          "_amount": "The amount in the `approve()` call",
          "_owner": "The address that calls `approve()`",
          "_spender": "The spender in the `approve()` call"
        },
        "return": "False if the controller does not authorize the approval"
      },
      "onTransfer(address,address,uint256)": {
        "params": {
          "_amount": "The amount of the transfer",
          "_from": "The origin of the transfer",
          "_to": "The destination of the transfer"
        },
        "return": "False if the controller does not authorize the transfer"
      },
      "primary()": {
        "return": "the address of the primary."
      },
      "proxyPayment(address)": {
        "params": {
          "_owner": "The address that sent the ether to create tokens"
        },
        "return": "True if the ether is accepted, false if it throws"
      },
      "transferPrimary(address)": {
        "details": "Transfers contract to a new primary.",
        "params": {
          "recipient": "The address of new primary."
        }
      }
    }
  },
  "userdoc": {
    "methods": {
      "onApprove(address,address,uint256)": {
        "notice": "Notifies the controller about an approval allowing the  controller to react if desired"
      },
      "onTransfer(address,address,uint256)": {
        "notice": "Notifies the controller about a token transfer allowing the  controller to react if desired"
      },
      "proxyPayment(address)": {
        "notice": "Called when `_owner` sends ether to the MiniMe Token contract"
      }
    }
  }
}