{
  "contractName": "VestingToken",
  "abi": [
    {
      "inputs": [
        {
          "internalType": "address",
          "name": "tokenFactory",
          "type": "address"
        },
        {
          "internalType": "address payable",
          "name": "parentToken",
          "type": "address"
        },
        {
          "internalType": "uint256",
          "name": "parentSnapShotBlock",
          "type": "uint256"
        },
        {
          "internalType": "string",
          "name": "tokenName",
          "type": "string"
        },
        {
          "internalType": "uint8",
          "name": "decimalUnits",
          "type": "uint8"
        },
        {
          "internalType": "string",
          "name": "tokenSymbol",
          "type": "string"
        },
        {
          "internalType": "bool",
          "name": "transfersEnabled",
          "type": "bool"
        }
      ],
      "payable": false,
      "stateMutability": "nonpayable",
      "type": "constructor"
    },
    {
      "anonymous": false,
      "inputs": [
        {
          "indexed": true,
          "internalType": "address",
          "name": "_owner",
          "type": "address"
        },
        {
          "indexed": true,
          "internalType": "address",
          "name": "_spender",
          "type": "address"
        },
        {
          "indexed": false,
          "internalType": "uint256",
          "name": "_amount",
          "type": "uint256"
        }
      ],
      "name": "Approval",
      "type": "event"
    },
    {
      "anonymous": false,
      "inputs": [
        {
          "indexed": true,
          "internalType": "address",
          "name": "_token",
          "type": "address"
        },
        {
          "indexed": true,
          "internalType": "address",
          "name": "_controller",
          "type": "address"
        },
        {
          "indexed": false,
          "internalType": "uint256",
          "name": "_amount",
          "type": "uint256"
        }
      ],
      "name": "ClaimedTokens",
      "type": "event"
    },
    {
      "anonymous": false,
      "inputs": [
        {
          "indexed": true,
          "internalType": "address",
          "name": "_cloneToken",
          "type": "address"
        },
        {
          "indexed": false,
          "internalType": "uint256",
          "name": "_snapshotBlock",
          "type": "uint256"
        }
      ],
      "name": "NewCloneToken",
      "type": "event"
    },
    {
      "anonymous": false,
      "inputs": [
        {
          "indexed": true,
          "internalType": "address",
          "name": "_from",
          "type": "address"
        },
        {
          "indexed": true,
          "internalType": "address",
          "name": "_to",
          "type": "address"
        },
        {
          "indexed": false,
          "internalType": "uint256",
          "name": "_amount",
          "type": "uint256"
        }
      ],
      "name": "Transfer",
      "type": "event"
    },
    {
      "payable": true,
      "stateMutability": "payable",
      "type": "fallback"
    },
    {
      "constant": true,
      "inputs": [
        {
          "internalType": "address",
          "name": "_owner",
          "type": "address"
        },
        {
          "internalType": "address",
          "name": "_spender",
          "type": "address"
        }
      ],
      "name": "allowance",
      "outputs": [
        {
          "internalType": "uint256",
          "name": "remaining",
          "type": "uint256"
        }
      ],
      "payable": false,
      "stateMutability": "view",
      "type": "function"
    },
    {
      "constant": false,
      "inputs": [
        {
          "internalType": "address",
          "name": "_spender",
          "type": "address"
        },
        {
          "internalType": "uint256",
          "name": "_amount",
          "type": "uint256"
        }
      ],
      "name": "approve",
      "outputs": [
        {
          "internalType": "bool",
          "name": "success",
          "type": "bool"
        }
      ],
      "payable": false,
      "stateMutability": "nonpayable",
      "type": "function"
    },
    {
      "constant": false,
      "inputs": [
        {
          "internalType": "address",
          "name": "_spender",
          "type": "address"
        },
        {
          "internalType": "uint256",
          "name": "_amount",
          "type": "uint256"
        },
        {
          "internalType": "bytes",
          "name": "_extraData",
          "type": "bytes"
        }
      ],
      "name": "approveAndCall",
      "outputs": [
        {
          "internalType": "bool",
          "name": "success",
          "type": "bool"
        }
      ],
      "payable": false,
      "stateMutability": "nonpayable",
      "type": "function"
    },
    {
      "constant": true,
      "inputs": [
        {
          "internalType": "address",
          "name": "_owner",
          "type": "address"
        }
      ],
      "name": "balanceOf",
      "outputs": [
        {
          "internalType": "uint256",
          "name": "balance",
          "type": "uint256"
        }
      ],
      "payable": false,
      "stateMutability": "view",
      "type": "function"
    },
    {
      "constant": true,
      "inputs": [
        {
          "internalType": "address",
          "name": "_owner",
          "type": "address"
        },
        {
          "internalType": "uint256",
          "name": "_blockNumber",
          "type": "uint256"
        }
      ],
      "name": "balanceOfAt",
      "outputs": [
        {
          "internalType": "uint256",
          "name": "",
          "type": "uint256"
        }
      ],
      "payable": false,
      "stateMutability": "view",
      "type": "function"
    },
    {
      "constant": false,
      "inputs": [
        {
          "internalType": "address payable",
          "name": "_newController",
          "type": "address"
        }
      ],
      "name": "changeController",
      "outputs": [],
      "payable": false,
      "stateMutability": "nonpayable",
      "type": "function"
    },
    {
      "constant": false,
      "inputs": [
        {
          "internalType": "address payable",
          "name": "_token",
          "type": "address"
        }
      ],
      "name": "claimTokens",
      "outputs": [],
      "payable": false,
      "stateMutability": "nonpayable",
      "type": "function"
    },
    {
      "constant": true,
      "inputs": [],
      "name": "controller",
      "outputs": [
        {
          "internalType": "address payable",
          "name": "",
          "type": "address"
        }
      ],
      "payable": false,
      "stateMutability": "view",
      "type": "function"
    },
    {
      "constant": false,
      "inputs": [
        {
          "internalType": "string",
          "name": "_cloneTokenName",
          "type": "string"
        },
        {
          "internalType": "uint8",
          "name": "_cloneDecimalUnits",
          "type": "uint8"
        },
        {
          "internalType": "string",
          "name": "_cloneTokenSymbol",
          "type": "string"
        },
        {
          "internalType": "uint256",
          "name": "_snapshotBlock",
          "type": "uint256"
        },
        {
          "internalType": "bool",
          "name": "_transfersEnabled",
          "type": "bool"
        }
      ],
      "name": "createCloneToken",
      "outputs": [
        {
          "internalType": "address",
          "name": "",
          "type": "address"
        }
      ],
      "payable": false,
      "stateMutability": "nonpayable",
      "type": "function"
    },
    {
      "constant": true,
      "inputs": [],
      "name": "creationBlock",
      "outputs": [
        {
          "internalType": "uint256",
          "name": "",
          "type": "uint256"
        }
      ],
      "payable": false,
      "stateMutability": "view",
      "type": "function"
    },
    {
      "constant": true,
      "inputs": [],
      "name": "decimals",
      "outputs": [
        {
          "internalType": "uint8",
          "name": "",
          "type": "uint8"
        }
      ],
      "payable": false,
      "stateMutability": "view",
      "type": "function"
    },
    {
      "constant": false,
      "inputs": [
        {
          "internalType": "address",
          "name": "_owner",
          "type": "address"
        },
        {
          "internalType": "uint256",
          "name": "_amount",
          "type": "uint256"
        }
      ],
      "name": "destroyTokens",
      "outputs": [
        {
          "internalType": "bool",
          "name": "",
          "type": "bool"
        }
      ],
      "payable": false,
      "stateMutability": "nonpayable",
      "type": "function"
    },
    {
      "constant": false,
      "inputs": [
        {
          "internalType": "bool",
          "name": "_transfersEnabled",
          "type": "bool"
        }
      ],
      "name": "enableTransfers",
      "outputs": [],
      "payable": false,
      "stateMutability": "nonpayable",
      "type": "function"
    },
    {
      "constant": false,
      "inputs": [
        {
          "internalType": "address",
          "name": "_owner",
          "type": "address"
        },
        {
          "internalType": "uint256",
          "name": "_amount",
          "type": "uint256"
        }
      ],
      "name": "generateTokens",
      "outputs": [
        {
          "internalType": "bool",
          "name": "",
          "type": "bool"
        }
      ],
      "payable": false,
      "stateMutability": "nonpayable",
      "type": "function"
    },
    {
      "constant": true,
      "inputs": [],
      "name": "name",
      "outputs": [
        {
          "internalType": "string",
          "name": "",
          "type": "string"
        }
      ],
      "payable": false,
      "stateMutability": "view",
      "type": "function"
    },
    {
      "constant": true,
      "inputs": [],
      "name": "parentSnapShotBlock",
      "outputs": [
        {
          "internalType": "uint256",
          "name": "",
          "type": "uint256"
        }
      ],
      "payable": false,
      "stateMutability": "view",
      "type": "function"
    },
    {
      "constant": true,
      "inputs": [],
      "name": "parentToken",
      "outputs": [
        {
          "internalType": "contract MiniMeToken",
          "name": "",
          "type": "address"
        }
      ],
      "payable": false,
      "stateMutability": "view",
      "type": "function"
    },
    {
      "constant": true,
      "inputs": [],
      "name": "symbol",
      "outputs": [
        {
          "internalType": "string",
          "name": "",
          "type": "string"
        }
      ],
      "payable": false,
      "stateMutability": "view",
      "type": "function"
    },
    {
      "constant": true,
      "inputs": [],
      "name": "tokenFactory",
      "outputs": [
        {
          "internalType": "contract MiniMeTokenFactory",
          "name": "",
          "type": "address"
        }
      ],
      "payable": false,
      "stateMutability": "view",
      "type": "function"
    },
    {
      "constant": true,
      "inputs": [],
      "name": "totalSupply",
      "outputs": [
        {
          "internalType": "uint256",
          "name": "",
          "type": "uint256"
        }
      ],
      "payable": false,
      "stateMutability": "view",
      "type": "function"
    },
    {
      "constant": true,
      "inputs": [
        {
          "internalType": "uint256",
          "name": "_blockNumber",
          "type": "uint256"
        }
      ],
      "name": "totalSupplyAt",
      "outputs": [
        {
          "internalType": "uint256",
          "name": "",
          "type": "uint256"
        }
      ],
      "payable": false,
      "stateMutability": "view",
      "type": "function"
    },
    {
      "constant": false,
      "inputs": [
        {
          "internalType": "address",
          "name": "_to",
          "type": "address"
        },
        {
          "internalType": "uint256",
          "name": "_amount",
          "type": "uint256"
        }
      ],
      "name": "transfer",
      "outputs": [
        {
          "internalType": "bool",
          "name": "success",
          "type": "bool"
        }
      ],
      "payable": false,
      "stateMutability": "nonpayable",
      "type": "function"
    },
    {
      "constant": false,
      "inputs": [
        {
          "internalType": "address",
          "name": "_from",
          "type": "address"
        },
        {
          "internalType": "address",
          "name": "_to",
          "type": "address"
        },
        {
          "internalType": "uint256",
          "name": "_amount",
          "type": "uint256"
        }
      ],
      "name": "transferFrom",
      "outputs": [
        {
          "internalType": "bool",
          "name": "success",
          "type": "bool"
        }
      ],
      "payable": false,
      "stateMutability": "nonpayable",
      "type": "function"
    },
    {
      "constant": true,
      "inputs": [],
      "name": "transfersEnabled",
      "outputs": [
        {
          "internalType": "bool",
          "name": "",
          "type": "bool"
        }
      ],
      "payable": false,
      "stateMutability": "view",
      "type": "function"
    },
    {
      "constant": true,
      "inputs": [],
      "name": "version",
      "outputs": [
        {
          "internalType": "string",
          "name": "",
          "type": "string"
        }
      ],
      "payable": false,
      "stateMutability": "view",
      "type": "function"
    },
    {
      "constant": true,
      "inputs": [],
      "name": "initiated",
      "outputs": [
        {
          "internalType": "bool",
          "name": "",
          "type": "bool"
        }
      ],
      "payable": false,
      "stateMutability": "view",
      "type": "function"
    },
    {
      "constant": true,
      "inputs": [],
      "name": "cliff",
      "outputs": [
        {
          "internalType": "uint256",
          "name": "",
          "type": "uint256"
        }
      ],
      "payable": false,
      "stateMutability": "view",
      "type": "function"
    },
    {
      "constant": true,
      "inputs": [],
      "name": "start",
      "outputs": [
        {
          "internalType": "uint256",
          "name": "",
          "type": "uint256"
        }
      ],
      "payable": false,
      "stateMutability": "view",
      "type": "function"
    },
    {
      "constant": true,
      "inputs": [],
      "name": "duration",
      "outputs": [
        {
          "internalType": "uint256",
          "name": "",
          "type": "uint256"
        }
      ],
      "payable": false,
      "stateMutability": "view",
      "type": "function"
    },
    {
      "constant": true,
      "inputs": [
        {
          "internalType": "address",
          "name": "beneficiary",
          "type": "address"
        }
      ],
      "name": "released",
      "outputs": [
        {
          "internalType": "uint256",
          "name": "",
          "type": "uint256"
        }
      ],
      "payable": false,
      "stateMutability": "view",
      "type": "function"
    },
    {
      "constant": false,
      "inputs": [
        {
          "internalType": "uint256",
          "name": "start",
          "type": "uint256"
        },
        {
          "internalType": "uint256",
          "name": "cliffDuration",
          "type": "uint256"
        },
        {
          "internalType": "uint256",
          "name": "duration",
          "type": "uint256"
        }
      ],
      "name": "initiate",
      "outputs": [],
      "payable": false,
      "stateMutability": "nonpayable",
      "type": "function"
    },
    {
      "constant": false,
      "inputs": [
        {
          "internalType": "address",
          "name": "beneficiary",
          "type": "address"
        }
      ],
      "name": "destroyReleasableTokens",
      "outputs": [
        {
          "internalType": "uint256",
          "name": "unreleased",
          "type": "uint256"
        }
      ],
      "payable": false,
      "stateMutability": "nonpayable",
      "type": "function"
    },
    {
      "constant": true,
      "inputs": [
        {
          "internalType": "address",
          "name": "beneficiary",
          "type": "address"
        }
      ],
      "name": "releasableAmount",
      "outputs": [
        {
          "internalType": "uint256",
          "name": "",
          "type": "uint256"
        }
      ],
      "payable": false,
      "stateMutability": "view",
      "type": "function"
    }
  ],
  "bytecode": "0x60806040526040518060400160405280600781526020017f4d4d545f302e320000000000000000000000000000000000000000000000000081525060049080519060200190620000519291906200038a565b503480156200005f57600080fd5b506040516200421638038062004216833981810160405260e08110156200008557600080fd5b8101908080519060200190929190805190602001909291908051906020019092919080516040519392919084640100000000821115620000c457600080fd5b83820191506020820185811115620000db57600080fd5b8251866001820283011164010000000082111715620000f957600080fd5b8083526020830192505050908051906020019080838360005b838110156200012f57808201518184015260208101905062000112565b50505050905090810190601f1680156200015d5780820380516001836020036101000a031916815260200191505b5060405260200180519060200190929190805160405193929190846401000000008211156200018b57600080fd5b83820191506020820185811115620001a257600080fd5b8251866001820283011164010000000082111715620001c057600080fd5b8083526020830192505050908051906020019080838360005b83811015620001f6578082015181840152602081019050620001d9565b50505050905090810190601f168015620002245780820380516001836020036101000a031916815260200191505b506040526020018051906020019092919050505086868686868686336000806101000a81548173ffffffffffffffffffffffffffffffffffffffff021916908373ffffffffffffffffffffffffffffffffffffffff16021790555086600b60016101000a81548173ffffffffffffffffffffffffffffffffffffffff021916908373ffffffffffffffffffffffffffffffffffffffff1602179055508360019080519060200190620002d89291906200038a565b5082600260006101000a81548160ff021916908360ff16021790555081600390805190602001906200030c9291906200038a565b5085600560006101000a81548173ffffffffffffffffffffffffffffffffffffffff021916908373ffffffffffffffffffffffffffffffffffffffff1602179055508460068190555080600b60006101000a81548160ff02191690831515021790555043600781905550505050505050505050505050505062000439565b828054600181600116156101000203166002900490600052602060002090601f016020900481019282601f10620003cd57805160ff1916838001178555620003fe565b82800160010185558215620003fe579182015b82811115620003fd578251825591602001919060010190620003e0565b5b5090506200040d919062000411565b5090565b6200043691905b808211156200043257600081600090555060010162000418565b5090565b90565b613dcd80620004496000396000f3fe6080604052600436106101ee5760003560e01c8063827f32c01161010d578063c5bcc4f1116100a0578063dd62ed3e1161006f578063dd62ed3e14610ebd578063df8de3e714610f42578063e77772fe14610f93578063f41e60c514610fea578063f77c479114611027576101ee565b8063c5bcc4f114610cc6578063c99b5d4714610cf1578063cae9ca5114610d40578063d3ce77fe14610e4a576101ee565b80639f118536116100dc5780639f11853614610bca578063a9059cbb14610bf9578063be9a655514610c6c578063bef97c8714610c97576101ee565b8063827f32c014610a1357806395d89b4114610a86578063981b24d014610b165780639852595c14610b65576101ee565b806323b872dd1161018557806354fd4d501161015457806354fd4d50146107055780636638c0871461079557806370a082311461095757806380a54001146109bc576101ee565b806323b872dd14610581578063313ce567146106145780633cebb823146106455780634ee2cd7e14610696576101ee565b80631726cbc8116101c15780631726cbc81461046157806317634514146104c657806318160ddd146104f15780631f82b5251461051c576101ee565b806306fdde0314610308578063095ea7b3146103985780630fb5a6b41461040b57806313d033c014610436575b6102186000809054906101000a900473ffffffffffffffffffffffffffffffffffffffff1661107e565b61022157600080fd5b6000809054906101000a900473ffffffffffffffffffffffffffffffffffffffff1673ffffffffffffffffffffffffffffffffffffffff1663f48c305434336040518363ffffffff1660e01b8152600401808273ffffffffffffffffffffffffffffffffffffffff1673ffffffffffffffffffffffffffffffffffffffff1681526020019150506020604051808303818588803b1580156102c157600080fd5b505af11580156102d5573d6000803e3d6000fd5b50505050506040513d60208110156102ec57600080fd5b810190808051906020019092919050505061030657600080fd5b005b34801561031457600080fd5b5061031d6110d1565b6040518080602001828103825283818151815260200191508051906020019080838360005b8381101561035d578082015181840152602081019050610342565b50505050905090810190601f16801561038a5780820380516001836020036101000a031916815260200191505b509250505060405180910390f35b3480156103a457600080fd5b506103f1600480360360408110156103bb57600080fd5b81019080803573ffffffffffffffffffffffffffffffffffffffff1690602001909291908035906020019092919050505061116f565b604051808215151515815260200191505060405180910390f35b34801561041757600080fd5b506104206114aa565b6040518082815260200191505060405180910390f35b34801561044257600080fd5b5061044b6114b4565b6040518082815260200191505060405180910390f35b34801561046d57600080fd5b506104b06004803603602081101561048457600080fd5b81019080803573ffffffffffffffffffffffffffffffffffffffff1690602001909291905050506114be565b6040518082815260200191505060405180910390f35b3480156104d257600080fd5b506104db611521565b6040518082815260200191505060405180910390f35b3480156104fd57600080fd5b50610506611527565b6040518082815260200191505060405180910390f35b34801561052857600080fd5b5061056b6004803603602081101561053f57600080fd5b81019080803573ffffffffffffffffffffffffffffffffffffffff169060200190929190505050611537565b6040518082815260200191505060405180910390f35b34801561058d57600080fd5b506105fa600480360360608110156105a457600080fd5b81019080803573ffffffffffffffffffffffffffffffffffffffff169060200190929190803573ffffffffffffffffffffffffffffffffffffffff169060200190929190803590602001909291905050506117bd565b604051808215151515815260200191505060405180910390f35b34801561062057600080fd5b506106296119a2565b604051808260ff1660ff16815260200191505060405180910390f35b34801561065157600080fd5b506106946004803603602081101561066857600080fd5b81019080803573ffffffffffffffffffffffffffffffffffffffff1690602001909291905050506119b5565b005b3480156106a257600080fd5b506106ef600480360360408110156106b957600080fd5b81019080803573ffffffffffffffffffffffffffffffffffffffff16906020019092919080359060200190929190505050611a9d565b6040518082815260200191505060405180910390f35b34801561071157600080fd5b5061071a611d1d565b6040518080602001828103825283818151815260200191508051906020019080838360005b8381101561075a57808201518184015260208101905061073f565b50505050905090810190601f1680156107875780820380516001836020036101000a031916815260200191505b509250505060405180910390f35b3480156107a157600080fd5b50610915600480360360a08110156107b857600080fd5b81019080803590602001906401000000008111156107d557600080fd5b8201836020820111156107e757600080fd5b8035906020019184600183028401116401000000008311171561080957600080fd5b91908080601f016020809104026020016040519081016040528093929190818152602001838380828437600081840152601f19601f820116905080830192505050505050509192919290803560ff1690602001909291908035906020019064010000000081111561087957600080fd5b82018360208201111561088b57600080fd5b803590602001918460018302840111640100000000831117156108ad57600080fd5b91908080601f016020809104026020016040519081016040528093929190818152602001838380828437600081840152601f19601f82011690508083019250505050505050919291929080359060200190929190803515159060200190929190505050611dbb565b604051808273ffffffffffffffffffffffffffffffffffffffff1673ffffffffffffffffffffffffffffffffffffffff16815260200191505060405180910390f35b34801561096357600080fd5b506109a66004803603602081101561097a57600080fd5b81019080803573ffffffffffffffffffffffffffffffffffffffff169060200190929190505050612097565b6040518082815260200191505060405180910390f35b3480156109c857600080fd5b506109d16120aa565b604051808273ffffffffffffffffffffffffffffffffffffffff1673ffffffffffffffffffffffffffffffffffffffff16815260200191505060405180910390f35b348015610a1f57600080fd5b50610a6c60048036036040811015610a3657600080fd5b81019080803573ffffffffffffffffffffffffffffffffffffffff169060200190929190803590602001909291905050506120d0565b604051808215151515815260200191505060405180910390f35b348015610a9257600080fd5b50610a9b612277565b6040518080602001828103825283818151815260200191508051906020019080838360005b83811015610adb578082015181840152602081019050610ac0565b50505050905090810190601f168015610b085780820380516001836020036101000a031916815260200191505b509250505060405180910390f35b348015610b2257600080fd5b50610b4f60048036036020811015610b3957600080fd5b8101908080359060200190929190505050612315565b6040518082815260200191505060405180910390f35b348015610b7157600080fd5b50610bb460048036036020811015610b8857600080fd5b81019080803573ffffffffffffffffffffffffffffffffffffffff1690602001909291905050506124a9565b6040518082815260200191505060405180910390f35b348015610bd657600080fd5b50610bdf6124f2565b604051808215151515815260200191505060405180910390f35b348015610c0557600080fd5b50610c5260048036036040811015610c1c57600080fd5b81019080803573ffffffffffffffffffffffffffffffffffffffff16906020019092919080359060200190929190505050612509565b604051808215151515815260200191505060405180910390f35b348015610c7857600080fd5b50610c81612585565b6040518082815260200191505060405180910390f35b348015610ca357600080fd5b50610cac61258f565b604051808215151515815260200191505060405180910390f35b348015610cd257600080fd5b50610cdb6125a2565b6040518082815260200191505060405180910390f35b348015610cfd57600080fd5b50610d3e60048036036060811015610d1457600080fd5b810190808035906020019092919080359060200190929190803590602001909291905050506125a8565b005b348015610d4c57600080fd5b50610e3060048036036060811015610d6357600080fd5b81019080803573ffffffffffffffffffffffffffffffffffffffff1690602001909291908035906020019092919080359060200190640100000000811115610daa57600080fd5b820183602082011115610dbc57600080fd5b80359060200191846001830284011164010000000083111715610dde57600080fd5b91908080601f016020809104026020016040519081016040528093929190818152602001838380828437600081840152601f19601f82011690508083019250505050505050919291929050505061283d565b604051808215151515815260200191505060405180910390f35b348015610e5657600080fd5b50610ea360048036036040811015610e6d57600080fd5b81019080803573ffffffffffffffffffffffffffffffffffffffff1690602001909291908035906020019092919050505061299d565b604051808215151515815260200191505060405180910390f35b348015610ec957600080fd5b50610f2c60048036036040811015610ee057600080fd5b81019080803573ffffffffffffffffffffffffffffffffffffffff169060200190929190803573ffffffffffffffffffffffffffffffffffffffff169060200190929190505050612c12565b6040518082815260200191505060405180910390f35b348015610f4e57600080fd5b50610f9160048036036020811015610f6557600080fd5b81019080803573ffffffffffffffffffffffffffffffffffffffff169060200190929190505050612c99565b005b348015610f9f57600080fd5b50610fa8613011565b604051808273ffffffffffffffffffffffffffffffffffffffff1673ffffffffffffffffffffffffffffffffffffffff16815260200191505060405180910390f35b348015610ff657600080fd5b506110256004803603602081101561100d57600080fd5b81019080803515159060200190929190505050613037565b005b34801561103357600080fd5b5061103c6130f9565b604051808273ffffffffffffffffffffffffffffffffffffffff1673ffffffffffffffffffffffffffffffffffffffff16815260200191505060405180910390f35b600080600073ffffffffffffffffffffffffffffffffffffffff168373ffffffffffffffffffffffffffffffffffffffff1614156110c05760009150506110cc565b823b9050600081119150505b919050565b60018054600181600116156101000203166002900480601f0160208091040260200160405190810160405280929190818152602001828054600181600116156101000203166002900480156111675780601f1061113c57610100808354040283529160200191611167565b820191906000526020600020905b81548152906001019060200180831161114a57829003601f168201915b505050505081565b6000600b60009054906101000a900460ff166111d6576040517f08c379a0000000000000000000000000000000000000000000000000000000008152600401808060200182810382526023815260200180613c526023913960400191505060405180910390fd5b600082148061126157506000600960003373ffffffffffffffffffffffffffffffffffffffff1673ffffffffffffffffffffffffffffffffffffffff16815260200190815260200160002060008573ffffffffffffffffffffffffffffffffffffffff1673ffffffffffffffffffffffffffffffffffffffff16815260200190815260200160002054145b61126a57600080fd5b6112946000809054906101000a900473ffffffffffffffffffffffffffffffffffffffff1661107e565b156113ba576000809054906101000a900473ffffffffffffffffffffffffffffffffffffffff1673ffffffffffffffffffffffffffffffffffffffff1663da682aeb3385856040518463ffffffff1660e01b8152600401808473ffffffffffffffffffffffffffffffffffffffff1673ffffffffffffffffffffffffffffffffffffffff1681526020018373ffffffffffffffffffffffffffffffffffffffff1673ffffffffffffffffffffffffffffffffffffffff1681526020018281526020019350505050602060405180830381600087803b15801561137557600080fd5b505af1158015611389573d6000803e3d6000fd5b505050506040513d602081101561139f57600080fd5b81019080805190602001909291905050506113b957600080fd5b5b81600960003373ffffffffffffffffffffffffffffffffffffffff1673ffffffffffffffffffffffffffffffffffffffff16815260200190815260200160002060008573ffffffffffffffffffffffffffffffffffffffff1673ffffffffffffffffffffffffffffffffffffffff168152602001908152602001600020819055508273ffffffffffffffffffffffffffffffffffffffff163373ffffffffffffffffffffffffffffffffffffffff167f8c5be1e5ebec7d5bd14f71427d1e84f3dd0314c0f7b2291e5b200ac8c7c3b925846040518082815260200191505060405180910390a36001905092915050565b6000600e54905090565b6000600c54905090565b600061151a600f60008473ffffffffffffffffffffffffffffffffffffffff1673ffffffffffffffffffffffffffffffffffffffff1681526020019081526020016000205461150c8461311e565b61322190919063ffffffff16565b9050919050565b60075481565b600061153243612315565b905090565b6000600b60159054906101000a900460ff1661159e576040517f08c379a000000000000000000000000000000000000000000000000000000000815260040180806020018281038252602e815260200180613c75602e913960400191505060405180910390fd5b6000809054906101000a900473ffffffffffffffffffffffffffffffffffffffff1673ffffffffffffffffffffffffffffffffffffffff163373ffffffffffffffffffffffffffffffffffffffff1614611643576040517f08c379a0000000000000000000000000000000000000000000000000000000008152600401808060200182810382526028815260200180613d206028913960400191505060405180910390fd5b61164c826114be565b9050600081116116c4576040517f08c379a000000000000000000000000000000000000000000000000000000000815260040180806020018281038252601f8152602001807f56657374696e67546f6b656e3a206e6f20746f6b656e7320617265206475650081525060200191505060405180910390fd5b61171681600f60008573ffffffffffffffffffffffffffffffffffffffff1673ffffffffffffffffffffffffffffffffffffffff168152602001908152602001600020546132aa90919063ffffffff16565b600f60008473ffffffffffffffffffffffffffffffffffffffff1673ffffffffffffffffffffffffffffffffffffffff16815260200190815260200160002081905550611763828261299d565b6117b8576040517f08c379a0000000000000000000000000000000000000000000000000000000008152600401808060200182810382526026815260200180613d486026913960400191505060405180910390fd5b919050565b60008060009054906101000a900473ffffffffffffffffffffffffffffffffffffffff1673ffffffffffffffffffffffffffffffffffffffff163373ffffffffffffffffffffffffffffffffffffffff161461198c57600b60009054906101000a900460ff16611878576040517f08c379a0000000000000000000000000000000000000000000000000000000008152600401808060200182810382526023815260200180613c526023913960400191505060405180910390fd5b81600960008673ffffffffffffffffffffffffffffffffffffffff1673ffffffffffffffffffffffffffffffffffffffff16815260200190815260200160002060003373ffffffffffffffffffffffffffffffffffffffff1673ffffffffffffffffffffffffffffffffffffffff16815260200190815260200160002054101561190157600080fd5b81600960008673ffffffffffffffffffffffffffffffffffffffff1673ffffffffffffffffffffffffffffffffffffffff16815260200190815260200160002060003373ffffffffffffffffffffffffffffffffffffffff1673ffffffffffffffffffffffffffffffffffffffff168152602001908152602001600020600082825403925050819055505b611997848484613332565b600190509392505050565b600260009054906101000a900460ff1681565b6000809054906101000a900473ffffffffffffffffffffffffffffffffffffffff1673ffffffffffffffffffffffffffffffffffffffff163373ffffffffffffffffffffffffffffffffffffffff1614611a5a576040517f08c379a0000000000000000000000000000000000000000000000000000000008152600401808060200182810382526028815260200180613d206028913960400191505060405180910390fd5b806000806101000a81548173ffffffffffffffffffffffffffffffffffffffff021916908373ffffffffffffffffffffffffffffffffffffffff16021790555050565b600080600860008573ffffffffffffffffffffffffffffffffffffffff1673ffffffffffffffffffffffffffffffffffffffff168152602001908152602001600020805490501480611b74575081600860008573ffffffffffffffffffffffffffffffffffffffff1673ffffffffffffffffffffffffffffffffffffffff168152602001908152602001600020600081548110611b3657fe5b9060005260206000200160000160009054906101000a90046fffffffffffffffffffffffffffffffff166fffffffffffffffffffffffffffffffff16115b15611ccc57600073ffffffffffffffffffffffffffffffffffffffff16600560009054906101000a900473ffffffffffffffffffffffffffffffffffffffff1673ffffffffffffffffffffffffffffffffffffffff1614611cc357600560009054906101000a900473ffffffffffffffffffffffffffffffffffffffff1673ffffffffffffffffffffffffffffffffffffffff16634ee2cd7e84611c1a856006546133a8565b6040518363ffffffff1660e01b8152600401808373ffffffffffffffffffffffffffffffffffffffff1673ffffffffffffffffffffffffffffffffffffffff1681526020018281526020019250505060206040518083038186803b158015611c8157600080fd5b505afa158015611c95573d6000803e3d6000fd5b505050506040513d6020811015611cab57600080fd5b81019080805190602001909291905050509050611d17565b60009050611d17565b611d14600860008573ffffffffffffffffffffffffffffffffffffffff1673ffffffffffffffffffffffffffffffffffffffff168152602001908152602001600020836133c1565b90505b92915050565b60048054600181600116156101000203166002900480601f016020809104026020016040519081016040528092919081815260200182805460018160011615610100020316600290048015611db35780601f10611d8857610100808354040283529160200191611db3565b820191906000526020600020905b815481529060010190602001808311611d9657829003601f168201915b505050505081565b600080831415611dc9574392505b6000600b60019054906101000a900473ffffffffffffffffffffffffffffffffffffffff1673ffffffffffffffffffffffffffffffffffffffff16635b7b72c130868a8a8a896040518763ffffffff1660e01b8152600401808773ffffffffffffffffffffffffffffffffffffffff1673ffffffffffffffffffffffffffffffffffffffff168152602001868152602001806020018560ff1660ff1681526020018060200184151515158152602001838103835287818151815260200191508051906020019080838360005b83811015611eb0578082015181840152602081019050611e95565b50505050905090810190601f168015611edd5780820380516001836020036101000a031916815260200191505b50838103825285818151815260200191508051906020019080838360005b83811015611f16578082015181840152602081019050611efb565b50505050905090810190601f168015611f435780820380516001836020036101000a031916815260200191505b5098505050505050505050602060405180830381600087803b158015611f6857600080fd5b505af1158015611f7c573d6000803e3d6000fd5b505050506040513d6020811015611f9257600080fd5b810190808051906020019092919050505090508073ffffffffffffffffffffffffffffffffffffffff16633cebb823336040518263ffffffff1660e01b8152600401808273ffffffffffffffffffffffffffffffffffffffff1673ffffffffffffffffffffffffffffffffffffffff168152602001915050600060405180830381600087803b15801561202457600080fd5b505af1158015612038573d6000803e3d6000fd5b505050508073ffffffffffffffffffffffffffffffffffffffff167f086c875b377f900b07ce03575813022f05dd10ed7640b5282cf6d3c3fc352ade856040518082815260200191505060405180910390a28091505095945050505050565b60006120a38243611a9d565b9050919050565b600560009054906101000a900473ffffffffffffffffffffffffffffffffffffffff1681565b60008060009054906101000a900473ffffffffffffffffffffffffffffffffffffffff1673ffffffffffffffffffffffffffffffffffffffff163373ffffffffffffffffffffffffffffffffffffffff1614612177576040517f08c379a0000000000000000000000000000000000000000000000000000000008152600401808060200182810382526028815260200180613d206028913960400191505060405180910390fd5b6000612181611527565b905080838201101561219257600080fd5b600061219d85612097565b90508084820110156121ae57600080fd5b6121bb600a8584016135c0565b612205600860008773ffffffffffffffffffffffffffffffffffffffff1673ffffffffffffffffffffffffffffffffffffffff1681526020019081526020016000208583016135c0565b8473ffffffffffffffffffffffffffffffffffffffff16600073ffffffffffffffffffffffffffffffffffffffff167fddf252ad1be2c89b69c2b068fc378daa952ba7f163c4a11628f55a4df523b3ef866040518082815260200191505060405180910390a360019250505092915050565b60038054600181600116156101000203166002900480601f01602080910402602001604051908101604052809291908181526020018280546001816001161561010002031660029004801561230d5780601f106122e25761010080835404028352916020019161230d565b820191906000526020600020905b8154815290600101906020018083116122f057829003601f168201915b505050505081565b600080600a805490501480612372575081600a60008154811061233457fe5b9060005260206000200160000160009054906101000a90046fffffffffffffffffffffffffffffffff166fffffffffffffffffffffffffffffffff16115b1561249657600073ffffffffffffffffffffffffffffffffffffffff16600560009054906101000a900473ffffffffffffffffffffffffffffffffffffffff1673ffffffffffffffffffffffffffffffffffffffff161461248d57600560009054906101000a900473ffffffffffffffffffffffffffffffffffffffff1673ffffffffffffffffffffffffffffffffffffffff1663981b24d0612417846006546133a8565b6040518263ffffffff1660e01b81526004018082815260200191505060206040518083038186803b15801561244b57600080fd5b505afa15801561245f573d6000803e3d6000fd5b505050506040513d602081101561247557600080fd5b810190808051906020019092919050505090506124a4565b600090506124a4565b6124a1600a836133c1565b90505b919050565b6000600f60008373ffffffffffffffffffffffffffffffffffffffff1673ffffffffffffffffffffffffffffffffffffffff168152602001908152602001600020549050919050565b6000600b60159054906101000a900460ff16905090565b6000600b60009054906101000a900460ff16612570576040517f08c379a0000000000000000000000000000000000000000000000000000000008152600401808060200182810382526023815260200180613c526023913960400191505060405180910390fd5b61257b338484613332565b6001905092915050565b6000600d54905090565b600b60009054906101000a900460ff1681565b60065481565b600b60159054906101000a900460ff161561260e576040517f08c379a000000000000000000000000000000000000000000000000000000000815260040180806020018281038252602d815260200180613cd2602d913960400191505060405180910390fd5b6000809054906101000a900473ffffffffffffffffffffffffffffffffffffffff1673ffffffffffffffffffffffffffffffffffffffff163373ffffffffffffffffffffffffffffffffffffffff16146126b3576040517f08c379a0000000000000000000000000000000000000000000000000000000008152600401808060200182810382526028815260200180613d206028913960400191505060405180910390fd5b6001600b60156101000a81548160ff0219169083151502179055506126d86000613037565b80821115612731576040517f08c379a000000000000000000000000000000000000000000000000000000000815260040180806020018281038252602b815260200180613d6e602b913960400191505060405180910390fd5b600081116127a7576040517f08c379a000000000000000000000000000000000000000000000000000000000815260040180806020018281038252601b8152602001807f56657374696e67546f6b656e3a206475726174696f6e2069732030000000000081525060200191505060405180910390fd5b426127bb82856132aa90919063ffffffff16565b11612811576040517f08c379a000000000000000000000000000000000000000000000000000000000815260040180806020018281038252602f815260200180613ca3602f913960400191505060405180910390fd5b80600e8190555061282b82846132aa90919063ffffffff16565b600c8190555082600d81905550505050565b6000612849848461116f565b61285257600080fd5b8373ffffffffffffffffffffffffffffffffffffffff16638f4ffcb1338530866040518563ffffffff1660e01b8152600401808573ffffffffffffffffffffffffffffffffffffffff1673ffffffffffffffffffffffffffffffffffffffff1681526020018481526020018373ffffffffffffffffffffffffffffffffffffffff1673ffffffffffffffffffffffffffffffffffffffff16815260200180602001828103825283818151815260200191508051906020019080838360005b8381101561292b578082015181840152602081019050612910565b50505050905090810190601f1680156129585780820380516001836020036101000a031916815260200191505b5095505050505050600060405180830381600087803b15801561297a57600080fd5b505af115801561298e573d6000803e3d6000fd5b50505050600190509392505050565b60008060009054906101000a900473ffffffffffffffffffffffffffffffffffffffff1673ffffffffffffffffffffffffffffffffffffffff163373ffffffffffffffffffffffffffffffffffffffff1614612a44576040517f08c379a0000000000000000000000000000000000000000000000000000000008152600401808060200182810382526028815260200180613d206028913960400191505060405180910390fd5b6000612a4e611527565b905082811015612ac6576040517f08c379a00000000000000000000000000000000000000000000000000000000081526004018080602001828103825260088152602001807f4d696e694d65203100000000000000000000000000000000000000000000000081525060200191505060405180910390fd5b6000612ad185612097565b905083811015612b49576040517f08c379a00000000000000000000000000000000000000000000000000000000081526004018080602001828103825260088152602001807f4d696e694d65203200000000000000000000000000000000000000000000000081525060200191505060405180910390fd5b612b56600a8584036135c0565b612ba0600860008773ffffffffffffffffffffffffffffffffffffffff1673ffffffffffffffffffffffffffffffffffffffff1681526020019081526020016000208583036135c0565b600073ffffffffffffffffffffffffffffffffffffffff168573ffffffffffffffffffffffffffffffffffffffff167fddf252ad1be2c89b69c2b068fc378daa952ba7f163c4a11628f55a4df523b3ef866040518082815260200191505060405180910390a360019250505092915050565b6000600960008473ffffffffffffffffffffffffffffffffffffffff1673ffffffffffffffffffffffffffffffffffffffff16815260200190815260200160002060008373ffffffffffffffffffffffffffffffffffffffff1673ffffffffffffffffffffffffffffffffffffffff16815260200190815260200160002054905092915050565b6000809054906101000a900473ffffffffffffffffffffffffffffffffffffffff1673ffffffffffffffffffffffffffffffffffffffff163373ffffffffffffffffffffffffffffffffffffffff1614612d3e576040517f08c379a0000000000000000000000000000000000000000000000000000000008152600401808060200182810382526028815260200180613d206028913960400191505060405180910390fd5b600073ffffffffffffffffffffffffffffffffffffffff168173ffffffffffffffffffffffffffffffffffffffff161415612de0576000809054906101000a900473ffffffffffffffffffffffffffffffffffffffff1673ffffffffffffffffffffffffffffffffffffffff166108fc479081150290604051600060405180830381858888f19350505050158015612dda573d6000803e3d6000fd5b5061300e565b600081905060008173ffffffffffffffffffffffffffffffffffffffff166370a08231306040518263ffffffff1660e01b8152600401808273ffffffffffffffffffffffffffffffffffffffff1673ffffffffffffffffffffffffffffffffffffffff16815260200191505060206040518083038186803b158015612e6457600080fd5b505afa158015612e78573d6000803e3d6000fd5b505050506040513d6020811015612e8e57600080fd5b810190808051906020019092919050505090508173ffffffffffffffffffffffffffffffffffffffff1663a9059cbb6000809054906101000a900473ffffffffffffffffffffffffffffffffffffffff16836040518363ffffffff1660e01b8152600401808373ffffffffffffffffffffffffffffffffffffffff1673ffffffffffffffffffffffffffffffffffffffff16815260200182815260200192505050602060405180830381600087803b158015612f4957600080fd5b505af1158015612f5d573d6000803e3d6000fd5b505050506040513d6020811015612f7357600080fd5b8101908080519060200190929190505050506000809054906101000a900473ffffffffffffffffffffffffffffffffffffffff1673ffffffffffffffffffffffffffffffffffffffff168373ffffffffffffffffffffffffffffffffffffffff167ff931edb47c50b4b4104c187b5814a9aef5f709e17e2ecf9617e860cacade929c836040518082815260200191505060405180910390a350505b50565b600b60019054906101000a900473ffffffffffffffffffffffffffffffffffffffff1681565b6000809054906101000a900473ffffffffffffffffffffffffffffffffffffffff1673ffffffffffffffffffffffffffffffffffffffff163373ffffffffffffffffffffffffffffffffffffffff16146130dc576040517f08c379a0000000000000000000000000000000000000000000000000000000008152600401808060200182810382526028815260200180613d206028913960400191505060405180910390fd5b80600b60006101000a81548160ff02191690831515021790555050565b6000809054906101000a900473ffffffffffffffffffffffffffffffffffffffff1681565b6000600b60159054906101000a900460ff1661313d576000905061321c565b600061314883612097565b9050600061319e600f60008673ffffffffffffffffffffffffffffffffffffffff1673ffffffffffffffffffffffffffffffffffffffff16815260200190815260200160002054836132aa90919063ffffffff16565b9050600c544210156131b55760009250505061321c565b6131cc600e54600d546132aa90919063ffffffff16565b42106131dc57809250505061321c565b613217600e546132096131fa600d544261322190919063ffffffff16565b8461372f90919063ffffffff16565b6137b590919063ffffffff16565b925050505b919050565b600082821115613299576040517f08c379a000000000000000000000000000000000000000000000000000000000815260040180806020018281038252601e8152602001807f536166654d6174683a207375627472616374696f6e206f766572666c6f77000081525060200191505060405180910390fd5b600082840390508091505092915050565b600080828401905083811015613328576040517f08c379a000000000000000000000000000000000000000000000000000000000815260040180806020018281038252601b8152602001807f536166654d6174683a206164646974696f6e206f766572666c6f77000000000081525060200191505060405180910390fd5b8091505092915050565b600b60159054906101000a900460ff1615613398576040517f08c379a000000000000000000000000000000000000000000000000000000000815260040180806020018281038252602d815260200180613cd2602d913960400191505060405180910390fd5b6133a3838383613844565b505050565b60008183106133b757816133b9565b825b905092915050565b600080838054905014156133d857600090506135ba565b826001848054905003815481106133eb57fe5b9060005260206000200160000160009054906101000a90046fffffffffffffffffffffffffffffffff166fffffffffffffffffffffffffffffffff168210613483578260018480549050038154811061344057fe5b9060005260206000200160000160109054906101000a90046fffffffffffffffffffffffffffffffff166fffffffffffffffffffffffffffffffff1690506135ba565b8260008154811061349057fe5b9060005260206000200160000160009054906101000a90046fffffffffffffffffffffffffffffffff166fffffffffffffffffffffffffffffffff168210156134dc57600090506135ba565b60008090506000600185805490500390505b8181111561356d57600060026001848401018161350757fe5b0490508486828154811061351757fe5b9060005260206000200160000160009054906101000a90046fffffffffffffffffffffffffffffffff166fffffffffffffffffffffffffffffffff161161356057809250613567565b6001810391505b506134ee565b84828154811061357957fe5b9060005260206000200160000160109054906101000a90046fffffffffffffffffffffffffffffffff166fffffffffffffffffffffffffffffffff16925050505b92915050565b600082805490501480613620575043826001848054905003815481106135e257fe5b9060005260206000200160000160009054906101000a90046fffffffffffffffffffffffffffffffff166fffffffffffffffffffffffffffffffff16105b156136cd5760008283805480919060010161363b9190613bc0565b8154811061364557fe5b906000526020600020019050438160000160006101000a8154816fffffffffffffffffffffffffffffffff02191690836fffffffffffffffffffffffffffffffff160217905550818160000160106101000a8154816fffffffffffffffffffffffffffffffff02191690836fffffffffffffffffffffffffffffffff1602179055505061372b565b6000826001848054905003815481106136e257fe5b906000526020600020019050818160000160106101000a8154816fffffffffffffffffffffffffffffffff02191690836fffffffffffffffffffffffffffffffff160217905550505b5050565b60008083141561374257600090506137af565b600082840290508284828161375357fe5b04146137aa576040517f08c379a0000000000000000000000000000000000000000000000000000000008152600401808060200182810382526021815260200180613cff6021913960400191505060405180910390fd5b809150505b92915050565b600080821161382c576040517f08c379a000000000000000000000000000000000000000000000000000000000815260040180806020018281038252601a8152602001807f536166654d6174683a206469766973696f6e206279207a65726f00000000000081525060200191505060405180910390fd5b600082848161383757fe5b0490508091505092915050565b60008114156138b7578173ffffffffffffffffffffffffffffffffffffffff168373ffffffffffffffffffffffffffffffffffffffff167fddf252ad1be2c89b69c2b068fc378daa952ba7f163c4a11628f55a4df523b3ef836040518082815260200191505060405180910390a3613bbb565b43600654106138c557600080fd5b600073ffffffffffffffffffffffffffffffffffffffff168273ffffffffffffffffffffffffffffffffffffffff161415801561392e57503073ffffffffffffffffffffffffffffffffffffffff168273ffffffffffffffffffffffffffffffffffffffff1614155b61393757600080fd5b60006139438443611a9d565b90508181101561395257600080fd5b61397c6000809054906101000a900473ffffffffffffffffffffffffffffffffffffffff1661107e565b15613aa2576000809054906101000a900473ffffffffffffffffffffffffffffffffffffffff1673ffffffffffffffffffffffffffffffffffffffff16634a3931498585856040518463ffffffff1660e01b8152600401808473ffffffffffffffffffffffffffffffffffffffff1673ffffffffffffffffffffffffffffffffffffffff1681526020018373ffffffffffffffffffffffffffffffffffffffff1673ffffffffffffffffffffffffffffffffffffffff1681526020018281526020019350505050602060405180830381600087803b158015613a5d57600080fd5b505af1158015613a71573d6000803e3d6000fd5b505050506040513d6020811015613a8757600080fd5b8101908080519060200190929190505050613aa157600080fd5b5b613aec600860008673ffffffffffffffffffffffffffffffffffffffff1673ffffffffffffffffffffffffffffffffffffffff1681526020019081526020016000208383036135c0565b6000613af88443611a9d565b9050808382011015613b0957600080fd5b613b53600860008673ffffffffffffffffffffffffffffffffffffffff1673ffffffffffffffffffffffffffffffffffffffff1681526020019081526020016000208483016135c0565b8373ffffffffffffffffffffffffffffffffffffffff168573ffffffffffffffffffffffffffffffffffffffff167fddf252ad1be2c89b69c2b068fc378daa952ba7f163c4a11628f55a4df523b3ef856040518082815260200191505060405180910390a350505b505050565b815481835581811115613be757818360005260206000209182019101613be69190613bec565b5b505050565b613c4e91905b80821115613c4a57600080820160006101000a8154906fffffffffffffffffffffffffffffffff02191690556000820160106101000a8154906fffffffffffffffffffffffffffffffff021916905550600101613bf2565b5090565b9056fe4d696e694d65546f6b656e3a207472616e73666572206973206e6f7420656e61626c6556657374696e67546f6b656e3a2063616e6e6f742065786563757465206265666f726520696e6974696174696f6e56657374696e67546f6b656e3a2066696e616c2074696d65206973206265666f72652063757272656e742074696d6556657374696e67546f6b656e3a2063616e6e6f74206578656375746520616674657220696e6974696174696f6e536166654d6174683a206d756c7469706c69636174696f6e206f766572666c6f77436f6e74726f6c6c65643a2063616c6c6572206973206e6f742074686520636f6e74726f6c6c657256657374696e67546f6b656e3a206661696c656420746f2064657374726f7920746f6b656e7356657374696e67546f6b656e3a20636c696666206973206c6f6e676572207468616e206475726174696f6ea265627a7a72315820bf307f68d36a731720ffe0c46bbb06bb035933656e6f5ded55e17c101d62c48764736f6c63430005100032",
  "source": "pragma solidity ^0.5.0;\n\nimport \"./minime/MiniMeToken.sol\";\nimport \"./openzeppelin-solidity/math/SafeMath.sol\";\n\ncontract VestingToken is MiniMeToken {\n    using SafeMath for uint256;\n\n    bool private _initiated;\n\n    // Durations and timestamps are expressed in UNIX time, the same units as block.timestamp.\n    uint256 private _cliff;\n    uint256 private _start;\n    uint256 private _duration;\n\n    mapping (address => uint256) private _released;\n\n    constructor (\n        address tokenFactory,\n        address payable parentToken,\n        uint parentSnapShotBlock,\n        string memory tokenName,\n        uint8 decimalUnits,\n        string memory tokenSymbol,\n        bool transfersEnabled\n    )\n        public\n        MiniMeToken(tokenFactory, parentToken, parentSnapShotBlock, tokenName, decimalUnits, tokenSymbol, transfersEnabled)\n    {\n        // solhint-disable-previous-line no-empty-blocks\n    }\n\n    modifier beforeInitiated() {\n        require(!_initiated, \"VestingToken: cannot execute after initiation\");\n        _;\n    }\n\n    modifier afterInitiated() {\n        require(_initiated, \"VestingToken: cannot execute before initiation\");\n        _;\n    }\n\n    /**\n     * @dev Returns true if the token can be released, and false otherwise.\n     */\n    function initiated() public view returns (bool) {\n        return _initiated;\n    }\n\n    /**\n     * @return the cliff time of the token vesting.\n     */\n    function cliff() public view returns (uint256) {\n        return _cliff;\n    }\n\n    /**\n     * @return the start time of the token vesting.\n     */\n    function start() public view returns (uint256) {\n        return _start;\n    }\n\n    /**\n     * @return the duration of the token vesting.\n     */\n    function duration() public view returns (uint256) {\n        return _duration;\n    }\n\n    /**\n     * @param beneficiary the beneficiary of the tokens.\n     * @return the amount of the token released.\n     */\n    function released(address beneficiary) public view returns (uint256) {\n        return _released[beneficiary];\n    }\n\n    /**\n     * @notice Makes vested tokens releasable.\n     * @param start the time (as Unix time) at which point vesting starts\n     * @param cliffDuration duration in seconds of the cliff in which tokens will begin to vest\n     * @param duration duration in seconds of the period in which the tokens will vest\n     */\n    function initiate(uint256 start, uint256 cliffDuration, uint256 duration) public beforeInitiated onlyController {\n        _initiated = true;\n\n        enableTransfers(false);\n\n        // solhint-disable-next-line max-line-length\n        require(cliffDuration <= duration, \"VestingToken: cliff is longer than duration\");\n        require(duration > 0, \"VestingToken: duration is 0\");\n        // solhint-disable-next-line max-line-length\n        require(start.add(duration) > block.timestamp, \"VestingToken: final time is before current time\");\n\n        _duration = duration;\n        _cliff = start.add(cliffDuration);\n        _start = start;\n    }\n\n    /**\n     * @dev This is the actual transfer function in the token contract.\n     * @param from The address holding the tokens being transferred\n     * @param to The address of the recipient\n     * @param amount The amount of tokens to be transferred\n     */\n    function doTransfer(address from, address to, uint amount) internal beforeInitiated {\n        super.doTransfer(from, to, amount);\n    }\n\n    /**\n     * @notice Destroys releasable tokens.\n     * @param beneficiary the beneficiary of the tokens.\n     */\n    function destroyReleasableTokens(address beneficiary) public afterInitiated onlyController returns (uint256 unreleased) {\n        unreleased = releasableAmount(beneficiary);\n\n        require(unreleased > 0, \"VestingToken: no tokens are due\");\n\n        _released[beneficiary] = _released[beneficiary].add(unreleased);\n\n        require(destroyTokens(beneficiary, unreleased), \"VestingToken: failed to destroy tokens\");\n    }\n\n    /**\n     * @dev Calculates the amount that has already vested but hasn't been released yet.\n     * @param beneficiary the beneficiary of the tokens.\n     */\n    function releasableAmount(address beneficiary) public view returns (uint256) {\n        return _vestedAmount(beneficiary).sub(_released[beneficiary]);\n    }\n\n    /**\n     * @dev Calculates the amount that has already vested.\n     * @param beneficiary the beneficiary of the tokens.\n     */\n    function _vestedAmount(address beneficiary) private view returns (uint256) {\n        if (!_initiated) {\n            return 0;\n        }\n\n        uint256 currentVestedAmount = balanceOf(beneficiary);\n        uint256 totalVestedAmount = currentVestedAmount.add(_released[beneficiary]);\n\n        if (block.timestamp < _cliff) {\n            return 0;\n        } else if (block.timestamp >= _start.add(_duration)) {\n            return totalVestedAmount;\n        } else {\n            return totalVestedAmount.mul(block.timestamp.sub(_start)).div(_duration);\n        }\n    }\n}\n",
  "sourcePath": "/home/modagi/github/onther/presale-contracts/contracts/VestingToken.sol",
  "compiler": {
    "name": "solc",
    "version": "0.5.16+commit.9c3226ce.Emscripten.clang"
  },
  "schemaVersion": "3.2.0",
  "updatedAt": "2020-07-30T02:50:00.042Z",
  "networkType": "ethereum",
  "devdoc": {
    "methods": {
      "allowance(address,address)": {
        "details": "This function makes it easy to read the `allowed[]` map",
        "params": {
          "_owner": "The address of the account that owns the token",
          "_spender": "The address of the account able to transfer the tokens"
        },
        "return": "Amount of remaining tokens of _owner that _spender is allowed  to spend"
      },
      "approve(address,uint256)": {
        "params": {
          "_amount": "The amount of tokens to be approved for transfer",
          "_spender": "The address of the account able to transfer the tokens"
        },
        "return": "True if the approval was successful"
      },
      "approveAndCall(address,uint256,bytes)": {
        "params": {
          "_amount": "The amount of tokens to be approved for transfer",
          "_spender": "The address of the contract able to transfer the tokens"
        },
        "return": "True if the function call was successful"
      },
      "balanceOf(address)": {
        "params": {
          "_owner": "The address that's balance is being requested"
        },
        "return": "The balance of `_owner` at the current block"
      },
      "balanceOfAt(address,uint256)": {
        "details": "Queries the balance of `_owner` at a specific `_blockNumber`",
        "params": {
          "_blockNumber": "The block number when the balance is queried",
          "_owner": "The address from which the balance will be retrieved"
        },
        "return": "The balance at `_blockNumber`"
      },
      "changeController(address)": {
        "params": {
          "_newController": "The new controller of the contract"
        }
      },
      "claimTokens(address)": {
        "params": {
          "_token": "The address of the token contract that you want to recover  set to 0 in case you want to extract ether."
        }
      },
      "cliff()": {
        "return": "the cliff time of the token vesting."
      },
      "createCloneToken(string,uint8,string,uint256,bool)": {
        "params": {
          "_cloneDecimalUnits": "Number of decimals of the smallest unit",
          "_cloneTokenName": "Name of the clone token",
          "_cloneTokenSymbol": "Symbol of the clone token",
          "_snapshotBlock": "Block when the distribution of the parent token is  copied to set the initial distribution of the new clone token;  if the block is zero than the actual block, the current block is used",
          "_transfersEnabled": "True if transfers are allowed in the clone"
        },
        "return": "The address of the new MiniMeToken Contract"
      },
      "destroyReleasableTokens(address)": {
        "params": {
          "beneficiary": "the beneficiary of the tokens."
        }
      },
      "destroyTokens(address,uint256)": {
        "params": {
          "_amount": "The quantity of tokens to burn",
          "_owner": "The address that will lose the tokens"
        },
        "return": "True if the tokens are burned correctly"
      },
      "duration()": {
        "return": "the duration of the token vesting."
      },
      "enableTransfers(bool)": {
        "params": {
          "_transfersEnabled": "True if transfers are allowed in the clone"
        }
      },
      "generateTokens(address,uint256)": {
        "params": {
          "_amount": "The quantity of tokens generated",
          "_owner": "The address that will be assigned the new tokens"
        },
        "return": "True if the tokens are generated correctly"
      },
      "initiate(uint256,uint256,uint256)": {
        "params": {
          "cliffDuration": "duration in seconds of the cliff in which tokens will begin to vest",
          "duration": "duration in seconds of the period in which the tokens will vest",
          "start": "the time (as Unix time) at which point vesting starts"
        }
      },
      "initiated()": {
        "details": "Returns true if the token can be released, and false otherwise."
      },
      "releasableAmount(address)": {
        "details": "Calculates the amount that has already vested but hasn't been released yet.",
        "params": {
          "beneficiary": "the beneficiary of the tokens."
        }
      },
      "released(address)": {
        "params": {
          "beneficiary": "the beneficiary of the tokens."
        },
        "return": "the amount of the token released."
      },
      "start()": {
        "return": "the start time of the token vesting."
      },
      "totalSupply()": {
        "details": "This function makes it easy to get the total number of tokens",
        "return": "The total number of tokens"
      },
      "totalSupplyAt(uint256)": {
        "params": {
          "_blockNumber": "The block number when the totalSupply is queried"
        },
        "return": "The total amount of tokens at `_blockNumber`"
      },
      "transfer(address,uint256)": {
        "params": {
          "_amount": "The amount of tokens to be transferred",
          "_to": "The address of the recipient"
        },
        "return": "Whether the transfer was successful or not"
      },
      "transferFrom(address,address,uint256)": {
        "params": {
          "_amount": "The amount of tokens to be transferred",
          "_from": "The address holding the tokens being transferred",
          "_to": "The address of the recipient"
        },
        "return": "True if the transfer was successful"
      }
    }
  },
  "userdoc": {
    "methods": {
      "approve(address,uint256)": {
        "notice": "`msg.sender` approves `_spender` to spend `_amount` tokens on  its behalf. This is a modified version of the ERC20 approve function  to be a little bit safer"
      },
      "approveAndCall(address,uint256,bytes)": {
        "notice": "`msg.sender` approves `_spender` to send `_amount` tokens on  its behalf, and then a function is triggered in the contract that is  being approved, `_spender`. This allows users to use their tokens to  interact with contracts in one function call instead of two"
      },
      "balanceOfAt(address,uint256)": {
        "notice": "/////////////"
      },
      "changeController(address)": {
        "notice": "Changes the controller of the contract"
      },
      "claimTokens(address)": {
        "notice": "///////This method can be used by the controller to extract mistakenly  sent tokens to this contract."
      },
      "createCloneToken(string,uint8,string,uint256,bool)": {
        "notice": "/////////////Creates a new clone token with the initial distribution being  this token at `_snapshotBlock`"
      },
      "destroyReleasableTokens(address)": {
        "notice": "Destroys releasable tokens."
      },
      "destroyTokens(address,uint256)": {
        "notice": "Burns `_amount` tokens from `_owner`"
      },
      "enableTransfers(bool)": {
        "notice": "/////////////Enables token holders to transfer their tokens freely if true"
      },
      "generateTokens(address,uint256)": {
        "notice": "/////////////Generates `_amount` tokens that are assigned to `_owner`"
      },
      "initiate(uint256,uint256,uint256)": {
        "notice": "Makes vested tokens releasable."
      },
      "totalSupplyAt(uint256)": {
        "notice": "Total amount of tokens at a specific `_blockNumber`."
      },
      "transfer(address,uint256)": {
        "notice": "////////////////Send `_amount` tokens to `_to` from `msg.sender`"
      },
      "transferFrom(address,address,uint256)": {
        "notice": "Send `_amount` tokens to `_to` from `_from` on the condition it  is approved by `_from`"
      }
    }
  }
}