{
  "contractName": "VestingTokenStep",
  "abi": [
    {
      "inputs": [
        {
          "internalType": "address",
          "name": "tokenFactory",
          "type": "address"
        },
        {
          "internalType": "address payable",
          "name": "parentToken",
          "type": "address"
        },
        {
          "internalType": "uint256",
          "name": "parentSnapShotBlock",
          "type": "uint256"
        },
        {
          "internalType": "string",
          "name": "tokenName",
          "type": "string"
        },
        {
          "internalType": "uint8",
          "name": "decimalUnits",
          "type": "uint8"
        },
        {
          "internalType": "string",
          "name": "tokenSymbol",
          "type": "string"
        },
        {
          "internalType": "bool",
          "name": "transfersEnabled",
          "type": "bool"
        }
      ],
      "payable": false,
      "stateMutability": "nonpayable",
      "type": "constructor"
    },
    {
      "anonymous": false,
      "inputs": [
        {
          "indexed": true,
          "internalType": "address",
          "name": "_owner",
          "type": "address"
        },
        {
          "indexed": true,
          "internalType": "address",
          "name": "_spender",
          "type": "address"
        },
        {
          "indexed": false,
          "internalType": "uint256",
          "name": "_amount",
          "type": "uint256"
        }
      ],
      "name": "Approval",
      "type": "event"
    },
    {
      "anonymous": false,
      "inputs": [
        {
          "indexed": true,
          "internalType": "address",
          "name": "_token",
          "type": "address"
        },
        {
          "indexed": true,
          "internalType": "address",
          "name": "_controller",
          "type": "address"
        },
        {
          "indexed": false,
          "internalType": "uint256",
          "name": "_amount",
          "type": "uint256"
        }
      ],
      "name": "ClaimedTokens",
      "type": "event"
    },
    {
      "anonymous": false,
      "inputs": [
        {
          "indexed": true,
          "internalType": "address",
          "name": "_cloneToken",
          "type": "address"
        },
        {
          "indexed": false,
          "internalType": "uint256",
          "name": "_snapshotBlock",
          "type": "uint256"
        }
      ],
      "name": "NewCloneToken",
      "type": "event"
    },
    {
      "anonymous": false,
      "inputs": [
        {
          "indexed": true,
          "internalType": "address",
          "name": "_from",
          "type": "address"
        },
        {
          "indexed": true,
          "internalType": "address",
          "name": "_to",
          "type": "address"
        },
        {
          "indexed": false,
          "internalType": "uint256",
          "name": "_amount",
          "type": "uint256"
        }
      ],
      "name": "Transfer",
      "type": "event"
    },
    {
      "payable": true,
      "stateMutability": "payable",
      "type": "fallback"
    },
    {
      "constant": true,
      "inputs": [],
      "name": "UNIT_IN_SECONDS",
      "outputs": [
        {
          "internalType": "uint256",
          "name": "",
          "type": "uint256"
        }
      ],
      "payable": false,
      "stateMutability": "view",
      "type": "function"
    },
    {
      "constant": true,
      "inputs": [
        {
          "internalType": "address",
          "name": "_owner",
          "type": "address"
        },
        {
          "internalType": "address",
          "name": "_spender",
          "type": "address"
        }
      ],
      "name": "allowance",
      "outputs": [
        {
          "internalType": "uint256",
          "name": "remaining",
          "type": "uint256"
        }
      ],
      "payable": false,
      "stateMutability": "view",
      "type": "function"
    },
    {
      "constant": false,
      "inputs": [
        {
          "internalType": "address",
          "name": "_spender",
          "type": "address"
        },
        {
          "internalType": "uint256",
          "name": "_amount",
          "type": "uint256"
        }
      ],
      "name": "approve",
      "outputs": [
        {
          "internalType": "bool",
          "name": "success",
          "type": "bool"
        }
      ],
      "payable": false,
      "stateMutability": "nonpayable",
      "type": "function"
    },
    {
      "constant": false,
      "inputs": [
        {
          "internalType": "address",
          "name": "_spender",
          "type": "address"
        },
        {
          "internalType": "uint256",
          "name": "_amount",
          "type": "uint256"
        },
        {
          "internalType": "bytes",
          "name": "_extraData",
          "type": "bytes"
        }
      ],
      "name": "approveAndCall",
      "outputs": [
        {
          "internalType": "bool",
          "name": "success",
          "type": "bool"
        }
      ],
      "payable": false,
      "stateMutability": "nonpayable",
      "type": "function"
    },
    {
      "constant": true,
      "inputs": [
        {
          "internalType": "address",
          "name": "_owner",
          "type": "address"
        }
      ],
      "name": "balanceOf",
      "outputs": [
        {
          "internalType": "uint256",
          "name": "balance",
          "type": "uint256"
        }
      ],
      "payable": false,
      "stateMutability": "view",
      "type": "function"
    },
    {
      "constant": true,
      "inputs": [
        {
          "internalType": "address",
          "name": "_owner",
          "type": "address"
        },
        {
          "internalType": "uint256",
          "name": "_blockNumber",
          "type": "uint256"
        }
      ],
      "name": "balanceOfAt",
      "outputs": [
        {
          "internalType": "uint256",
          "name": "",
          "type": "uint256"
        }
      ],
      "payable": false,
      "stateMutability": "view",
      "type": "function"
    },
    {
      "constant": false,
      "inputs": [
        {
          "internalType": "address payable",
          "name": "_newController",
          "type": "address"
        }
      ],
      "name": "changeController",
      "outputs": [],
      "payable": false,
      "stateMutability": "nonpayable",
      "type": "function"
    },
    {
      "constant": false,
      "inputs": [
        {
          "internalType": "address payable",
          "name": "_token",
          "type": "address"
        }
      ],
      "name": "claimTokens",
      "outputs": [],
      "payable": false,
      "stateMutability": "nonpayable",
      "type": "function"
    },
    {
      "constant": true,
      "inputs": [],
      "name": "cliff",
      "outputs": [
        {
          "internalType": "uint256",
          "name": "",
          "type": "uint256"
        }
      ],
      "payable": false,
      "stateMutability": "view",
      "type": "function"
    },
    {
      "constant": true,
      "inputs": [],
      "name": "controller",
      "outputs": [
        {
          "internalType": "address payable",
          "name": "",
          "type": "address"
        }
      ],
      "payable": false,
      "stateMutability": "view",
      "type": "function"
    },
    {
      "constant": false,
      "inputs": [
        {
          "internalType": "string",
          "name": "_cloneTokenName",
          "type": "string"
        },
        {
          "internalType": "uint8",
          "name": "_cloneDecimalUnits",
          "type": "uint8"
        },
        {
          "internalType": "string",
          "name": "_cloneTokenSymbol",
          "type": "string"
        },
        {
          "internalType": "uint256",
          "name": "_snapshotBlock",
          "type": "uint256"
        },
        {
          "internalType": "bool",
          "name": "_transfersEnabled",
          "type": "bool"
        }
      ],
      "name": "createCloneToken",
      "outputs": [
        {
          "internalType": "address",
          "name": "",
          "type": "address"
        }
      ],
      "payable": false,
      "stateMutability": "nonpayable",
      "type": "function"
    },
    {
      "constant": true,
      "inputs": [],
      "name": "creationBlock",
      "outputs": [
        {
          "internalType": "uint256",
          "name": "",
          "type": "uint256"
        }
      ],
      "payable": false,
      "stateMutability": "view",
      "type": "function"
    },
    {
      "constant": true,
      "inputs": [],
      "name": "decimals",
      "outputs": [
        {
          "internalType": "uint8",
          "name": "",
          "type": "uint8"
        }
      ],
      "payable": false,
      "stateMutability": "view",
      "type": "function"
    },
    {
      "constant": false,
      "inputs": [
        {
          "internalType": "address",
          "name": "_owner",
          "type": "address"
        },
        {
          "internalType": "uint256",
          "name": "_amount",
          "type": "uint256"
        }
      ],
      "name": "destroyTokens",
      "outputs": [
        {
          "internalType": "bool",
          "name": "",
          "type": "bool"
        }
      ],
      "payable": false,
      "stateMutability": "nonpayable",
      "type": "function"
    },
    {
      "constant": true,
      "inputs": [],
      "name": "duration",
      "outputs": [
        {
          "internalType": "uint256",
          "name": "",
          "type": "uint256"
        }
      ],
      "payable": false,
      "stateMutability": "view",
      "type": "function"
    },
    {
      "constant": false,
      "inputs": [
        {
          "internalType": "bool",
          "name": "_transfersEnabled",
          "type": "bool"
        }
      ],
      "name": "enableTransfers",
      "outputs": [],
      "payable": false,
      "stateMutability": "nonpayable",
      "type": "function"
    },
    {
      "constant": false,
      "inputs": [
        {
          "internalType": "address",
          "name": "_owner",
          "type": "address"
        },
        {
          "internalType": "uint256",
          "name": "_amount",
          "type": "uint256"
        }
      ],
      "name": "generateTokens",
      "outputs": [
        {
          "internalType": "bool",
          "name": "",
          "type": "bool"
        }
      ],
      "payable": false,
      "stateMutability": "nonpayable",
      "type": "function"
    },
    {
      "constant": true,
      "inputs": [],
      "name": "initiated",
      "outputs": [
        {
          "internalType": "bool",
          "name": "",
          "type": "bool"
        }
      ],
      "payable": false,
      "stateMutability": "view",
      "type": "function"
    },
    {
      "constant": true,
      "inputs": [],
      "name": "name",
      "outputs": [
        {
          "internalType": "string",
          "name": "",
          "type": "string"
        }
      ],
      "payable": false,
      "stateMutability": "view",
      "type": "function"
    },
    {
      "constant": true,
      "inputs": [],
      "name": "parentSnapShotBlock",
      "outputs": [
        {
          "internalType": "uint256",
          "name": "",
          "type": "uint256"
        }
      ],
      "payable": false,
      "stateMutability": "view",
      "type": "function"
    },
    {
      "constant": true,
      "inputs": [],
      "name": "parentToken",
      "outputs": [
        {
          "internalType": "contract MiniMeToken",
          "name": "",
          "type": "address"
        }
      ],
      "payable": false,
      "stateMutability": "view",
      "type": "function"
    },
    {
      "constant": true,
      "inputs": [
        {
          "internalType": "address",
          "name": "",
          "type": "address"
        }
      ],
      "name": "released",
      "outputs": [
        {
          "internalType": "uint256",
          "name": "",
          "type": "uint256"
        }
      ],
      "payable": false,
      "stateMutability": "view",
      "type": "function"
    },
    {
      "constant": true,
      "inputs": [],
      "name": "start",
      "outputs": [
        {
          "internalType": "uint256",
          "name": "",
          "type": "uint256"
        }
      ],
      "payable": false,
      "stateMutability": "view",
      "type": "function"
    },
    {
      "constant": true,
      "inputs": [],
      "name": "symbol",
      "outputs": [
        {
          "internalType": "string",
          "name": "",
          "type": "string"
        }
      ],
      "payable": false,
      "stateMutability": "view",
      "type": "function"
    },
    {
      "constant": true,
      "inputs": [],
      "name": "tokenFactory",
      "outputs": [
        {
          "internalType": "contract MiniMeTokenFactory",
          "name": "",
          "type": "address"
        }
      ],
      "payable": false,
      "stateMutability": "view",
      "type": "function"
    },
    {
      "constant": true,
      "inputs": [],
      "name": "totalSupply",
      "outputs": [
        {
          "internalType": "uint256",
          "name": "",
          "type": "uint256"
        }
      ],
      "payable": false,
      "stateMutability": "view",
      "type": "function"
    },
    {
      "constant": true,
      "inputs": [
        {
          "internalType": "uint256",
          "name": "_blockNumber",
          "type": "uint256"
        }
      ],
      "name": "totalSupplyAt",
      "outputs": [
        {
          "internalType": "uint256",
          "name": "",
          "type": "uint256"
        }
      ],
      "payable": false,
      "stateMutability": "view",
      "type": "function"
    },
    {
      "constant": false,
      "inputs": [
        {
          "internalType": "address",
          "name": "_to",
          "type": "address"
        },
        {
          "internalType": "uint256",
          "name": "_amount",
          "type": "uint256"
        }
      ],
      "name": "transfer",
      "outputs": [
        {
          "internalType": "bool",
          "name": "success",
          "type": "bool"
        }
      ],
      "payable": false,
      "stateMutability": "nonpayable",
      "type": "function"
    },
    {
      "constant": false,
      "inputs": [
        {
          "internalType": "address",
          "name": "_from",
          "type": "address"
        },
        {
          "internalType": "address",
          "name": "_to",
          "type": "address"
        },
        {
          "internalType": "uint256",
          "name": "_amount",
          "type": "uint256"
        }
      ],
      "name": "transferFrom",
      "outputs": [
        {
          "internalType": "bool",
          "name": "success",
          "type": "bool"
        }
      ],
      "payable": false,
      "stateMutability": "nonpayable",
      "type": "function"
    },
    {
      "constant": true,
      "inputs": [],
      "name": "transfersEnabled",
      "outputs": [
        {
          "internalType": "bool",
          "name": "",
          "type": "bool"
        }
      ],
      "payable": false,
      "stateMutability": "view",
      "type": "function"
    },
    {
      "constant": true,
      "inputs": [],
      "name": "version",
      "outputs": [
        {
          "internalType": "string",
          "name": "",
          "type": "string"
        }
      ],
      "payable": false,
      "stateMutability": "view",
      "type": "function"
    },
    {
      "constant": false,
      "inputs": [
        {
          "internalType": "uint256",
          "name": "_start",
          "type": "uint256"
        },
        {
          "internalType": "uint256",
          "name": "cliffDuration",
          "type": "uint256"
        },
        {
          "internalType": "uint256",
          "name": "_duration",
          "type": "uint256"
        }
      ],
      "name": "initiate",
      "outputs": [],
      "payable": false,
      "stateMutability": "nonpayable",
      "type": "function"
    },
    {
      "constant": false,
      "inputs": [
        {
          "internalType": "address",
          "name": "beneficiary",
          "type": "address"
        }
      ],
      "name": "destroyReleasableTokens",
      "outputs": [
        {
          "internalType": "uint256",
          "name": "unreleased",
          "type": "uint256"
        }
      ],
      "payable": false,
      "stateMutability": "nonpayable",
      "type": "function"
    },
    {
      "constant": true,
      "inputs": [
        {
          "internalType": "address",
          "name": "beneficiary",
          "type": "address"
        }
      ],
      "name": "releasableAmount",
      "outputs": [
        {
          "internalType": "uint256",
          "name": "",
          "type": "uint256"
        }
      ],
      "payable": false,
      "stateMutability": "view",
      "type": "function"
    }
  ],
  "bytecode": "0x60806040526040518060400160405280600781526020017f4d4d545f302e320000000000000000000000000000000000000000000000000081525060049080519060200190620000519291906200038a565b503480156200005f57600080fd5b50604051620041cb380380620041cb833981810160405260e08110156200008557600080fd5b8101908080519060200190929190805190602001909291908051906020019092919080516040519392919084640100000000821115620000c457600080fd5b83820191506020820185811115620000db57600080fd5b8251866001820283011164010000000082111715620000f957600080fd5b8083526020830192505050908051906020019080838360005b838110156200012f57808201518184015260208101905062000112565b50505050905090810190601f1680156200015d5780820380516001836020036101000a031916815260200191505b5060405260200180519060200190929190805160405193929190846401000000008211156200018b57600080fd5b83820191506020820185811115620001a257600080fd5b8251866001820283011164010000000082111715620001c057600080fd5b8083526020830192505050908051906020019080838360005b83811015620001f6578082015181840152602081019050620001d9565b50505050905090810190601f168015620002245780820380516001836020036101000a031916815260200191505b506040526020018051906020019092919050505086868686868686336000806101000a81548173ffffffffffffffffffffffffffffffffffffffff021916908373ffffffffffffffffffffffffffffffffffffffff16021790555086600b60016101000a81548173ffffffffffffffffffffffffffffffffffffffff021916908373ffffffffffffffffffffffffffffffffffffffff1602179055508360019080519060200190620002d89291906200038a565b5082600260006101000a81548160ff021916908360ff16021790555081600390805190602001906200030c9291906200038a565b5085600560006101000a81548173ffffffffffffffffffffffffffffffffffffffff021916908373ffffffffffffffffffffffffffffffffffffffff1602179055508460068190555080600b60006101000a81548160ff02191690831515021790555043600781905550505050505050505050505050505062000439565b828054600181600116156101000203166002900490600052602060002090601f016020900481019282601f10620003cd57805160ff1916838001178555620003fe565b82800160010185558215620003fe579182015b82811115620003fd578251825591602001919060010190620003e0565b5b5090506200040d919062000411565b5090565b6200043691905b808211156200043257600081600090555060010162000418565b5090565b90565b613d8280620004496000396000f3fe6080604052600436106101f95760003560e01c806395d89b411161010d578063c99b5d47116100a0578063dd62ed3e1161006f578063dd62ed3e14610ef3578063df8de3e714610f78578063e77772fe14610fc9578063f41e60c514611020578063f77c47911461105d576101f9565b8063c99b5d4714610cfc578063cae9ca5114610d4b578063d3ce77fe14610e55578063da8a883714610ec8576101f9565b8063a9059cbb116100dc578063a9059cbb14610c04578063be9a655514610c77578063bef97c8714610ca2578063c5bcc4f114610cd1576101f9565b806395d89b4114610a91578063981b24d014610b215780639852595c14610b705780639f11853614610bd5576101f9565b806323b872dd1161019057806354fd4d501161015f57806354fd4d50146107105780636638c087146107a057806370a082311461096257806380a54001146109c7578063827f32c014610a1e576101f9565b806323b872dd1461058c578063313ce5671461061f5780633cebb823146106505780634ee2cd7e146106a1576101f9565b80631726cbc8116101cc5780631726cbc81461046c57806317634514146104d157806318160ddd146104fc5780631f82b52514610527576101f9565b806306fdde0314610313578063095ea7b3146103a35780630fb5a6b41461041657806313d033c014610441575b6102236000809054906101000a900473ffffffffffffffffffffffffffffffffffffffff166110b4565b61022c57600080fd5b6000809054906101000a900473ffffffffffffffffffffffffffffffffffffffff1673ffffffffffffffffffffffffffffffffffffffff1663f48c305434336040518363ffffffff1660e01b8152600401808273ffffffffffffffffffffffffffffffffffffffff1673ffffffffffffffffffffffffffffffffffffffff1681526020019150506020604051808303818588803b1580156102cc57600080fd5b505af11580156102e0573d6000803e3d6000fd5b50505050506040513d60208110156102f757600080fd5b810190808051906020019092919050505061031157600080fd5b005b34801561031f57600080fd5b50610328611107565b6040518080602001828103825283818151815260200191508051906020019080838360005b8381101561036857808201518184015260208101905061034d565b50505050905090810190601f1680156103955780820380516001836020036101000a031916815260200191505b509250505060405180910390f35b3480156103af57600080fd5b506103fc600480360360408110156103c657600080fd5b81019080803573ffffffffffffffffffffffffffffffffffffffff169060200190929190803590602001909291905050506111a5565b604051808215151515815260200191505060405180910390f35b34801561042257600080fd5b5061042b6114e0565b6040518082815260200191505060405180910390f35b34801561044d57600080fd5b506104566114e6565b6040518082815260200191505060405180910390f35b34801561047857600080fd5b506104bb6004803603602081101561048f57600080fd5b81019080803573ffffffffffffffffffffffffffffffffffffffff1690602001909291905050506114ec565b6040518082815260200191505060405180910390f35b3480156104dd57600080fd5b506104e661154f565b6040518082815260200191505060405180910390f35b34801561050857600080fd5b50610511611555565b6040518082815260200191505060405180910390f35b34801561053357600080fd5b506105766004803603602081101561054a57600080fd5b81019080803573ffffffffffffffffffffffffffffffffffffffff169060200190929190505050611565565b6040518082815260200191505060405180910390f35b34801561059857600080fd5b50610605600480360360608110156105af57600080fd5b81019080803573ffffffffffffffffffffffffffffffffffffffff169060200190929190803573ffffffffffffffffffffffffffffffffffffffff169060200190929190803590602001909291905050506117cf565b604051808215151515815260200191505060405180910390f35b34801561062b57600080fd5b506106346119b4565b604051808260ff1660ff16815260200191505060405180910390f35b34801561065c57600080fd5b5061069f6004803603602081101561067357600080fd5b81019080803573ffffffffffffffffffffffffffffffffffffffff1690602001909291905050506119c7565b005b3480156106ad57600080fd5b506106fa600480360360408110156106c457600080fd5b81019080803573ffffffffffffffffffffffffffffffffffffffff16906020019092919080359060200190929190505050611aaf565b6040518082815260200191505060405180910390f35b34801561071c57600080fd5b50610725611d2f565b6040518080602001828103825283818151815260200191508051906020019080838360005b8381101561076557808201518184015260208101905061074a565b50505050905090810190601f1680156107925780820380516001836020036101000a031916815260200191505b509250505060405180910390f35b3480156107ac57600080fd5b50610920600480360360a08110156107c357600080fd5b81019080803590602001906401000000008111156107e057600080fd5b8201836020820111156107f257600080fd5b8035906020019184600183028401116401000000008311171561081457600080fd5b91908080601f016020809104026020016040519081016040528093929190818152602001838380828437600081840152601f19601f820116905080830192505050505050509192919290803560ff1690602001909291908035906020019064010000000081111561088457600080fd5b82018360208201111561089657600080fd5b803590602001918460018302840111640100000000831117156108b857600080fd5b91908080601f016020809104026020016040519081016040528093929190818152602001838380828437600081840152601f19601f82011690508083019250505050505050919291929080359060200190929190803515159060200190929190505050611dcd565b604051808273ffffffffffffffffffffffffffffffffffffffff1673ffffffffffffffffffffffffffffffffffffffff16815260200191505060405180910390f35b34801561096e57600080fd5b506109b16004803603602081101561098557600080fd5b81019080803573ffffffffffffffffffffffffffffffffffffffff1690602001909291905050506120a9565b6040518082815260200191505060405180910390f35b3480156109d357600080fd5b506109dc6120bc565b604051808273ffffffffffffffffffffffffffffffffffffffff1673ffffffffffffffffffffffffffffffffffffffff16815260200191505060405180910390f35b348015610a2a57600080fd5b50610a7760048036036040811015610a4157600080fd5b81019080803573ffffffffffffffffffffffffffffffffffffffff169060200190929190803590602001909291905050506120e2565b604051808215151515815260200191505060405180910390f35b348015610a9d57600080fd5b50610aa6612289565b6040518080602001828103825283818151815260200191508051906020019080838360005b83811015610ae6578082015181840152602081019050610acb565b50505050905090810190601f168015610b135780820380516001836020036101000a031916815260200191505b509250505060405180910390f35b348015610b2d57600080fd5b50610b5a60048036036020811015610b4457600080fd5b8101908080359060200190929190505050612327565b6040518082815260200191505060405180910390f35b348015610b7c57600080fd5b50610bbf60048036036020811015610b9357600080fd5b81019080803573ffffffffffffffffffffffffffffffffffffffff1690602001909291905050506124bb565b6040518082815260200191505060405180910390f35b348015610be157600080fd5b50610bea6124d3565b604051808215151515815260200191505060405180910390f35b348015610c1057600080fd5b50610c5d60048036036040811015610c2757600080fd5b81019080803573ffffffffffffffffffffffffffffffffffffffff169060200190929190803590602001909291905050506124e6565b604051808215151515815260200191505060405180910390f35b348015610c8357600080fd5b50610c8c612562565b6040518082815260200191505060405180910390f35b348015610cae57600080fd5b50610cb7612568565b604051808215151515815260200191505060405180910390f35b348015610cdd57600080fd5b50610ce661257b565b6040518082815260200191505060405180910390f35b348015610d0857600080fd5b50610d4960048036036060811015610d1f57600080fd5b81019080803590602001909291908035906020019092919080359060200190929190505050612581565b005b348015610d5757600080fd5b50610e3b60048036036060811015610d6e57600080fd5b81019080803573ffffffffffffffffffffffffffffffffffffffff1690602001909291908035906020019092919080359060200190640100000000811115610db557600080fd5b820183602082011115610dc757600080fd5b80359060200191846001830284011164010000000083111715610de957600080fd5b91908080601f016020809104026020016040519081016040528093929190818152602001838380828437600081840152601f19601f820116905080830192505050505050509192919290505050612843565b604051808215151515815260200191505060405180910390f35b348015610e6157600080fd5b50610eae60048036036040811015610e7857600080fd5b81019080803573ffffffffffffffffffffffffffffffffffffffff169060200190929190803590602001909291905050506129a3565b604051808215151515815260200191505060405180910390f35b348015610ed457600080fd5b50610edd612b46565b6040518082815260200191505060405180910390f35b348015610eff57600080fd5b50610f6260048036036040811015610f1657600080fd5b81019080803573ffffffffffffffffffffffffffffffffffffffff169060200190929190803573ffffffffffffffffffffffffffffffffffffffff169060200190929190505050612b4d565b6040518082815260200191505060405180910390f35b348015610f8457600080fd5b50610fc760048036036020811015610f9b57600080fd5b81019080803573ffffffffffffffffffffffffffffffffffffffff169060200190929190505050612bd4565b005b348015610fd557600080fd5b50610fde612f4c565b604051808273ffffffffffffffffffffffffffffffffffffffff1673ffffffffffffffffffffffffffffffffffffffff16815260200191505060405180910390f35b34801561102c57600080fd5b5061105b6004803603602081101561104357600080fd5b81019080803515159060200190929190505050612f72565b005b34801561106957600080fd5b50611072613034565b604051808273ffffffffffffffffffffffffffffffffffffffff1673ffffffffffffffffffffffffffffffffffffffff16815260200191505060405180910390f35b600080600073ffffffffffffffffffffffffffffffffffffffff168373ffffffffffffffffffffffffffffffffffffffff1614156110f6576000915050611102565b823b9050600081119150505b919050565b60018054600181600116156101000203166002900480601f01602080910402602001604051908101604052809291908181526020018280546001816001161561010002031660029004801561119d5780601f106111725761010080835404028352916020019161119d565b820191906000526020600020905b81548152906001019060200180831161118057829003601f168201915b505050505081565b6000600b60009054906101000a900460ff1661120c576040517f08c379a0000000000000000000000000000000000000000000000000000000008152600401808060200182810382526023815260200180613bd06023913960400191505060405180910390fd5b600082148061129757506000600960003373ffffffffffffffffffffffffffffffffffffffff1673ffffffffffffffffffffffffffffffffffffffff16815260200190815260200160002060008573ffffffffffffffffffffffffffffffffffffffff1673ffffffffffffffffffffffffffffffffffffffff16815260200190815260200160002054145b6112a057600080fd5b6112ca6000809054906101000a900473ffffffffffffffffffffffffffffffffffffffff166110b4565b156113f0576000809054906101000a900473ffffffffffffffffffffffffffffffffffffffff1673ffffffffffffffffffffffffffffffffffffffff1663da682aeb3385856040518463ffffffff1660e01b8152600401808473ffffffffffffffffffffffffffffffffffffffff1673ffffffffffffffffffffffffffffffffffffffff1681526020018373ffffffffffffffffffffffffffffffffffffffff1673ffffffffffffffffffffffffffffffffffffffff1681526020018281526020019350505050602060405180830381600087803b1580156113ab57600080fd5b505af11580156113bf573d6000803e3d6000fd5b505050506040513d60208110156113d557600080fd5b81019080805190602001909291905050506113ef57600080fd5b5b81600960003373ffffffffffffffffffffffffffffffffffffffff1673ffffffffffffffffffffffffffffffffffffffff16815260200190815260200160002060008573ffffffffffffffffffffffffffffffffffffffff1673ffffffffffffffffffffffffffffffffffffffff168152602001908152602001600020819055508273ffffffffffffffffffffffffffffffffffffffff163373ffffffffffffffffffffffffffffffffffffffff167f8c5be1e5ebec7d5bd14f71427d1e84f3dd0314c0f7b2291e5b200ac8c7c3b925846040518082815260200191505060405180910390a36001905092915050565b600e5481565b600c5481565b6000611548600f60008473ffffffffffffffffffffffffffffffffffffffff1673ffffffffffffffffffffffffffffffffffffffff1681526020019081526020016000205461153a84613059565b61319f90919063ffffffff16565b9050919050565b60075481565b600061156043612327565b905090565b6000600b60159054906101000a900460ff166115cc576040517f08c379a0000000000000000000000000000000000000000000000000000000008152600401808060200182810382526032815260200180613c686032913960400191505060405180910390fd5b6000809054906101000a900473ffffffffffffffffffffffffffffffffffffffff1673ffffffffffffffffffffffffffffffffffffffff163373ffffffffffffffffffffffffffffffffffffffff1614611671576040517f08c379a0000000000000000000000000000000000000000000000000000000008152600401808060200182810382526028815260200180613cc46028913960400191505060405180910390fd5b61167a826114ec565b905060008114156116d6576040517f08c379a0000000000000000000000000000000000000000000000000000000008152600401808060200182810382526023815260200180613c246023913960400191505060405180910390fd5b61172881600f60008573ffffffffffffffffffffffffffffffffffffffff1673ffffffffffffffffffffffffffffffffffffffff1681526020019081526020016000205461322890919063ffffffff16565b600f60008473ffffffffffffffffffffffffffffffffffffffff1673ffffffffffffffffffffffffffffffffffffffff1681526020019081526020016000208190555061177582826129a3565b6117ca576040517f08c379a000000000000000000000000000000000000000000000000000000000815260040180806020018281038252602a815260200180613c9a602a913960400191505060405180910390fd5b919050565b60008060009054906101000a900473ffffffffffffffffffffffffffffffffffffffff1673ffffffffffffffffffffffffffffffffffffffff163373ffffffffffffffffffffffffffffffffffffffff161461199e57600b60009054906101000a900460ff1661188a576040517f08c379a0000000000000000000000000000000000000000000000000000000008152600401808060200182810382526023815260200180613bd06023913960400191505060405180910390fd5b81600960008673ffffffffffffffffffffffffffffffffffffffff1673ffffffffffffffffffffffffffffffffffffffff16815260200190815260200160002060003373ffffffffffffffffffffffffffffffffffffffff1673ffffffffffffffffffffffffffffffffffffffff16815260200190815260200160002054101561191357600080fd5b81600960008673ffffffffffffffffffffffffffffffffffffffff1673ffffffffffffffffffffffffffffffffffffffff16815260200190815260200160002060003373ffffffffffffffffffffffffffffffffffffffff1673ffffffffffffffffffffffffffffffffffffffff168152602001908152602001600020600082825403925050819055505b6119a98484846132b0565b600190509392505050565b600260009054906101000a900460ff1681565b6000809054906101000a900473ffffffffffffffffffffffffffffffffffffffff1673ffffffffffffffffffffffffffffffffffffffff163373ffffffffffffffffffffffffffffffffffffffff1614611a6c576040517f08c379a0000000000000000000000000000000000000000000000000000000008152600401808060200182810382526028815260200180613cc46028913960400191505060405180910390fd5b806000806101000a81548173ffffffffffffffffffffffffffffffffffffffff021916908373ffffffffffffffffffffffffffffffffffffffff16021790555050565b600080600860008573ffffffffffffffffffffffffffffffffffffffff1673ffffffffffffffffffffffffffffffffffffffff168152602001908152602001600020805490501480611b86575081600860008573ffffffffffffffffffffffffffffffffffffffff1673ffffffffffffffffffffffffffffffffffffffff168152602001908152602001600020600081548110611b4857fe5b9060005260206000200160000160009054906101000a90046fffffffffffffffffffffffffffffffff166fffffffffffffffffffffffffffffffff16115b15611cde57600073ffffffffffffffffffffffffffffffffffffffff16600560009054906101000a900473ffffffffffffffffffffffffffffffffffffffff1673ffffffffffffffffffffffffffffffffffffffff1614611cd557600560009054906101000a900473ffffffffffffffffffffffffffffffffffffffff1673ffffffffffffffffffffffffffffffffffffffff16634ee2cd7e84611c2c85600654613326565b6040518363ffffffff1660e01b8152600401808373ffffffffffffffffffffffffffffffffffffffff1673ffffffffffffffffffffffffffffffffffffffff1681526020018281526020019250505060206040518083038186803b158015611c9357600080fd5b505afa158015611ca7573d6000803e3d6000fd5b505050506040513d6020811015611cbd57600080fd5b81019080805190602001909291905050509050611d29565b60009050611d29565b611d26600860008573ffffffffffffffffffffffffffffffffffffffff1673ffffffffffffffffffffffffffffffffffffffff1681526020019081526020016000208361333f565b90505b92915050565b60048054600181600116156101000203166002900480601f016020809104026020016040519081016040528092919081815260200182805460018160011615610100020316600290048015611dc55780601f10611d9a57610100808354040283529160200191611dc5565b820191906000526020600020905b815481529060010190602001808311611da857829003601f168201915b505050505081565b600080831415611ddb574392505b6000600b60019054906101000a900473ffffffffffffffffffffffffffffffffffffffff1673ffffffffffffffffffffffffffffffffffffffff16635b7b72c130868a8a8a896040518763ffffffff1660e01b8152600401808773ffffffffffffffffffffffffffffffffffffffff1673ffffffffffffffffffffffffffffffffffffffff168152602001868152602001806020018560ff1660ff1681526020018060200184151515158152602001838103835287818151815260200191508051906020019080838360005b83811015611ec2578082015181840152602081019050611ea7565b50505050905090810190601f168015611eef5780820380516001836020036101000a031916815260200191505b50838103825285818151815260200191508051906020019080838360005b83811015611f28578082015181840152602081019050611f0d565b50505050905090810190601f168015611f555780820380516001836020036101000a031916815260200191505b5098505050505050505050602060405180830381600087803b158015611f7a57600080fd5b505af1158015611f8e573d6000803e3d6000fd5b505050506040513d6020811015611fa457600080fd5b810190808051906020019092919050505090508073ffffffffffffffffffffffffffffffffffffffff16633cebb823336040518263ffffffff1660e01b8152600401808273ffffffffffffffffffffffffffffffffffffffff1673ffffffffffffffffffffffffffffffffffffffff168152602001915050600060405180830381600087803b15801561203657600080fd5b505af115801561204a573d6000803e3d6000fd5b505050508073ffffffffffffffffffffffffffffffffffffffff167f086c875b377f900b07ce03575813022f05dd10ed7640b5282cf6d3c3fc352ade856040518082815260200191505060405180910390a28091505095945050505050565b60006120b58243611aaf565b9050919050565b600560009054906101000a900473ffffffffffffffffffffffffffffffffffffffff1681565b60008060009054906101000a900473ffffffffffffffffffffffffffffffffffffffff1673ffffffffffffffffffffffffffffffffffffffff163373ffffffffffffffffffffffffffffffffffffffff1614612189576040517f08c379a0000000000000000000000000000000000000000000000000000000008152600401808060200182810382526028815260200180613cc46028913960400191505060405180910390fd5b6000612193611555565b90508083820110156121a457600080fd5b60006121af856120a9565b90508084820110156121c057600080fd5b6121cd600a85840161353e565b612217600860008773ffffffffffffffffffffffffffffffffffffffff1673ffffffffffffffffffffffffffffffffffffffff16815260200190815260200160002085830161353e565b8473ffffffffffffffffffffffffffffffffffffffff16600073ffffffffffffffffffffffffffffffffffffffff167fddf252ad1be2c89b69c2b068fc378daa952ba7f163c4a11628f55a4df523b3ef866040518082815260200191505060405180910390a360019250505092915050565b60038054600181600116156101000203166002900480601f01602080910402602001604051908101604052809291908181526020018280546001816001161561010002031660029004801561231f5780601f106122f45761010080835404028352916020019161231f565b820191906000526020600020905b81548152906001019060200180831161230257829003601f168201915b505050505081565b600080600a805490501480612384575081600a60008154811061234657fe5b9060005260206000200160000160009054906101000a90046fffffffffffffffffffffffffffffffff166fffffffffffffffffffffffffffffffff16115b156124a857600073ffffffffffffffffffffffffffffffffffffffff16600560009054906101000a900473ffffffffffffffffffffffffffffffffffffffff1673ffffffffffffffffffffffffffffffffffffffff161461249f57600560009054906101000a900473ffffffffffffffffffffffffffffffffffffffff1673ffffffffffffffffffffffffffffffffffffffff1663981b24d061242984600654613326565b6040518263ffffffff1660e01b81526004018082815260200191505060206040518083038186803b15801561245d57600080fd5b505afa158015612471573d6000803e3d6000fd5b505050506040513d602081101561248757600080fd5b810190808051906020019092919050505090506124b6565b600090506124b6565b6124b3600a8361333f565b90505b919050565b600f6020528060005260406000206000915090505481565b600b60159054906101000a900460ff1681565b6000600b60009054906101000a900460ff1661254d576040517f08c379a0000000000000000000000000000000000000000000000000000000008152600401808060200182810382526023815260200180613bd06023913960400191505060405180910390fd5b6125583384846132b0565b6001905092915050565b600d5481565b600b60009054906101000a900460ff1681565b60065481565b600b60159054906101000a900460ff16156125e7576040517f08c379a0000000000000000000000000000000000000000000000000000000008152600401808060200182810382526031815260200180613bf36031913960400191505060405180910390fd5b6000809054906101000a900473ffffffffffffffffffffffffffffffffffffffff1673ffffffffffffffffffffffffffffffffffffffff163373ffffffffffffffffffffffffffffffffffffffff161461268c576040517f08c379a0000000000000000000000000000000000000000000000000000000008152600401808060200182810382526028815260200180613cc46028913960400191505060405180910390fd5b6001600b60156101000a81548160ff0219169083151502179055506126b16000612f72565b8082111561270a576040517f08c379a000000000000000000000000000000000000000000000000000000000815260040180806020018281038252602f815260200180613d1f602f913960400191505060405180910390fd5b6000811415612781576040517f08c379a000000000000000000000000000000000000000000000000000000000815260040180806020018281038252601f8152602001807f56657374696e67546f6b656e537465703a206475726174696f6e20697320300081525060200191505060405180910390fd5b426127aa61279b62278d00846136ad90919063ffffffff16565b8561322890919063ffffffff16565b11612800576040517f08c379a0000000000000000000000000000000000000000000000000000000008152600401808060200182810382526033815260200180613cec6033913960400191505060405180910390fd5b80600e8190555082600d8190555061283861282762278d00846136ad90919063ffffffff16565b600d5461322890919063ffffffff16565b600c81905550505050565b600061284f84846111a5565b61285857600080fd5b8373ffffffffffffffffffffffffffffffffffffffff16638f4ffcb1338530866040518563ffffffff1660e01b8152600401808573ffffffffffffffffffffffffffffffffffffffff1673ffffffffffffffffffffffffffffffffffffffff1681526020018481526020018373ffffffffffffffffffffffffffffffffffffffff1673ffffffffffffffffffffffffffffffffffffffff16815260200180602001828103825283818151815260200191508051906020019080838360005b83811015612931578082015181840152602081019050612916565b50505050905090810190601f16801561295e5780820380516001836020036101000a031916815260200191505b5095505050505050600060405180830381600087803b15801561298057600080fd5b505af1158015612994573d6000803e3d6000fd5b50505050600190509392505050565b60008060009054906101000a900473ffffffffffffffffffffffffffffffffffffffff1673ffffffffffffffffffffffffffffffffffffffff163373ffffffffffffffffffffffffffffffffffffffff1614612a4a576040517f08c379a0000000000000000000000000000000000000000000000000000000008152600401808060200182810382526028815260200180613cc46028913960400191505060405180910390fd5b6000612a54611555565b905082811015612a6357600080fd5b6000612a6e856120a9565b905083811015612a7d57600080fd5b612a8a600a85840361353e565b612ad4600860008773ffffffffffffffffffffffffffffffffffffffff1673ffffffffffffffffffffffffffffffffffffffff16815260200190815260200160002085830361353e565b600073ffffffffffffffffffffffffffffffffffffffff168573ffffffffffffffffffffffffffffffffffffffff167fddf252ad1be2c89b69c2b068fc378daa952ba7f163c4a11628f55a4df523b3ef866040518082815260200191505060405180910390a360019250505092915050565b62278d0081565b6000600960008473ffffffffffffffffffffffffffffffffffffffff1673ffffffffffffffffffffffffffffffffffffffff16815260200190815260200160002060008373ffffffffffffffffffffffffffffffffffffffff1673ffffffffffffffffffffffffffffffffffffffff16815260200190815260200160002054905092915050565b6000809054906101000a900473ffffffffffffffffffffffffffffffffffffffff1673ffffffffffffffffffffffffffffffffffffffff163373ffffffffffffffffffffffffffffffffffffffff1614612c79576040517f08c379a0000000000000000000000000000000000000000000000000000000008152600401808060200182810382526028815260200180613cc46028913960400191505060405180910390fd5b600073ffffffffffffffffffffffffffffffffffffffff168173ffffffffffffffffffffffffffffffffffffffff161415612d1b576000809054906101000a900473ffffffffffffffffffffffffffffffffffffffff1673ffffffffffffffffffffffffffffffffffffffff166108fc479081150290604051600060405180830381858888f19350505050158015612d15573d6000803e3d6000fd5b50612f49565b600081905060008173ffffffffffffffffffffffffffffffffffffffff166370a08231306040518263ffffffff1660e01b8152600401808273ffffffffffffffffffffffffffffffffffffffff1673ffffffffffffffffffffffffffffffffffffffff16815260200191505060206040518083038186803b158015612d9f57600080fd5b505afa158015612db3573d6000803e3d6000fd5b505050506040513d6020811015612dc957600080fd5b810190808051906020019092919050505090508173ffffffffffffffffffffffffffffffffffffffff1663a9059cbb6000809054906101000a900473ffffffffffffffffffffffffffffffffffffffff16836040518363ffffffff1660e01b8152600401808373ffffffffffffffffffffffffffffffffffffffff1673ffffffffffffffffffffffffffffffffffffffff16815260200182815260200192505050602060405180830381600087803b158015612e8457600080fd5b505af1158015612e98573d6000803e3d6000fd5b505050506040513d6020811015612eae57600080fd5b8101908080519060200190929190505050506000809054906101000a900473ffffffffffffffffffffffffffffffffffffffff1673ffffffffffffffffffffffffffffffffffffffff168373ffffffffffffffffffffffffffffffffffffffff167ff931edb47c50b4b4104c187b5814a9aef5f709e17e2ecf9617e860cacade929c836040518082815260200191505060405180910390a350505b50565b600b60019054906101000a900473ffffffffffffffffffffffffffffffffffffffff1681565b6000809054906101000a900473ffffffffffffffffffffffffffffffffffffffff1673ffffffffffffffffffffffffffffffffffffffff163373ffffffffffffffffffffffffffffffffffffffff1614613017576040517f08c379a0000000000000000000000000000000000000000000000000000000008152600401808060200182810382526028815260200180613cc46028913960400191505060405180910390fd5b80600b60006101000a81548160ff02191690831515021790555050565b6000809054906101000a900473ffffffffffffffffffffffffffffffffffffffff1681565b6000600b60159054906101000a900460ff16613078576000905061319a565b6000613083836120a9565b905060006130d9600f60008673ffffffffffffffffffffffffffffffffffffffff1673ffffffffffffffffffffffffffffffffffffffff168152602001908152602001600020548361322890919063ffffffff16565b9050600c544210156130f05760009250505061319a565b61311c61310b62278d00600e546136ad90919063ffffffff16565b600c5461322890919063ffffffff16565b421061312c57809250505061319a565b600061316b600161315d62278d0061314f600c544261319f90919063ffffffff16565b61373390919063ffffffff16565b61322890919063ffffffff16565b9050613194600e5461318683856136ad90919063ffffffff16565b61373390919063ffffffff16565b93505050505b919050565b600082821115613217576040517f08c379a000000000000000000000000000000000000000000000000000000000815260040180806020018281038252601e8152602001807f536166654d6174683a207375627472616374696f6e206f766572666c6f77000081525060200191505060405180910390fd5b600082840390508091505092915050565b6000808284019050838110156132a6576040517f08c379a000000000000000000000000000000000000000000000000000000000815260040180806020018281038252601b8152602001807f536166654d6174683a206164646974696f6e206f766572666c6f77000000000081525060200191505060405180910390fd5b8091505092915050565b600b60159054906101000a900460ff1615613316576040517f08c379a0000000000000000000000000000000000000000000000000000000008152600401808060200182810382526031815260200180613bf36031913960400191505060405180910390fd5b6133218383836137c2565b505050565b60008183106133355781613337565b825b905092915050565b600080838054905014156133565760009050613538565b8260018480549050038154811061336957fe5b9060005260206000200160000160009054906101000a90046fffffffffffffffffffffffffffffffff166fffffffffffffffffffffffffffffffff16821061340157826001848054905003815481106133be57fe5b9060005260206000200160000160109054906101000a90046fffffffffffffffffffffffffffffffff166fffffffffffffffffffffffffffffffff169050613538565b8260008154811061340e57fe5b9060005260206000200160000160009054906101000a90046fffffffffffffffffffffffffffffffff166fffffffffffffffffffffffffffffffff1682101561345a5760009050613538565b60008090506000600185805490500390505b818111156134eb57600060026001848401018161348557fe5b0490508486828154811061349557fe5b9060005260206000200160000160009054906101000a90046fffffffffffffffffffffffffffffffff166fffffffffffffffffffffffffffffffff16116134de578092506134e5565b6001810391505b5061346c565b8482815481106134f757fe5b9060005260206000200160000160109054906101000a90046fffffffffffffffffffffffffffffffff166fffffffffffffffffffffffffffffffff16925050505b92915050565b60008280549050148061359e5750438260018480549050038154811061356057fe5b9060005260206000200160000160009054906101000a90046fffffffffffffffffffffffffffffffff166fffffffffffffffffffffffffffffffff16105b1561364b576000828380548091906001016135b99190613b3e565b815481106135c357fe5b906000526020600020019050438160000160006101000a8154816fffffffffffffffffffffffffffffffff02191690836fffffffffffffffffffffffffffffffff160217905550818160000160106101000a8154816fffffffffffffffffffffffffffffffff02191690836fffffffffffffffffffffffffffffffff160217905550506136a9565b60008260018480549050038154811061366057fe5b906000526020600020019050818160000160106101000a8154816fffffffffffffffffffffffffffffffff02191690836fffffffffffffffffffffffffffffffff160217905550505b5050565b6000808314156136c0576000905061372d565b60008284029050828482816136d157fe5b0414613728576040517f08c379a0000000000000000000000000000000000000000000000000000000008152600401808060200182810382526021815260200180613c476021913960400191505060405180910390fd5b809150505b92915050565b60008082116137aa576040517f08c379a000000000000000000000000000000000000000000000000000000000815260040180806020018281038252601a8152602001807f536166654d6174683a206469766973696f6e206279207a65726f00000000000081525060200191505060405180910390fd5b60008284816137b557fe5b0490508091505092915050565b6000811415613835578173ffffffffffffffffffffffffffffffffffffffff168373ffffffffffffffffffffffffffffffffffffffff167fddf252ad1be2c89b69c2b068fc378daa952ba7f163c4a11628f55a4df523b3ef836040518082815260200191505060405180910390a3613b39565b436006541061384357600080fd5b600073ffffffffffffffffffffffffffffffffffffffff168273ffffffffffffffffffffffffffffffffffffffff16141580156138ac57503073ffffffffffffffffffffffffffffffffffffffff168273ffffffffffffffffffffffffffffffffffffffff1614155b6138b557600080fd5b60006138c18443611aaf565b9050818110156138d057600080fd5b6138fa6000809054906101000a900473ffffffffffffffffffffffffffffffffffffffff166110b4565b15613a20576000809054906101000a900473ffffffffffffffffffffffffffffffffffffffff1673ffffffffffffffffffffffffffffffffffffffff16634a3931498585856040518463ffffffff1660e01b8152600401808473ffffffffffffffffffffffffffffffffffffffff1673ffffffffffffffffffffffffffffffffffffffff1681526020018373ffffffffffffffffffffffffffffffffffffffff1673ffffffffffffffffffffffffffffffffffffffff1681526020018281526020019350505050602060405180830381600087803b1580156139db57600080fd5b505af11580156139ef573d6000803e3d6000fd5b505050506040513d6020811015613a0557600080fd5b8101908080519060200190929190505050613a1f57600080fd5b5b613a6a600860008673ffffffffffffffffffffffffffffffffffffffff1673ffffffffffffffffffffffffffffffffffffffff16815260200190815260200160002083830361353e565b6000613a768443611aaf565b9050808382011015613a8757600080fd5b613ad1600860008673ffffffffffffffffffffffffffffffffffffffff1673ffffffffffffffffffffffffffffffffffffffff16815260200190815260200160002084830161353e565b8373ffffffffffffffffffffffffffffffffffffffff168573ffffffffffffffffffffffffffffffffffffffff167fddf252ad1be2c89b69c2b068fc378daa952ba7f163c4a11628f55a4df523b3ef856040518082815260200191505060405180910390a350505b505050565b815481835581811115613b6557818360005260206000209182019101613b649190613b6a565b5b505050565b613bcc91905b80821115613bc857600080820160006101000a8154906fffffffffffffffffffffffffffffffff02191690556000820160106101000a8154906fffffffffffffffffffffffffffffffff021916905550600101613b70565b5090565b9056fe4d696e694d65546f6b656e3a207472616e73666572206973206e6f7420656e61626c6556657374696e67546f6b656e537465703a2063616e6e6f74206578656375746520616674657220696e6974696174696f6e56657374696e67546f6b656e537465703a206e6f20746f6b656e732061726520647565536166654d6174683a206d756c7469706c69636174696f6e206f766572666c6f7756657374696e67546f6b656e537465703a2063616e6e6f742065786563757465206265666f726520696e6974696174696f6e56657374696e67546f6b656e537465703a206661696c656420746f2064657374726f7920746f6b656e73436f6e74726f6c6c65643a2063616c6c6572206973206e6f742074686520636f6e74726f6c6c657256657374696e67546f6b656e537465703a2066696e616c2074696d65206973206265666f72652063757272656e742074696d6556657374696e67546f6b656e537465703a20636c696666206973206c6f6e676572207468616e206475726174696f6ea265627a7a723158206f6d66e4db074293ea64e90ae68bfe18dec27835636aee4c8f236941cd5f44b564736f6c63430005100032",
  "source": "pragma solidity ^0.5.0;\n\nimport \"./minime/MiniMeToken.sol\";\nimport \"./openzeppelin-solidity/math/SafeMath.sol\";\n\ncontract VestingTokenStep is MiniMeToken {\n    using SafeMath for uint256;\n\n    bool public initiated;\n\n    // Durations and timestamps are expressed in UNIX time, the same units as block.timestamp.\n    uint256 public cliff;\n    uint256 public start;\n    uint256 public duration;\n    uint256 public constant UNIT_IN_SECONDS = 60 * 60 * 24 * 30;\n\n    mapping (address => uint256) public released;\n\n    constructor (\n        address tokenFactory,\n        address payable parentToken,\n        uint parentSnapShotBlock,\n        string memory tokenName,\n        uint8 decimalUnits,\n        string memory tokenSymbol,\n        bool transfersEnabled\n    )\n        public\n        MiniMeToken(tokenFactory, parentToken, parentSnapShotBlock, tokenName, decimalUnits, tokenSymbol, transfersEnabled)\n    {\n        // solhint-disable-previous-line no-empty-blocks\n    }\n\n    modifier beforeInitiated() {\n        require(!initiated, \"VestingTokenStep: cannot execute after initiation\");\n        _;\n    }\n\n    modifier afterInitiated() {\n        require(initiated, \"VestingTokenStep: cannot execute before initiation\");\n        _;\n    }\n\n    /**\n     * @notice Makes vested tokens releasable.\n     * @param _start the time (as Unix time) at which point vesting starts\n     * @param cliffDuration duration in unit(30 days) of the cliff in which tokens will begin to vest\n     * @param _duration duration in unit(30 days) of the period in which the tokens will vest(after the cliff period)\n     */\n    function initiate(uint256 _start, uint256 cliffDuration, uint256 _duration) public beforeInitiated onlyController {\n        initiated = true;\n\n        enableTransfers(false);\n\n        // solhint-disable-next-line max-line-length\n        require(cliffDuration <= _duration, \"VestingTokenStep: cliff is longer than duration\");\n        require(_duration != 0, \"VestingTokenStep: duration is 0\");\n        // solhint-disable-next-line max-line-length\n        require(_start.add(_duration.mul(UNIT_IN_SECONDS)) > block.timestamp, \"VestingTokenStep: final time is before current time\");\n\n        duration = _duration;\n        start = _start;\n        cliff = start.add(cliffDuration.mul(UNIT_IN_SECONDS));\n    }\n\n    /**\n     * @dev This is the actual transfer function in the token contract.\n     * @param from The address holding the tokens being transferred\n     * @param to The address of the recipient\n     * @param amount The amount of tokens to be transferred\n     */\n    function doTransfer(address from, address to, uint amount) internal beforeInitiated {\n        super.doTransfer(from, to, amount);\n    }\n\n    /**\n     * @notice Destroys releasable tokens.\n     * @param beneficiary the beneficiary of the tokens.\n     */\n    function destroyReleasableTokens(address beneficiary) public afterInitiated onlyController returns (uint256 unreleased) {\n        unreleased = releasableAmount(beneficiary);\n\n        require(unreleased != 0, \"VestingTokenStep: no tokens are due\");\n\n        released[beneficiary] = released[beneficiary].add(unreleased);\n\n        require(destroyTokens(beneficiary, unreleased), \"VestingTokenStep: failed to destroy tokens\");\n    }\n\n    /**\n     * @dev Calculates the amount that has already vested but hasn't been released yet.\n     * @param beneficiary the beneficiary of the tokens.\n     */\n    function releasableAmount(address beneficiary) public view returns (uint256) {\n        return _vestedAmount(beneficiary).sub(released[beneficiary]);\n    }\n\n    /**\n     * @dev Calculates the amount that has already vested.\n     * @param beneficiary the beneficiary of the tokens.\n     */\n    function _vestedAmount(address beneficiary) private view returns (uint256) {\n        if (!initiated) {\n            return 0;\n        }\n\n        uint256 currentVestedAmount = balanceOf(beneficiary);\n        uint256 totalVestedAmount = currentVestedAmount.add(released[beneficiary]);\n\n        if (block.timestamp < cliff) {\n            return 0;\n        } else if (block.timestamp >= cliff.add(duration.mul(UNIT_IN_SECONDS))) {\n            return totalVestedAmount;\n        } else {\n            uint256 currenUnit = block.timestamp.sub(cliff).div(UNIT_IN_SECONDS).add(1);\n            return totalVestedAmount.mul(currenUnit).div(duration);\n        }\n    }\n}\n",
  "sourcePath": "/home/modagi/github/onther/presale-contracts4/contracts/VestingTokenStep.sol",
  "compiler": {
    "name": "solc",
    "version": "0.5.16+commit.9c3226ce.Emscripten.clang"
  },
  "schemaVersion": "3.2.0",
  "updatedAt": "2020-08-11T10:57:27.624Z",
  "devdoc": {
    "methods": {
      "allowance(address,address)": {
        "details": "This function makes it easy to read the `allowed[]` map",
        "params": {
          "_owner": "The address of the account that owns the token",
          "_spender": "The address of the account able to transfer the tokens"
        },
        "return": "Amount of remaining tokens of _owner that _spender is allowed  to spend"
      },
      "approve(address,uint256)": {
        "params": {
          "_amount": "The amount of tokens to be approved for transfer",
          "_spender": "The address of the account able to transfer the tokens"
        },
        "return": "True if the approval was successful"
      },
      "approveAndCall(address,uint256,bytes)": {
        "params": {
          "_amount": "The amount of tokens to be approved for transfer",
          "_spender": "The address of the contract able to transfer the tokens"
        },
        "return": "True if the function call was successful"
      },
      "balanceOf(address)": {
        "params": {
          "_owner": "The address that's balance is being requested"
        },
        "return": "The balance of `_owner` at the current block"
      },
      "balanceOfAt(address,uint256)": {
        "details": "Queries the balance of `_owner` at a specific `_blockNumber`",
        "params": {
          "_blockNumber": "The block number when the balance is queried",
          "_owner": "The address from which the balance will be retrieved"
        },
        "return": "The balance at `_blockNumber`"
      },
      "changeController(address)": {
        "params": {
          "_newController": "The new controller of the contract"
        }
      },
      "claimTokens(address)": {
        "params": {
          "_token": "The address of the token contract that you want to recover  set to 0 in case you want to extract ether."
        }
      },
      "createCloneToken(string,uint8,string,uint256,bool)": {
        "params": {
          "_cloneDecimalUnits": "Number of decimals of the smallest unit",
          "_cloneTokenName": "Name of the clone token",
          "_cloneTokenSymbol": "Symbol of the clone token",
          "_snapshotBlock": "Block when the distribution of the parent token is  copied to set the initial distribution of the new clone token;  if the block is zero than the actual block, the current block is used",
          "_transfersEnabled": "True if transfers are allowed in the clone"
        },
        "return": "The address of the new MiniMeToken Contract"
      },
      "destroyReleasableTokens(address)": {
        "params": {
          "beneficiary": "the beneficiary of the tokens."
        }
      },
      "destroyTokens(address,uint256)": {
        "params": {
          "_amount": "The quantity of tokens to burn",
          "_owner": "The address that will lose the tokens"
        },
        "return": "True if the tokens are burned correctly"
      },
      "enableTransfers(bool)": {
        "params": {
          "_transfersEnabled": "True if transfers are allowed in the clone"
        }
      },
      "generateTokens(address,uint256)": {
        "params": {
          "_amount": "The quantity of tokens generated",
          "_owner": "The address that will be assigned the new tokens"
        },
        "return": "True if the tokens are generated correctly"
      },
      "initiate(uint256,uint256,uint256)": {
        "params": {
          "_duration": "duration in unit(30 days) of the period in which the tokens will vest(after the cliff period)",
          "_start": "the time (as Unix time) at which point vesting starts",
          "cliffDuration": "duration in unit(30 days) of the cliff in which tokens will begin to vest"
        }
      },
      "releasableAmount(address)": {
        "details": "Calculates the amount that has already vested but hasn't been released yet.",
        "params": {
          "beneficiary": "the beneficiary of the tokens."
        }
      },
      "totalSupply()": {
        "details": "This function makes it easy to get the total number of tokens",
        "return": "The total number of tokens"
      },
      "totalSupplyAt(uint256)": {
        "params": {
          "_blockNumber": "The block number when the totalSupply is queried"
        },
        "return": "The total amount of tokens at `_blockNumber`"
      },
      "transfer(address,uint256)": {
        "params": {
          "_amount": "The amount of tokens to be transferred",
          "_to": "The address of the recipient"
        },
        "return": "Whether the transfer was successful or not"
      },
      "transferFrom(address,address,uint256)": {
        "params": {
          "_amount": "The amount of tokens to be transferred",
          "_from": "The address holding the tokens being transferred",
          "_to": "The address of the recipient"
        },
        "return": "True if the transfer was successful"
      }
    }
  },
  "userdoc": {
    "methods": {
      "approve(address,uint256)": {
        "notice": "`msg.sender` approves `_spender` to spend `_amount` tokens on  its behalf. This is a modified version of the ERC20 approve function  to be a little bit safer"
      },
      "approveAndCall(address,uint256,bytes)": {
        "notice": "`msg.sender` approves `_spender` to send `_amount` tokens on  its behalf, and then a function is triggered in the contract that is  being approved, `_spender`. This allows users to use their tokens to  interact with contracts in one function call instead of two"
      },
      "balanceOfAt(address,uint256)": {
        "notice": "/////////////"
      },
      "changeController(address)": {
        "notice": "Changes the controller of the contract"
      },
      "claimTokens(address)": {
        "notice": "///////This method can be used by the controller to extract mistakenly  sent tokens to this contract."
      },
      "createCloneToken(string,uint8,string,uint256,bool)": {
        "notice": "/////////////Creates a new clone token with the initial distribution being  this token at `_snapshotBlock`"
      },
      "destroyReleasableTokens(address)": {
        "notice": "Destroys releasable tokens."
      },
      "destroyTokens(address,uint256)": {
        "notice": "Burns `_amount` tokens from `_owner`"
      },
      "enableTransfers(bool)": {
        "notice": "/////////////Enables token holders to transfer their tokens freely if true"
      },
      "generateTokens(address,uint256)": {
        "notice": "/////////////Generates `_amount` tokens that are assigned to `_owner`"
      },
      "initiate(uint256,uint256,uint256)": {
        "notice": "Makes vested tokens releasable."
      },
      "totalSupplyAt(uint256)": {
        "notice": "Total amount of tokens at a specific `_blockNumber`."
      },
      "transfer(address,uint256)": {
        "notice": "////////////////Send `_amount` tokens to `_to` from `msg.sender`"
      },
      "transferFrom(address,address,uint256)": {
        "notice": "Send `_amount` tokens to `_to` from `_from` on the condition it  is approved by `_from`"
      }
    }
  }
}