{
  "contractName": "VestingSwapper",
  "abi": [
    {
      "inputs": [
        {
          "internalType": "contract ERC20Mintable",
          "name": "token",
          "type": "address"
        },
        {
          "internalType": "address",
          "name": "mtonAddress",
          "type": "address"
        }
      ],
      "payable": false,
      "stateMutability": "nonpayable",
      "type": "constructor"
    },
    {
      "anonymous": false,
      "inputs": [
        {
          "indexed": false,
          "internalType": "address",
          "name": "vestingToken",
          "type": "address"
        },
        {
          "indexed": false,
          "internalType": "address",
          "name": "from",
          "type": "address"
        },
        {
          "indexed": false,
          "internalType": "uint256",
          "name": "amount",
          "type": "uint256"
        }
      ],
      "name": "Deposit",
      "type": "event"
    },
    {
      "anonymous": false,
      "inputs": [
        {
          "indexed": false,
          "internalType": "address",
          "name": "recipient",
          "type": "address"
        }
      ],
      "name": "PrimaryTransferred",
      "type": "event"
    },
    {
      "anonymous": false,
      "inputs": [
        {
          "indexed": false,
          "internalType": "address",
          "name": "bernerAddress",
          "type": "address"
        }
      ],
      "name": "SetBurner",
      "type": "event"
    },
    {
      "anonymous": false,
      "inputs": [
        {
          "indexed": false,
          "internalType": "address",
          "name": "vaultAddress",
          "type": "address"
        }
      ],
      "name": "SetVault",
      "type": "event"
    },
    {
      "anonymous": false,
      "inputs": [
        {
          "indexed": false,
          "internalType": "address",
          "name": "account",
          "type": "address"
        },
        {
          "indexed": false,
          "internalType": "uint256",
          "name": "unreleased",
          "type": "uint256"
        },
        {
          "indexed": false,
          "internalType": "uint256",
          "name": "transferred",
          "type": "uint256"
        }
      ],
      "name": "Swapped",
      "type": "event"
    },
    {
      "anonymous": false,
      "inputs": [
        {
          "indexed": false,
          "internalType": "address",
          "name": "vestingToken",
          "type": "address"
        },
        {
          "indexed": false,
          "internalType": "uint256",
          "name": "tokenRatio",
          "type": "uint256"
        }
      ],
      "name": "UpdateRatio",
      "type": "event"
    },
    {
      "anonymous": false,
      "inputs": [
        {
          "indexed": false,
          "internalType": "address",
          "name": "recipient",
          "type": "address"
        },
        {
          "indexed": false,
          "internalType": "uint256",
          "name": "amount",
          "type": "uint256"
        }
      ],
      "name": "Withdrew",
      "type": "event"
    },
    {
      "constant": true,
      "inputs": [],
      "name": "_token",
      "outputs": [
        {
          "internalType": "contract ERC20Mintable",
          "name": "",
          "type": "address"
        }
      ],
      "payable": false,
      "stateMutability": "view",
      "type": "function"
    },
    {
      "constant": true,
      "inputs": [
        {
          "internalType": "address",
          "name": "",
          "type": "address"
        },
        {
          "internalType": "address",
          "name": "",
          "type": "address"
        }
      ],
      "name": "beneficiaryInfo",
      "outputs": [
        {
          "internalType": "uint256",
          "name": "totalAmount",
          "type": "uint256"
        },
        {
          "internalType": "uint256",
          "name": "releasedAmount",
          "type": "uint256"
        }
      ],
      "payable": false,
      "stateMutability": "view",
      "type": "function"
    },
    {
      "constant": true,
      "inputs": [],
      "name": "burner",
      "outputs": [
        {
          "internalType": "address",
          "name": "",
          "type": "address"
        }
      ],
      "payable": false,
      "stateMutability": "view",
      "type": "function"
    },
    {
      "constant": true,
      "inputs": [],
      "name": "primary",
      "outputs": [
        {
          "internalType": "address",
          "name": "",
          "type": "address"
        }
      ],
      "payable": false,
      "stateMutability": "view",
      "type": "function"
    },
    {
      "constant": false,
      "inputs": [
        {
          "internalType": "address",
          "name": "recipient",
          "type": "address"
        }
      ],
      "name": "transferPrimary",
      "outputs": [],
      "payable": false,
      "stateMutability": "nonpayable",
      "type": "function"
    },
    {
      "constant": true,
      "inputs": [],
      "name": "vault",
      "outputs": [
        {
          "internalType": "contract TONVault",
          "name": "",
          "type": "address"
        }
      ],
      "payable": false,
      "stateMutability": "view",
      "type": "function"
    },
    {
      "constant": true,
      "inputs": [
        {
          "internalType": "address",
          "name": "",
          "type": "address"
        }
      ],
      "name": "vestingInfo",
      "outputs": [
        {
          "internalType": "bool",
          "name": "isInitiated",
          "type": "bool"
        },
        {
          "internalType": "uint256",
          "name": "start",
          "type": "uint256"
        },
        {
          "internalType": "uint256",
          "name": "cliff",
          "type": "uint256"
        },
        {
          "internalType": "uint256",
          "name": "firstClaimTimestamp",
          "type": "uint256"
        },
        {
          "internalType": "uint256",
          "name": "firstClaimAmount",
          "type": "uint256"
        },
        {
          "internalType": "uint256",
          "name": "durationUnit",
          "type": "uint256"
        },
        {
          "internalType": "uint256",
          "name": "durationInSeconds",
          "type": "uint256"
        },
        {
          "internalType": "uint256",
          "name": "ratio",
          "type": "uint256"
        },
        {
          "internalType": "uint256",
          "name": "initialTotalSupply",
          "type": "uint256"
        }
      ],
      "payable": false,
      "stateMutability": "view",
      "type": "function"
    },
    {
      "constant": false,
      "inputs": [
        {
          "internalType": "address payable",
          "name": "vestingToken",
          "type": "address"
        }
      ],
      "name": "swap",
      "outputs": [
        {
          "internalType": "bool",
          "name": "",
          "type": "bool"
        }
      ],
      "payable": false,
      "stateMutability": "nonpayable",
      "type": "function"
    },
    {
      "constant": false,
      "inputs": [
        {
          "internalType": "contract VestingToken",
          "name": "vestingToken",
          "type": "address"
        },
        {
          "internalType": "address payable",
          "name": "newController",
          "type": "address"
        }
      ],
      "name": "changeController",
      "outputs": [],
      "payable": false,
      "stateMutability": "nonpayable",
      "type": "function"
    },
    {
      "constant": false,
      "inputs": [
        {
          "internalType": "contract TONVault",
          "name": "vaultAddress",
          "type": "address"
        }
      ],
      "name": "setVault",
      "outputs": [],
      "payable": false,
      "stateMutability": "nonpayable",
      "type": "function"
    },
    {
      "constant": false,
      "inputs": [
        {
          "internalType": "address",
          "name": "bernerAddress",
          "type": "address"
        }
      ],
      "name": "setBurner",
      "outputs": [],
      "payable": false,
      "stateMutability": "nonpayable",
      "type": "function"
    },
    {
      "constant": false,
      "inputs": [
        {
          "internalType": "uint256",
          "name": "_startTimestamp",
          "type": "uint256"
        }
      ],
      "name": "setStart",
      "outputs": [],
      "payable": false,
      "stateMutability": "nonpayable",
      "type": "function"
    },
    {
      "constant": false,
      "inputs": [
        {
          "internalType": "address",
          "name": "_owner",
          "type": "address"
        }
      ],
      "name": "proxyPayment",
      "outputs": [
        {
          "internalType": "bool",
          "name": "",
          "type": "bool"
        }
      ],
      "payable": true,
      "stateMutability": "payable",
      "type": "function"
    },
    {
      "constant": false,
      "inputs": [
        {
          "internalType": "address",
          "name": "_from",
          "type": "address"
        },
        {
          "internalType": "address",
          "name": "_to",
          "type": "address"
        },
        {
          "internalType": "uint256",
          "name": "_amount",
          "type": "uint256"
        }
      ],
      "name": "onTransfer",
      "outputs": [
        {
          "internalType": "bool",
          "name": "",
          "type": "bool"
        }
      ],
      "payable": false,
      "stateMutability": "nonpayable",
      "type": "function"
    },
    {
      "constant": false,
      "inputs": [
        {
          "internalType": "address",
          "name": "_owner",
          "type": "address"
        },
        {
          "internalType": "address",
          "name": "_spender",
          "type": "address"
        },
        {
          "internalType": "uint256",
          "name": "_amount",
          "type": "uint256"
        }
      ],
      "name": "onApprove",
      "outputs": [
        {
          "internalType": "bool",
          "name": "",
          "type": "bool"
        }
      ],
      "payable": false,
      "stateMutability": "nonpayable",
      "type": "function"
    },
    {
      "constant": false,
      "inputs": [
        {
          "internalType": "address",
          "name": "from",
          "type": "address"
        },
        {
          "internalType": "uint256",
          "name": "_amount",
          "type": "uint256"
        },
        {
          "internalType": "address payable",
          "name": "_token",
          "type": "address"
        },
        {
          "internalType": "bytes",
          "name": "_data",
          "type": "bytes"
        }
      ],
      "name": "receiveApproval",
      "outputs": [],
      "payable": false,
      "stateMutability": "nonpayable",
      "type": "function"
    },
    {
      "constant": false,
      "inputs": [
        {
          "internalType": "address",
          "name": "vestingToken",
          "type": "address"
        },
        {
          "internalType": "uint256",
          "name": "start",
          "type": "uint256"
        },
        {
          "internalType": "uint256",
          "name": "cliffDurationInSeconds",
          "type": "uint256"
        },
        {
          "internalType": "uint256",
          "name": "firstClaimDurationInSeconds",
          "type": "uint256"
        },
        {
          "internalType": "uint256",
          "name": "firstClaimAmount",
          "type": "uint256"
        },
        {
          "internalType": "uint256",
          "name": "durationUnit",
          "type": "uint256"
        }
      ],
      "name": "initiate",
      "outputs": [],
      "payable": false,
      "stateMutability": "nonpayable",
      "type": "function"
    },
    {
      "constant": false,
      "inputs": [
        {
          "internalType": "address",
          "name": "vestingToken",
          "type": "address"
        },
        {
          "internalType": "uint256",
          "name": "tokenRatio",
          "type": "uint256"
        }
      ],
      "name": "updateRatio",
      "outputs": [],
      "payable": false,
      "stateMutability": "nonpayable",
      "type": "function"
    },
    {
      "constant": true,
      "inputs": [
        {
          "internalType": "address",
          "name": "vestingToken",
          "type": "address"
        }
      ],
      "name": "ratio",
      "outputs": [
        {
          "internalType": "uint256",
          "name": "",
          "type": "uint256"
        }
      ],
      "payable": false,
      "stateMutability": "view",
      "type": "function"
    },
    {
      "constant": true,
      "inputs": [
        {
          "internalType": "address",
          "name": "vestingToken",
          "type": "address"
        }
      ],
      "name": "initiated",
      "outputs": [
        {
          "internalType": "bool",
          "name": "",
          "type": "bool"
        }
      ],
      "payable": false,
      "stateMutability": "view",
      "type": "function"
    },
    {
      "constant": true,
      "inputs": [
        {
          "internalType": "address",
          "name": "vestingToken",
          "type": "address"
        }
      ],
      "name": "start",
      "outputs": [
        {
          "internalType": "uint256",
          "name": "",
          "type": "uint256"
        }
      ],
      "payable": false,
      "stateMutability": "view",
      "type": "function"
    },
    {
      "constant": true,
      "inputs": [
        {
          "internalType": "address",
          "name": "vestingToken",
          "type": "address"
        }
      ],
      "name": "cliff",
      "outputs": [
        {
          "internalType": "uint256",
          "name": "",
          "type": "uint256"
        }
      ],
      "payable": false,
      "stateMutability": "view",
      "type": "function"
    },
    {
      "constant": true,
      "inputs": [
        {
          "internalType": "address",
          "name": "vestingToken",
          "type": "address"
        }
      ],
      "name": "firstClaim",
      "outputs": [
        {
          "internalType": "uint256",
          "name": "",
          "type": "uint256"
        }
      ],
      "payable": false,
      "stateMutability": "view",
      "type": "function"
    },
    {
      "constant": true,
      "inputs": [
        {
          "internalType": "address",
          "name": "vestingToken",
          "type": "address"
        }
      ],
      "name": "duration",
      "outputs": [
        {
          "internalType": "uint256",
          "name": "",
          "type": "uint256"
        }
      ],
      "payable": false,
      "stateMutability": "view",
      "type": "function"
    },
    {
      "constant": true,
      "inputs": [
        {
          "internalType": "address",
          "name": "vestingToken",
          "type": "address"
        },
        {
          "internalType": "address",
          "name": "beneficiary",
          "type": "address"
        }
      ],
      "name": "totalAmount",
      "outputs": [
        {
          "internalType": "uint256",
          "name": "",
          "type": "uint256"
        }
      ],
      "payable": false,
      "stateMutability": "view",
      "type": "function"
    },
    {
      "constant": true,
      "inputs": [
        {
          "internalType": "address",
          "name": "vestingToken",
          "type": "address"
        },
        {
          "internalType": "address",
          "name": "beneficiary",
          "type": "address"
        }
      ],
      "name": "released",
      "outputs": [
        {
          "internalType": "uint256",
          "name": "",
          "type": "uint256"
        }
      ],
      "payable": false,
      "stateMutability": "view",
      "type": "function"
    },
    {
      "constant": true,
      "inputs": [
        {
          "internalType": "address",
          "name": "vestingToken",
          "type": "address"
        },
        {
          "internalType": "address",
          "name": "beneficiary",
          "type": "address"
        }
      ],
      "name": "releasableAmount",
      "outputs": [
        {
          "internalType": "uint256",
          "name": "",
          "type": "uint256"
        }
      ],
      "payable": false,
      "stateMutability": "view",
      "type": "function"
    }
  ],
  "bytecode": "0x608060405234801561001057600080fd5b506040516133e33803806133e38339818101604052604081101561003357600080fd5b810190808051906020019092919080519060200190929190505050336000806101000a81548173ffffffffffffffffffffffffffffffffffffffff021916908373ffffffffffffffffffffffffffffffffffffffff1602179055507f4101e71e974f68df5e9730cc223280b41654676bbb052cdcc735c3337e64d2d96000809054906101000a900473ffffffffffffffffffffffffffffffffffffffff16604051808273ffffffffffffffffffffffffffffffffffffffff1673ffffffffffffffffffffffffffffffffffffffff16815260200191505060405180910390a181600360006101000a81548173ffffffffffffffffffffffffffffffffffffffff021916908373ffffffffffffffffffffffffffffffffffffffff16021790555080600460006101000a81548173ffffffffffffffffffffffffffffffffffffffff021916908373ffffffffffffffffffffffffffffffffffffffff160217905550505061323e806101a56000396000f3fe60806040526004361061019c5760003560e01c80638f4ffcb1116100ec578063da682aeb1161008a578063f48c305411610064578063f48c305414610c06578063f6a03ebf14610c62578063f78e633d14610c9d578063fbfa77cf14610d3e5761019c565b8063da682aeb14610ab7578063dd0b281e14610b4a578063ecd0c0c314610baf5761019c565b8063c6dbdf61116100c6578063c6dbdf61146108ea578063cc17ddf914610941578063cdce101b146109cd578063d8948a8914610a325761019c565b80638f4ffcb114610722578063a996d6ce14610834578063b36760a3146108855761019c565b8063406072a9116101595780636817031b116101335780636817031b1461056e5780637068ca0d146105bf5780637243cfbb1461061a578063848baebf1461069f5761019c565b8063406072a9146103f1578063424b4460146104765780634a393149146104db5761019c565b806303438dd0146101a1578063049939f31461020a5780630b40495b146102735780632348238c146102d857806327810b6e146103295780633e11e37814610380575b600080fd5b3480156101ad57600080fd5b506101f0600480360360208110156101c457600080fd5b81019080803573ffffffffffffffffffffffffffffffffffffffff169060200190929190505050610d95565b604051808215151515815260200191505060405180910390f35b34801561021657600080fd5b506102596004803603602081101561022d57600080fd5b81019080803573ffffffffffffffffffffffffffffffffffffffff169060200190929190505050611557565b604051808215151515815260200191505060405180910390f35b34801561027f57600080fd5b506102c26004803603602081101561029657600080fd5b81019080803573ffffffffffffffffffffffffffffffffffffffff1690602001909291905050506115b5565b6040518082815260200191505060405180910390f35b3480156102e457600080fd5b50610327600480360360208110156102fb57600080fd5b81019080803573ffffffffffffffffffffffffffffffffffffffff169060200190929190505050611606565b005b34801561033557600080fd5b5061033e6117f8565b604051808273ffffffffffffffffffffffffffffffffffffffff1673ffffffffffffffffffffffffffffffffffffffff16815260200191505060405180910390f35b34801561038c57600080fd5b506103ef600480360360408110156103a357600080fd5b81019080803573ffffffffffffffffffffffffffffffffffffffff169060200190929190803573ffffffffffffffffffffffffffffffffffffffff16906020019092919050505061181e565b005b3480156103fd57600080fd5b506104606004803603604081101561041457600080fd5b81019080803573ffffffffffffffffffffffffffffffffffffffff169060200190929190803573ffffffffffffffffffffffffffffffffffffffff16906020019092919050505061195e565b6040518082815260200191505060405180910390f35b34801561048257600080fd5b506104c56004803603602081101561049957600080fd5b81019080803573ffffffffffffffffffffffffffffffffffffffff1690602001909291905050506119e8565b6040518082815260200191505060405180910390f35b3480156104e757600080fd5b50610554600480360360608110156104fe57600080fd5b81019080803573ffffffffffffffffffffffffffffffffffffffff169060200190929190803573ffffffffffffffffffffffffffffffffffffffff16906020019092919080359060200190929190505050611a39565b604051808215151515815260200191505060405180910390f35b34801561057a57600080fd5b506105bd6004803603602081101561059157600080fd5b81019080803573ffffffffffffffffffffffffffffffffffffffff169060200190929190505050611a46565b005b3480156105cb57600080fd5b50610618600480360360408110156105e257600080fd5b81019080803573ffffffffffffffffffffffffffffffffffffffff16906020019092919080359060200190929190505050611b92565b005b34801561062657600080fd5b506106896004803603604081101561063d57600080fd5b81019080803573ffffffffffffffffffffffffffffffffffffffff169060200190929190803573ffffffffffffffffffffffffffffffffffffffff169060200190929190505050611d5a565b6040518082815260200191505060405180910390f35b3480156106ab57600080fd5b50610720600480360360c08110156106c257600080fd5b81019080803573ffffffffffffffffffffffffffffffffffffffff1690602001909291908035906020019092919080359060200190929190803590602001909291908035906020019092919080359060200190929190505050611d8e565b005b34801561072e57600080fd5b506108326004803603608081101561074557600080fd5b81019080803573ffffffffffffffffffffffffffffffffffffffff16906020019092919080359060200190929190803573ffffffffffffffffffffffffffffffffffffffff169060200190929190803590602001906401000000008111156107ac57600080fd5b8201836020820111156107be57600080fd5b803590602001918460018302840111640100000000831117156107e057600080fd5b91908080601f016020809104026020016040519081016040528093929190818152602001838380828437600081840152601f19601f82011690508083019250505050505050919291929050505061222c565b005b34801561084057600080fd5b506108836004803603602081101561085757600080fd5b81019080803573ffffffffffffffffffffffffffffffffffffffff169060200190929190505050612505565b005b34801561089157600080fd5b506108d4600480360360208110156108a857600080fd5b81019080803573ffffffffffffffffffffffffffffffffffffffff1690602001909291905050506126b8565b6040518082815260200191505060405180910390f35b3480156108f657600080fd5b506108ff612709565b604051808273ffffffffffffffffffffffffffffffffffffffff1673ffffffffffffffffffffffffffffffffffffffff16815260200191505060405180910390f35b34801561094d57600080fd5b506109b06004803603604081101561096457600080fd5b81019080803573ffffffffffffffffffffffffffffffffffffffff169060200190929190803573ffffffffffffffffffffffffffffffffffffffff169060200190929190505050612732565b604051808381526020018281526020019250505060405180910390f35b3480156109d957600080fd5b50610a1c600480360360208110156109f057600080fd5b81019080803573ffffffffffffffffffffffffffffffffffffffff169060200190929190505050612763565b6040518082815260200191505060405180910390f35b348015610a3e57600080fd5b50610aa160048036036040811015610a5557600080fd5b81019080803573ffffffffffffffffffffffffffffffffffffffff169060200190929190803573ffffffffffffffffffffffffffffffffffffffff1690602001909291905050506127b4565b6040518082815260200191505060405180910390f35b348015610ac357600080fd5b50610b3060048036036060811015610ada57600080fd5b81019080803573ffffffffffffffffffffffffffffffffffffffff169060200190929190803573ffffffffffffffffffffffffffffffffffffffff1690602001909291908035906020019092919050505061283e565b604051808215151515815260200191505060405180910390f35b348015610b5657600080fd5b50610b9960048036036020811015610b6d57600080fd5b81019080803573ffffffffffffffffffffffffffffffffffffffff16906020019092919050505061284b565b6040518082815260200191505060405180910390f35b348015610bbb57600080fd5b50610bc461289c565b604051808273ffffffffffffffffffffffffffffffffffffffff1673ffffffffffffffffffffffffffffffffffffffff16815260200191505060405180910390f35b610c4860048036036020811015610c1c57600080fd5b81019080803573ffffffffffffffffffffffffffffffffffffffff1690602001909291905050506128c2565b604051808215151515815260200191505060405180910390f35b348015610c6e57600080fd5b50610c9b60048036036020811015610c8557600080fd5b81019080803590602001909291905050506128cd565b005b348015610ca957600080fd5b50610cec60048036036020811015610cc057600080fd5b81019080803573ffffffffffffffffffffffffffffffffffffffff16906020019092919050505061297c565b604051808a151515158152602001898152602001888152602001878152602001868152602001858152602001848152602001838152602001828152602001995050505050505050505060405180910390f35b348015610d4a57600080fd5b50610d536129d7565b604051808273ffffffffffffffffffffffffffffffffffffffff1673ffffffffffffffffffffffffffffffffffffffff16815260200191505060405180910390f35b600080600260008473ffffffffffffffffffffffffffffffffffffffff1673ffffffffffffffffffffffffffffffffffffffff16815260200190815260200160002060070154905060008111610e36576040517f08c379a000000000000000000000000000000000000000000000000000000000815260040180806020018281038252602c815260200180613111602c913960400191505060405180910390fd5b6000610e428433611d5a565b90506000811415610e5857600192505050611552565b6000610e6d83836129fd90919063ffffffff16565b905060008111610ee5576040517f08c379a00000000000000000000000000000000000000000000000000000000081526004018080602001828103825260078152602001807f746573743131310000000000000000000000000000000000000000000000000081525060200191505060405180910390fd5b6000809050600460009054906101000a900473ffffffffffffffffffffffffffffffffffffffff1673ffffffffffffffffffffffffffffffffffffffff168673ffffffffffffffffffffffffffffffffffffffff16141561104d57600460009054906101000a900473ffffffffffffffffffffffffffffffffffffffff1673ffffffffffffffffffffffffffffffffffffffff1663a9059cbb600660009054906101000a900473ffffffffffffffffffffffffffffffffffffffff16856040518363ffffffff1660e01b8152600401808373ffffffffffffffffffffffffffffffffffffffff1673ffffffffffffffffffffffffffffffffffffffff16815260200182815260200192505050602060405180830381600087803b15801561100b57600080fd5b505af115801561101f573d6000803e3d6000fd5b505050506040513d602081101561103557600080fd5b8101908080519060200190929190505050905061123f565b828673ffffffffffffffffffffffffffffffffffffffff166370a08231306040518263ffffffff1660e01b8152600401808273ffffffffffffffffffffffffffffffffffffffff1673ffffffffffffffffffffffffffffffffffffffff16815260200191505060206040518083038186803b1580156110cb57600080fd5b505afa1580156110df573d6000803e3d6000fd5b505050506040513d60208110156110f557600080fd5b8101908080519060200190929190505050101561117a576040517f08c379a00000000000000000000000000000000000000000000000000000000081526004018080602001828103825260128152602001807f737761703a2074657374206572726f722031000000000000000000000000000081525060200191505060405180910390fd5b8573ffffffffffffffffffffffffffffffffffffffff1663d3ce77fe30856040518363ffffffff1660e01b8152600401808373ffffffffffffffffffffffffffffffffffffffff1673ffffffffffffffffffffffffffffffffffffffff16815260200182815260200192505050602060405180830381600087803b15801561120157600080fd5b505af1158015611215573d6000803e3d6000fd5b505050506040513d602081101561122b57600080fd5b810190808051906020019092919050505090505b80611295576040517f08c379a000000000000000000000000000000000000000000000000000000000815260040180806020018281038252602681526020018061308b6026913960400191505060405180910390fd5b600360009054906101000a900473ffffffffffffffffffffffffffffffffffffffff1673ffffffffffffffffffffffffffffffffffffffff166323b872dd600560009054906101000a900473ffffffffffffffffffffffffffffffffffffffff1630856040518463ffffffff1660e01b8152600401808473ffffffffffffffffffffffffffffffffffffffff1673ffffffffffffffffffffffffffffffffffffffff1681526020018373ffffffffffffffffffffffffffffffffffffffff1673ffffffffffffffffffffffffffffffffffffffff1681526020018281526020019350505050602060405180830381600087803b15801561139457600080fd5b505af11580156113a8573d6000803e3d6000fd5b505050506040513d60208110156113be57600080fd5b81019080805190602001909291905050509050806113db57600080fd5b600360009054906101000a900473ffffffffffffffffffffffffffffffffffffffff1673ffffffffffffffffffffffffffffffffffffffff1663a9059cbb33846040518363ffffffff1660e01b8152600401808373ffffffffffffffffffffffffffffffffffffffff1673ffffffffffffffffffffffffffffffffffffffff16815260200182815260200192505050602060405180830381600087803b15801561148457600080fd5b505af1158015611498573d6000803e3d6000fd5b505050506040513d60208110156114ae57600080fd5b81019080805190602001909291905050509050806114cb57600080fd5b6114d6863385612a83565b7f3a9a9f34f5831e9c8ecb66ab3aa308b2ff31eaca434615f6c9cadc656a9af71c338484604051808473ffffffffffffffffffffffffffffffffffffffff1673ffffffffffffffffffffffffffffffffffffffff168152602001838152602001828152602001935050505060405180910390a160019450505050505b919050565b600080600260008473ffffffffffffffffffffffffffffffffffffffff1673ffffffffffffffffffffffffffffffffffffffff16815260200190815260200160002090508060000160009054906101000a900460ff16915050919050565b600080600260008473ffffffffffffffffffffffffffffffffffffffff1673ffffffffffffffffffffffffffffffffffffffff16815260200190815260200160002090508060070154915050919050565b6000809054906101000a900473ffffffffffffffffffffffffffffffffffffffff1673ffffffffffffffffffffffffffffffffffffffff163373ffffffffffffffffffffffffffffffffffffffff16146116ab576040517f08c379a000000000000000000000000000000000000000000000000000000000815260040180806020018281038252602c8152602001806131de602c913960400191505060405180910390fd5b600073ffffffffffffffffffffffffffffffffffffffff168173ffffffffffffffffffffffffffffffffffffffff161415611731576040517f08c379a000000000000000000000000000000000000000000000000000000000815260040180806020018281038252602a81526020018061315e602a913960400191505060405180910390fd5b806000806101000a81548173ffffffffffffffffffffffffffffffffffffffff021916908373ffffffffffffffffffffffffffffffffffffffff1602179055507f4101e71e974f68df5e9730cc223280b41654676bbb052cdcc735c3337e64d2d96000809054906101000a900473ffffffffffffffffffffffffffffffffffffffff16604051808273ffffffffffffffffffffffffffffffffffffffff1673ffffffffffffffffffffffffffffffffffffffff16815260200191505060405180910390a150565b600660009054906101000a900473ffffffffffffffffffffffffffffffffffffffff1681565b6000809054906101000a900473ffffffffffffffffffffffffffffffffffffffff1673ffffffffffffffffffffffffffffffffffffffff163373ffffffffffffffffffffffffffffffffffffffff16146118c3576040517f08c379a000000000000000000000000000000000000000000000000000000000815260040180806020018281038252602c8152602001806131de602c913960400191505060405180910390fd5b8173ffffffffffffffffffffffffffffffffffffffff16633cebb823826040518263ffffffff1660e01b8152600401808273ffffffffffffffffffffffffffffffffffffffff1673ffffffffffffffffffffffffffffffffffffffff168152602001915050600060405180830381600087803b15801561194257600080fd5b505af1158015611956573d6000803e3d6000fd5b505050505050565b6000600160008473ffffffffffffffffffffffffffffffffffffffff1673ffffffffffffffffffffffffffffffffffffffff16815260200190815260200160002060008373ffffffffffffffffffffffffffffffffffffffff1673ffffffffffffffffffffffffffffffffffffffff16815260200190815260200160002060010154905092915050565b600080600260008473ffffffffffffffffffffffffffffffffffffffff1673ffffffffffffffffffffffffffffffffffffffff16815260200190815260200160002090508060030154915050919050565b6000600190509392505050565b6000809054906101000a900473ffffffffffffffffffffffffffffffffffffffff1673ffffffffffffffffffffffffffffffffffffffff163373ffffffffffffffffffffffffffffffffffffffff1614611aeb576040517f08c379a000000000000000000000000000000000000000000000000000000000815260040180806020018281038252602c8152602001806131de602c913960400191505060405180910390fd5b80600560006101000a81548173ffffffffffffffffffffffffffffffffffffffff021916908373ffffffffffffffffffffffffffffffffffffffff1602179055507fd459c7242e23d490831b5676a611c4342d899d28f342d89ae80793e56a930f3081604051808273ffffffffffffffffffffffffffffffffffffffff1673ffffffffffffffffffffffffffffffffffffffff16815260200191505060405180910390a150565b6000809054906101000a900473ffffffffffffffffffffffffffffffffffffffff1673ffffffffffffffffffffffffffffffffffffffff163373ffffffffffffffffffffffffffffffffffffffff1614611c37576040517f08c379a000000000000000000000000000000000000000000000000000000000815260040180806020018281038252602c8152602001806131de602c913960400191505060405180910390fd5b600754421080611c4957506000600754145b611c9e576040517f08c379a000000000000000000000000000000000000000000000000000000000815260040180806020018281038252602a815260200180613188602a913960400191505060405180910390fd5b6000600260008473ffffffffffffffffffffffffffffffffffffffff1673ffffffffffffffffffffffffffffffffffffffff16815260200190815260200160002090508181600701819055507f267d4f57896d48bec53a9d9c75255026a299141cc8a60ccc3f2a2d451a268fdb8383604051808373ffffffffffffffffffffffffffffffffffffffff1673ffffffffffffffffffffffffffffffffffffffff1681526020018281526020019250505060405180910390a1505050565b600080611d67848461195e565b9050611d8581611d778686612b28565b612cc890919063ffffffff16565b91505092915050565b6000809054906101000a900473ffffffffffffffffffffffffffffffffffffffff1673ffffffffffffffffffffffffffffffffffffffff163373ffffffffffffffffffffffffffffffffffffffff1614611e33576040517f08c379a000000000000000000000000000000000000000000000000000000000815260040180806020018281038252602c8152602001806131de602c913960400191505060405180910390fd5b85600260008273ffffffffffffffffffffffffffffffffffffffff1673ffffffffffffffffffffffffffffffffffffffff16815260200190815260200160002060000160009054906101000a900460ff1615611eda576040517f08c379a000000000000000000000000000000000000000000000000000000000815260040180806020018281038252602f8152602001806130e2602f913960400191505060405180910390fd5b611ef062278d00836129fd90919063ffffffff16565b851115611f48576040517f08c379a000000000000000000000000000000000000000000000000000000000815260040180806020018281038252602d81526020018061305e602d913960400191505060405180910390fd5b60008211611fbe576040517f08c379a000000000000000000000000000000000000000000000000000000000815260040180806020018281038252601d8152602001807f56657374696e67537761707065723a206475726174696f6e206973203000000081525060200191505060405180910390fd5b42611fe7611fd862278d00856129fd90919063ffffffff16565b88612d5190919063ffffffff16565b1161203d576040517f08c379a00000000000000000000000000000000000000000000000000000000081526004018080602001828103825260318152602001806130b16031913960400191505060405180910390fd5b8673ffffffffffffffffffffffffffffffffffffffff166318160ddd6040518163ffffffff1660e01b815260040160206040518083038186803b15801561208357600080fd5b505afa158015612097573d6000803e3d6000fd5b505050506040513d60208110156120ad57600080fd5b81019080805190602001909291905050508311156120ca57600080fd5b6000600260008973ffffffffffffffffffffffffffffffffffffffff1673ffffffffffffffffffffffffffffffffffffffff16815260200190815260200160002090508681600101819055506121298688612d5190919063ffffffff16565b81600201819055506121448588612d5190919063ffffffff16565b816003018190555083816004018190555082816005018190555061217462278d00846129fd90919063ffffffff16565b816006018190555060018160000160006101000a81548160ff0219169083151502179055508773ffffffffffffffffffffffffffffffffffffffff166318160ddd6040518163ffffffff1660e01b815260040160206040518083038186803b1580156121df57600080fd5b505afa1580156121f3573d6000803e3d6000fd5b505050506040513d602081101561220957600080fd5b810190808051906020019092919050505081600801819055505050505050505050565b6000612237836115b5565b1161228d576040517f08c379a000000000000000000000000000000000000000000000000000000000815260040180806020018281038252602c815260200180613111602c913960400191505060405180910390fd5b60008290508073ffffffffffffffffffffffffffffffffffffffff166370a08231866040518263ffffffff1660e01b8152600401808273ffffffffffffffffffffffffffffffffffffffff1673ffffffffffffffffffffffffffffffffffffffff16815260200191505060206040518083038186803b15801561230f57600080fd5b505afa158015612323573d6000803e3d6000fd5b505050506040513d602081101561233957600080fd5b81019080805190602001909291905050508411156123a2576040517f08c379a000000000000000000000000000000000000000000000000000000000815260040180806020018281038252602c8152602001806131b2602c913960400191505060405180910390fd5b60008173ffffffffffffffffffffffffffffffffffffffff166323b872dd8730886040518463ffffffff1660e01b8152600401808473ffffffffffffffffffffffffffffffffffffffff1673ffffffffffffffffffffffffffffffffffffffff1681526020018373ffffffffffffffffffffffffffffffffffffffff1673ffffffffffffffffffffffffffffffffffffffff1681526020018281526020019350505050602060405180830381600087803b15801561245f57600080fd5b505af1158015612473573d6000803e3d6000fd5b505050506040513d602081101561248957600080fd5b81019080805190602001909291905050509050806124f2576040517f08c379a000000000000000000000000000000000000000000000000000000000815260040180806020018281038252602281526020018061303c6022913960400191505060405180910390fd5b6124fd828787612dd9565b505050505050565b6000809054906101000a900473ffffffffffffffffffffffffffffffffffffffff1673ffffffffffffffffffffffffffffffffffffffff163373ffffffffffffffffffffffffffffffffffffffff16146125aa576040517f08c379a000000000000000000000000000000000000000000000000000000000815260040180806020018281038252602c8152602001806131de602c913960400191505060405180910390fd5b6007544210806125bc57506000600754145b612611576040517f08c379a000000000000000000000000000000000000000000000000000000000815260040180806020018281038252602a815260200180613188602a913960400191505060405180910390fd5b80600660006101000a81548173ffffffffffffffffffffffffffffffffffffffff021916908373ffffffffffffffffffffffffffffffffffffffff1602179055507f5d02513563a6890385b0d6684a867cbf8032b19adbd10bca1f78f430db041e3781604051808273ffffffffffffffffffffffffffffffffffffffff1673ffffffffffffffffffffffffffffffffffffffff16815260200191505060405180910390a150565b600080600260008473ffffffffffffffffffffffffffffffffffffffff1673ffffffffffffffffffffffffffffffffffffffff16815260200190815260200160002090508060050154915050919050565b60008060009054906101000a900473ffffffffffffffffffffffffffffffffffffffff16905090565b6001602052816000526040600020602052806000526040600020600091509150508060000154908060010154905082565b600080600260008473ffffffffffffffffffffffffffffffffffffffff1673ffffffffffffffffffffffffffffffffffffffff16815260200190815260200160002090508060020154915050919050565b6000600160008473ffffffffffffffffffffffffffffffffffffffff1673ffffffffffffffffffffffffffffffffffffffff16815260200190815260200160002060008373ffffffffffffffffffffffffffffffffffffffff1673ffffffffffffffffffffffffffffffffffffffff16815260200190815260200160002060000154905092915050565b6000600190509392505050565b600080600260008473ffffffffffffffffffffffffffffffffffffffff1673ffffffffffffffffffffffffffffffffffffffff16815260200190815260200160002090508060010154915050919050565b600360009054906101000a900473ffffffffffffffffffffffffffffffffffffffff1681565b600060019050919050565b6000809054906101000a900473ffffffffffffffffffffffffffffffffffffffff1673ffffffffffffffffffffffffffffffffffffffff163373ffffffffffffffffffffffffffffffffffffffff1614612972576040517f08c379a000000000000000000000000000000000000000000000000000000000815260040180806020018281038252602c8152602001806131de602c913960400191505060405180910390fd5b8060078190555050565b60026020528060005260406000206000915090508060000160009054906101000a900460ff16908060010154908060020154908060030154908060040154908060050154908060060154908060070154908060080154905089565b600560009054906101000a900473ffffffffffffffffffffffffffffffffffffffff1681565b600080831415612a105760009050612a7d565b6000828402905082848281612a2157fe5b0414612a78576040517f08c379a000000000000000000000000000000000000000000000000000000000815260040180806020018281038252602181526020018061313d6021913960400191505060405180910390fd5b809150505b92915050565b6000600160008573ffffffffffffffffffffffffffffffffffffffff1673ffffffffffffffffffffffffffffffffffffffff16815260200190815260200160002060008473ffffffffffffffffffffffffffffffffffffffff1673ffffffffffffffffffffffffffffffffffffffff1681526020019081526020016000209050612b1a828260010154612d5190919063ffffffff16565b816001018190555050505050565b600080600260008573ffffffffffffffffffffffffffffffffffffffff1673ffffffffffffffffffffffffffffffffffffffff16815260200190815260200160002090508060000160009054906101000a900460ff16612b8c576000915050612cc2565b8060020154421015612ba2576000915050612cc2565b8060030154421015612bc057612bb88484612f1d565b915050612cc2565b612bdb81600601548260030154612d5190919063ffffffff16565b4210612bf357612beb84846127b4565b915050612cc2565b6000612bff8585612f1d565b90506000612c426001612c3462278d00612c26876003015442612cc890919063ffffffff16565b612fac90919063ffffffff16565b612d5190919063ffffffff16565b90506000612c5087876127b4565b90506000612ca184612c938760050154612c8587612c778a89612cc890919063ffffffff16565b6129fd90919063ffffffff16565b612fac90919063ffffffff16565b612d5190919063ffffffff16565b9050612cad88886127b4565b811115612cb957600080fd5b80955050505050505b92915050565b600082821115612d40576040517f08c379a000000000000000000000000000000000000000000000000000000000815260040180806020018281038252601e8152602001807f536166654d6174683a207375627472616374696f6e206f766572666c6f77000081525060200191505060405180910390fd5b600082840390508091505092915050565b600080828401905083811015612dcf576040517f08c379a000000000000000000000000000000000000000000000000000000000815260040180806020018281038252601b8152602001807f536166654d6174683a206164646974696f6e206f766572666c6f77000000000081525060200191505060405180910390fd5b8091505092915050565b6000600160008573ffffffffffffffffffffffffffffffffffffffff1673ffffffffffffffffffffffffffffffffffffffff16815260200190815260200160002060008473ffffffffffffffffffffffffffffffffffffffff1673ffffffffffffffffffffffffffffffffffffffff1681526020019081526020016000209050612e70828260000154612d5190919063ffffffff16565b81600001819055507f5548c837ab068cf56a2c2479df0882a4922fd203edb7517321831d95078c5f62848484604051808473ffffffffffffffffffffffffffffffffffffffff1673ffffffffffffffffffffffffffffffffffffffff1681526020018373ffffffffffffffffffffffffffffffffffffffff1673ffffffffffffffffffffffffffffffffffffffff168152602001828152602001935050505060405180910390a150505050565b600080600260008573ffffffffffffffffffffffffffffffffffffffff1673ffffffffffffffffffffffffffffffffffffffff16815260200190815260200160002090506000612f6d85856127b4565b9050600082600801549050612fa181612f938486600401546129fd90919063ffffffff16565b612fac90919063ffffffff16565b935050505092915050565b6000808211613023576040517f08c379a000000000000000000000000000000000000000000000000000000000815260040180806020018281038252601a8152602001807f536166654d6174683a206469766973696f6e206279207a65726f00000000000081525060200191505060405180910390fd5b600082848161302e57fe5b049050809150509291505056fe56657374696e67537761707065723a207472616e7366657246726f6d206572726f7256657374696e67537761707065723a20636c696666206973206c6f6e676572207468616e206475726174696f6e56657374696e67537761707065723a206661696c656420746f20646573746f7920746f6b656e56657374696e67537761707065723a2066696e616c2074696d65206973206265666f72652063757272656e742074696d6556657374696e67537761707065723a2063616e6e6f74206578656375746520616674657220696e6974696174696f6e56657374696e67537761707065723a206e6f742076616c69642073616c6520746f6b656e2061646472657373536166654d6174683a206d756c7469706c69636174696f6e206f766572666c6f775365636f6e646172793a206e6577207072696d61727920697320746865207a65726f206164647265737356657374696e67537761707065723a2063616e6e6f74206578656375746520616674657220737461727456657374696e67537761707065723a2056657374696e67546f6b656e20616d6f756e742065786365656465645365636f6e646172793a2063616c6c6572206973206e6f7420746865207072696d617279206163636f756e74a265627a7a72315820cfb3cc0af9b7d7a4400621bc2161a2030264ad134e966bfb5971563f750f52a264736f6c63430005100032",
  "source": "pragma solidity ^0.5.0;\n\nimport \"./openzeppelin-solidity/token/ERC20/ERC20Mintable.sol\";\nimport \"./openzeppelin-solidity/token/ERC20/ERC20Detailed.sol\";\nimport \"./openzeppelin-solidity/token/ERC20/IERC20.sol\";\nimport \"./openzeppelin-solidity/math/SafeMath.sol\";\nimport \"./openzeppelin-solidity/ownership/Secondary.sol\";\nimport \"./VestingToken.sol\";\nimport \"./TONVault.sol\";\nimport \"./Burner.sol\";\n\ncontract VestingSwapper is Secondary {\n    using SafeMath for uint256;\n\n    uint256 constant UNIT_IN_SECONDS = 60 * 60 * 24 * 30;\n    address constant ZERO_ADDRESS = address(0);\n\n    struct BeneficiaryInfo {\n        uint256 totalAmount; // total deposit amount\n        uint256 releasedAmount; // released amount\n    }\n\n    struct VestingInfo {\n        bool isInitiated;\n        uint256 start; // start timestamp\n        uint256 cliff; // cilff timestamp\n        uint256 firstClaimTimestamp; // the timestamp of the first claim\n        uint256 firstClaimAmount; // the first claim amount of the VestingToken\n        uint256 durationUnit; // duration unit\n        uint256 durationInSeconds; // duration in seconds\n        uint256 ratio;\n        uint256 initialTotalSupply; // totalSupply of the VestingToken when initiated\n    }\n\n    // (VestingToken => (beneficiary => info))\n    mapping(address => mapping(address => BeneficiaryInfo)) public beneficiaryInfo;\n\n    // VestingToken => info\n    mapping(address => VestingInfo) public vestingInfo;\n\n    ERC20Mintable public _token;\n    IERC20 mton;\n    TONVault public vault;\n    address public burner;\n    uint256 startTimestamp;\n\n    event Swapped(address account, uint256 unreleased, uint256 transferred);\n    event Withdrew(address recipient, uint256 amount);\n    event Deposit(address vestingToken, address from, uint256 amount);\n    event UpdateRatio(address vestingToken, uint256 tokenRatio);\n    event SetVault(address vaultAddress);\n    event SetBurner(address bernerAddress);\n\n    modifier beforeInitiated(address vestingToken) {\n        require(!vestingInfo[vestingToken].isInitiated, \"VestingSwapper: cannot execute after initiation\");\n        _;\n    }\n\n    modifier onlyBeforeStart() {\n        require(block.timestamp < startTimestamp || startTimestamp == 0, \"VestingSwapper: cannot execute after start\");\n        _;\n    }\n\n    // @param token ton token\n    constructor (ERC20Mintable token, address mtonAddress) public {\n        _token = token;\n        mton = IERC20(mtonAddress);\n    }\n\n    // @param vestingToken the address of vesting token\n    function swap(address payable vestingToken) external returns (bool) {\n        uint256 ratio = vestingInfo[vestingToken].ratio;\n        require(ratio > 0, \"VestingSwapper: not valid sale token address\");\n\n        uint256 unreleased = releasableAmount(vestingToken, msg.sender);\n        if (unreleased == 0) {\n            return true;\n        }\n        uint256 ton_amount = unreleased.mul(ratio);\n        require(ton_amount > 0, \"test111\"); //\n        bool success = false;\n        if (vestingToken == address(mton)) {\n            success = mton.transfer(burner, unreleased);\n        } else {\n            require(VestingToken(vestingToken).balanceOf(address(this)) >= unreleased, \"swap: test error 1\");\n            success = VestingToken(vestingToken).destroyTokens(address(this), unreleased);\n        }\n        require(success, \"VestingSwapper: failed to destoy token\");\n        success = _token.transferFrom(address(vault), address(this), ton_amount);\n        require(success);\n        success = _token.transfer(msg.sender, ton_amount);\n        require(success);\n        increaseReleasedAmount(vestingToken, msg.sender, unreleased);\n        \n        emit Swapped(msg.sender, unreleased, ton_amount);\n        return true;\n    }\n\n    function changeController(VestingToken vestingToken, address payable newController) external onlyPrimary {\n        vestingToken.changeController(newController);\n    }\n\n    function setVault(TONVault vaultAddress) external onlyPrimary {\n        vault = vaultAddress;\n        emit SetVault(address(vaultAddress));\n    }\n\n    function setBurner(address bernerAddress) external onlyPrimary onlyBeforeStart {\n        burner = bernerAddress;\n        emit SetBurner(bernerAddress);\n    }\n\n    function setStart(uint256 _startTimestamp) external onlyPrimary {\n        startTimestamp = _startTimestamp;\n    }\n\n    // TokenController\n\n    /// @notice Called when `_owner` sends ether to the MiniMe Token contract\n    /// @param _owner The address that sent the ether to create tokens\n    /// @return True if the ether is accepted, false if it throws\n    function proxyPayment(address _owner) public payable returns(bool) {\n        return true;\n    }\n\n    /// @notice Notifies the controller about a token transfer allowing the\n    ///  controller to react if desired\n    /// @param _from The origin of the transfer\n    /// @param _to The destination of the transfer\n    /// @param _amount The amount of the transfer\n    /// @return False if the controller does not authorize the transfer\n    function onTransfer(address _from, address _to, uint _amount) public returns(bool) {\n        return true;\n    }\n\n    /// @notice Notifies the controller about an approval allowing the\n    ///  controller to react if desired\n    /// @param _owner The address that calls `approve()`\n    /// @param _spender The spender in the `approve()` call\n    /// @param _amount The amount in the `approve()` call\n    /// @return False if the controller does not authorize the approval\n    function onApprove(address _owner, address _spender, uint _amount) public returns(bool) {\n        return true;\n    }\n\n    //\n    // init\n    //\n\n    function receiveApproval(address from, uint256 _amount, address payable _token, bytes memory _data) public {\n        require(ratio(_token) > 0, \"VestingSwapper: not valid sale token address\");\n        VestingToken token = VestingToken(_token);\n        require(_amount <= token.balanceOf(from), \"VestingSwapper: VestingToken amount exceeded\");\n\n        bool success = token.transferFrom(from, address(this), _amount);\n        require(success, \"VestingSwapper: transferFrom error\");\n\n        add(token, from, _amount);\n    }\n\n    function add(VestingToken vestingToken, address beneficiary, uint256 amount) internal {\n        BeneficiaryInfo storage info = beneficiaryInfo[address(vestingToken)][beneficiary];\n        info.totalAmount = info.totalAmount.add(amount);\n        emit Deposit(address(vestingToken), beneficiary, amount);\n    }\n\n    //\n    // init vesting info\n    //\n\n    // @notice initiate VestingToken\n    // @param vestingToken the address of vesting token\n    // @param start start timestamp\n    // @param cliffDurationInSeconds cliff duration from start date in seconds\n    // @param firstClaimDurationInSeconds the first claim duration from start date in seconds\n    // @param firstClaimAmount the first claim amount of the VestingToken\n    // @param durationUnit duration unit \n    function initiate(address vestingToken, uint256 start, uint256 cliffDurationInSeconds, uint256 firstClaimDurationInSeconds, uint256 firstClaimAmount, uint256 durationUnit) public onlyPrimary beforeInitiated(vestingToken) {\n        require(cliffDurationInSeconds <= durationUnit.mul(UNIT_IN_SECONDS), \"VestingSwapper: cliff is longer than duration\");\n        require(durationUnit > 0, \"VestingSwapper: duration is 0\");\n        require(start.add(durationUnit.mul(UNIT_IN_SECONDS)) > block.timestamp, \"VestingSwapper: final time is before current time\");\n        require(firstClaimAmount <= IERC20(vestingToken).totalSupply());\n\n        VestingInfo storage info = vestingInfo[vestingToken];\n        info.start = start;\n        info.cliff = start.add(cliffDurationInSeconds);\n        info.firstClaimTimestamp = start.add(firstClaimDurationInSeconds);\n        info.firstClaimAmount = firstClaimAmount;\n        info.durationUnit = durationUnit;\n        info.durationInSeconds = durationUnit.mul(UNIT_IN_SECONDS);\n        info.isInitiated = true;\n        info.initialTotalSupply = IERC20(vestingToken).totalSupply();\n    }\n\n    function updateRatio(address vestingToken, uint256 tokenRatio) external onlyPrimary onlyBeforeStart {\n        VestingInfo storage info = vestingInfo[vestingToken];\n        info.ratio = tokenRatio;\n        emit UpdateRatio(vestingToken, tokenRatio);\n    }\n\n    // @notice get swapping ratio of VestingToken\n    // @param vestingToken the address of vesting token\n    // @param beneficiary the address of beneficiary\n    // @return the swapping ratio of the token\n    function ratio(address vestingToken) public view returns (uint256) {\n        VestingInfo storage info = vestingInfo[vestingToken];\n        return info.ratio;\n    }\n\n    //\n    // get vesting info\n    //\n\n    function initiated(address vestingToken) public view returns (bool) {\n        VestingInfo storage info = vestingInfo[vestingToken];\n        return info.isInitiated;\n    }\n\n    // @notice get vesting start date\n    // @param vestingToken the address of vesting token\n    // @return timestamp of the start date\n    function start(address vestingToken) public view returns (uint256) {\n        VestingInfo storage info = vestingInfo[vestingToken];\n        return info.start;\n    }\n\n    // @notice get vesting cliff date\n    // @param vestingToken the address of vesting token\n    // @return timestamp of the cliff date\n    function cliff(address vestingToken) public view returns (uint256) {\n        VestingInfo storage info = vestingInfo[vestingToken];\n        return info.cliff;\n    }\n\n    function firstClaim(address vestingToken) public view returns (uint256) {\n        VestingInfo storage info = vestingInfo[vestingToken];\n        return info.firstClaimTimestamp;\n    }\n\n    // @notice get the number of duration unit\n    // @param vestingToken the address of vesting token\n    // @return the number of duration unit\n    function duration(address vestingToken) public view returns (uint256) {\n        VestingInfo storage info = vestingInfo[vestingToken];\n        return info.durationUnit;\n    }\n\n    //\n    // beneficiary info\n    //\n\n    // @notice get total deposit amount of VestingToken\n    // @param vestingToken the address of vesting token\n    // @param beneficiary the address of beneficiary\n    // @return the amount of the token deposited\n    function totalAmount(address vestingToken, address beneficiary) public view returns (uint256) {\n        return beneficiaryInfo[vestingToken][beneficiary].totalAmount;\n    }\n\n    // @notice get released(swapped) amount of VestingToken\n    // @param vestingToken the address of vesting token\n    // @param beneficiary the address of beneficiary\n    // @return the amount of the token released\n    function released(address vestingToken, address beneficiary) public view returns (uint256) {\n        return beneficiaryInfo[vestingToken][beneficiary].releasedAmount;\n    }\n\n    // @notice get releasable amount of VestingToken\n    // @param vestingToken the address of vesting token\n    // @param beneficiary the address of beneficiary\n    // @return the releasable amount of the token\n    function releasableAmount(address vestingToken, address beneficiary) public view returns (uint256) {\n        uint256 releasedAmount = released(vestingToken, beneficiary);\n        return _releasableAmountLimit(vestingToken, beneficiary).sub(releasedAmount);\n    }\n\n    function increaseReleasedAmount(address vestingToken, address beneficiary, uint256 amount) internal {\n        BeneficiaryInfo storage info = beneficiaryInfo[vestingToken][beneficiary];\n        info.releasedAmount = info.releasedAmount.add(amount);\n    }\n\n    function _releasableAmountLimit(address vestingToken, address beneficiary) internal view returns (uint256) {\n        VestingInfo storage vestingInfo = vestingInfo[vestingToken];\n\n        if (!vestingInfo.isInitiated) {\n            return 0;\n        }\n\n        if (block.timestamp < vestingInfo.cliff) {\n            return 0;\n        } else if (block.timestamp < vestingInfo.firstClaimTimestamp) {\n            return firstClaimAmount(vestingToken, beneficiary);\n        } else if (block.timestamp >= vestingInfo.firstClaimTimestamp.add(vestingInfo.durationInSeconds)) {\n            return totalAmount(vestingToken, beneficiary);\n        } else {\n            uint256 userFirstClaimAmount = firstClaimAmount(vestingToken, beneficiary);\n            uint256 currenUnit = block.timestamp.sub(vestingInfo.firstClaimTimestamp).div(UNIT_IN_SECONDS).add(1);\n            uint256 total = totalAmount(vestingToken, beneficiary);\n            uint256 limit = total.sub(userFirstClaimAmount).mul(currenUnit).div(vestingInfo.durationUnit).add(userFirstClaimAmount);\n            require(limit <= totalAmount(vestingToken, beneficiary));\n            return limit;\n        }\n    }\n    \n    function firstClaimAmount(address vestingToken, address beneficiary) internal view returns (uint256) {\n        VestingInfo storage vestingInfo = vestingInfo[vestingToken];\n\n        uint256 userTotalAmount = totalAmount(vestingToken, beneficiary);\n        uint256 tokenTotalAmount = vestingInfo.initialTotalSupply;\n        return vestingInfo.firstClaimAmount.mul(userTotalAmount).div(tokenTotalAmount);\n    }\n}\n",
  "sourcePath": "/home/modagi/github/onther/presale-contracts/contracts/VestingSwapper.sol",
  "compiler": {
    "name": "solc",
    "version": "0.5.16+commit.9c3226ce.Emscripten.clang"
  },
  "schemaVersion": "3.2.0",
  "updatedAt": "2020-07-30T02:50:00.061Z",
  "networkType": "ethereum",
  "devdoc": {
    "methods": {
      "onApprove(address,address,uint256)": {
        "params": {
          "_amount": "The amount in the `approve()` call",
          "_owner": "The address that calls `approve()`",
          "_spender": "The spender in the `approve()` call"
        },
        "return": "False if the controller does not authorize the approval"
      },
      "onTransfer(address,address,uint256)": {
        "params": {
          "_amount": "The amount of the transfer",
          "_from": "The origin of the transfer",
          "_to": "The destination of the transfer"
        },
        "return": "False if the controller does not authorize the transfer"
      },
      "primary()": {
        "return": "the address of the primary."
      },
      "proxyPayment(address)": {
        "params": {
          "_owner": "The address that sent the ether to create tokens"
        },
        "return": "True if the ether is accepted, false if it throws"
      },
      "transferPrimary(address)": {
        "details": "Transfers contract to a new primary.",
        "params": {
          "recipient": "The address of new primary."
        }
      }
    }
  },
  "userdoc": {
    "methods": {
      "onApprove(address,address,uint256)": {
        "notice": "Notifies the controller about an approval allowing the  controller to react if desired"
      },
      "onTransfer(address,address,uint256)": {
        "notice": "Notifies the controller about a token transfer allowing the  controller to react if desired"
      },
      "proxyPayment(address)": {
        "notice": "Called when `_owner` sends ether to the MiniMe Token contract"
      }
    }
  }
}