{
  "contractName": "VestingSwapper",
  "abi": [
    {
      "inputs": [
        {
          "internalType": "contract ERC20Mintable",
          "name": "token",
          "type": "address"
        },
        {
          "internalType": "address",
          "name": "mtonAddress",
          "type": "address"
        }
      ],
      "payable": false,
      "stateMutability": "nonpayable",
      "type": "constructor"
    },
    {
      "anonymous": false,
      "inputs": [
        {
          "indexed": false,
          "internalType": "address",
          "name": "vestingToken",
          "type": "address"
        },
        {
          "indexed": false,
          "internalType": "address",
          "name": "from",
          "type": "address"
        },
        {
          "indexed": false,
          "internalType": "uint256",
          "name": "amount",
          "type": "uint256"
        }
      ],
      "name": "Deposit",
      "type": "event"
    },
    {
      "anonymous": false,
      "inputs": [
        {
          "indexed": false,
          "internalType": "address",
          "name": "recipient",
          "type": "address"
        }
      ],
      "name": "PrimaryTransferred",
      "type": "event"
    },
    {
      "anonymous": false,
      "inputs": [
        {
          "indexed": false,
          "internalType": "address",
          "name": "vaultAddress",
          "type": "address"
        }
      ],
      "name": "SetVault",
      "type": "event"
    },
    {
      "anonymous": false,
      "inputs": [
        {
          "indexed": false,
          "internalType": "address",
          "name": "account",
          "type": "address"
        },
        {
          "indexed": false,
          "internalType": "uint256",
          "name": "unreleased",
          "type": "uint256"
        },
        {
          "indexed": false,
          "internalType": "uint256",
          "name": "transferred",
          "type": "uint256"
        }
      ],
      "name": "Swapped",
      "type": "event"
    },
    {
      "anonymous": false,
      "inputs": [
        {
          "indexed": false,
          "internalType": "address",
          "name": "vestingToken",
          "type": "address"
        },
        {
          "indexed": false,
          "internalType": "uint256",
          "name": "tokenRatio",
          "type": "uint256"
        }
      ],
      "name": "UpdateRatio",
      "type": "event"
    },
    {
      "anonymous": false,
      "inputs": [
        {
          "indexed": false,
          "internalType": "address",
          "name": "recipient",
          "type": "address"
        },
        {
          "indexed": false,
          "internalType": "uint256",
          "name": "amount",
          "type": "uint256"
        }
      ],
      "name": "Withdrew",
      "type": "event"
    },
    {
      "constant": true,
      "inputs": [],
      "name": "UNIT_IN_SECONDS",
      "outputs": [
        {
          "internalType": "uint64",
          "name": "",
          "type": "uint64"
        }
      ],
      "payable": false,
      "stateMutability": "view",
      "type": "function"
    },
    {
      "constant": true,
      "inputs": [],
      "name": "ZERO_ADDRESS",
      "outputs": [
        {
          "internalType": "address",
          "name": "",
          "type": "address"
        }
      ],
      "payable": false,
      "stateMutability": "view",
      "type": "function"
    },
    {
      "constant": true,
      "inputs": [],
      "name": "_token",
      "outputs": [
        {
          "internalType": "contract ERC20Mintable",
          "name": "",
          "type": "address"
        }
      ],
      "payable": false,
      "stateMutability": "view",
      "type": "function"
    },
    {
      "constant": true,
      "inputs": [
        {
          "internalType": "address",
          "name": "",
          "type": "address"
        },
        {
          "internalType": "address",
          "name": "",
          "type": "address"
        }
      ],
      "name": "beneficiaryInfo",
      "outputs": [
        {
          "internalType": "uint256",
          "name": "totalAmount",
          "type": "uint256"
        },
        {
          "internalType": "uint256",
          "name": "releasedAmount",
          "type": "uint256"
        }
      ],
      "payable": false,
      "stateMutability": "view",
      "type": "function"
    },
    {
      "constant": true,
      "inputs": [],
      "name": "burner",
      "outputs": [
        {
          "internalType": "address",
          "name": "",
          "type": "address"
        }
      ],
      "payable": false,
      "stateMutability": "view",
      "type": "function"
    },
    {
      "constant": true,
      "inputs": [],
      "name": "mton",
      "outputs": [
        {
          "internalType": "contract IERC20",
          "name": "",
          "type": "address"
        }
      ],
      "payable": false,
      "stateMutability": "view",
      "type": "function"
    },
    {
      "constant": true,
      "inputs": [],
      "name": "primary",
      "outputs": [
        {
          "internalType": "address",
          "name": "",
          "type": "address"
        }
      ],
      "payable": false,
      "stateMutability": "view",
      "type": "function"
    },
    {
      "constant": true,
      "inputs": [],
      "name": "startTimestamp",
      "outputs": [
        {
          "internalType": "uint64",
          "name": "",
          "type": "uint64"
        }
      ],
      "payable": false,
      "stateMutability": "view",
      "type": "function"
    },
    {
      "constant": false,
      "inputs": [
        {
          "internalType": "address",
          "name": "recipient",
          "type": "address"
        }
      ],
      "name": "transferPrimary",
      "outputs": [],
      "payable": false,
      "stateMutability": "nonpayable",
      "type": "function"
    },
    {
      "constant": true,
      "inputs": [
        {
          "internalType": "address",
          "name": "",
          "type": "address"
        }
      ],
      "name": "usingBurnerContracts",
      "outputs": [
        {
          "internalType": "bool",
          "name": "",
          "type": "bool"
        }
      ],
      "payable": false,
      "stateMutability": "view",
      "type": "function"
    },
    {
      "constant": true,
      "inputs": [],
      "name": "vault",
      "outputs": [
        {
          "internalType": "contract TONVault",
          "name": "",
          "type": "address"
        }
      ],
      "payable": false,
      "stateMutability": "view",
      "type": "function"
    },
    {
      "constant": true,
      "inputs": [
        {
          "internalType": "address",
          "name": "",
          "type": "address"
        }
      ],
      "name": "vestingInfo",
      "outputs": [
        {
          "internalType": "bool",
          "name": "isInitiated",
          "type": "bool"
        },
        {
          "internalType": "uint64",
          "name": "ratio",
          "type": "uint64"
        },
        {
          "internalType": "uint64",
          "name": "start",
          "type": "uint64"
        },
        {
          "internalType": "uint64",
          "name": "cliff",
          "type": "uint64"
        },
        {
          "internalType": "uint64",
          "name": "firstClaimTimestamp",
          "type": "uint64"
        },
        {
          "internalType": "uint64",
          "name": "durationUnit",
          "type": "uint64"
        },
        {
          "internalType": "uint64",
          "name": "durationInSeconds",
          "type": "uint64"
        },
        {
          "internalType": "uint256",
          "name": "firstClaimAmount",
          "type": "uint256"
        },
        {
          "internalType": "uint256",
          "name": "initialTotalSupply",
          "type": "uint256"
        }
      ],
      "payable": false,
      "stateMutability": "view",
      "type": "function"
    },
    {
      "constant": false,
      "inputs": [
        {
          "internalType": "address payable",
          "name": "vestingToken",
          "type": "address"
        }
      ],
      "name": "swap",
      "outputs": [
        {
          "internalType": "bool",
          "name": "",
          "type": "bool"
        }
      ],
      "payable": false,
      "stateMutability": "nonpayable",
      "type": "function"
    },
    {
      "constant": false,
      "inputs": [
        {
          "internalType": "contract VestingToken",
          "name": "vestingToken",
          "type": "address"
        },
        {
          "internalType": "address payable",
          "name": "newController",
          "type": "address"
        }
      ],
      "name": "changeController",
      "outputs": [],
      "payable": false,
      "stateMutability": "nonpayable",
      "type": "function"
    },
    {
      "constant": false,
      "inputs": [
        {
          "internalType": "contract TONVault",
          "name": "vaultAddress",
          "type": "address"
        }
      ],
      "name": "setVault",
      "outputs": [],
      "payable": false,
      "stateMutability": "nonpayable",
      "type": "function"
    },
    {
      "constant": false,
      "inputs": [
        {
          "internalType": "uint64",
          "name": "_startTimestamp",
          "type": "uint64"
        }
      ],
      "name": "setStart",
      "outputs": [],
      "payable": false,
      "stateMutability": "nonpayable",
      "type": "function"
    },
    {
      "constant": false,
      "inputs": [
        {
          "internalType": "address",
          "name": "_owner",
          "type": "address"
        }
      ],
      "name": "proxyPayment",
      "outputs": [
        {
          "internalType": "bool",
          "name": "",
          "type": "bool"
        }
      ],
      "payable": true,
      "stateMutability": "payable",
      "type": "function"
    },
    {
      "constant": false,
      "inputs": [
        {
          "internalType": "address",
          "name": "_from",
          "type": "address"
        },
        {
          "internalType": "address",
          "name": "_to",
          "type": "address"
        },
        {
          "internalType": "uint256",
          "name": "_amount",
          "type": "uint256"
        }
      ],
      "name": "onTransfer",
      "outputs": [
        {
          "internalType": "bool",
          "name": "",
          "type": "bool"
        }
      ],
      "payable": false,
      "stateMutability": "nonpayable",
      "type": "function"
    },
    {
      "constant": false,
      "inputs": [
        {
          "internalType": "address",
          "name": "_owner",
          "type": "address"
        },
        {
          "internalType": "address",
          "name": "_spender",
          "type": "address"
        },
        {
          "internalType": "uint256",
          "name": "_amount",
          "type": "uint256"
        }
      ],
      "name": "onApprove",
      "outputs": [
        {
          "internalType": "bool",
          "name": "",
          "type": "bool"
        }
      ],
      "payable": false,
      "stateMutability": "nonpayable",
      "type": "function"
    },
    {
      "constant": false,
      "inputs": [
        {
          "internalType": "address",
          "name": "token",
          "type": "address"
        }
      ],
      "name": "addUsingBurnerContract",
      "outputs": [],
      "payable": false,
      "stateMutability": "nonpayable",
      "type": "function"
    },
    {
      "constant": false,
      "inputs": [
        {
          "internalType": "address",
          "name": "token",
          "type": "address"
        }
      ],
      "name": "delUsingBurnerContract",
      "outputs": [],
      "payable": false,
      "stateMutability": "nonpayable",
      "type": "function"
    },
    {
      "constant": true,
      "inputs": [
        {
          "internalType": "address",
          "name": "token",
          "type": "address"
        }
      ],
      "name": "isUsingBurnerContract",
      "outputs": [
        {
          "internalType": "bool",
          "name": "",
          "type": "bool"
        }
      ],
      "payable": false,
      "stateMutability": "view",
      "type": "function"
    },
    {
      "constant": false,
      "inputs": [
        {
          "internalType": "address",
          "name": "from",
          "type": "address"
        },
        {
          "internalType": "uint256",
          "name": "_amount",
          "type": "uint256"
        },
        {
          "internalType": "address payable",
          "name": "_token",
          "type": "address"
        },
        {
          "internalType": "bytes",
          "name": "_data",
          "type": "bytes"
        }
      ],
      "name": "receiveApproval",
      "outputs": [],
      "payable": false,
      "stateMutability": "nonpayable",
      "type": "function"
    },
    {
      "constant": false,
      "inputs": [
        {
          "internalType": "address",
          "name": "vestingToken",
          "type": "address"
        },
        {
          "internalType": "uint64",
          "name": "start",
          "type": "uint64"
        },
        {
          "internalType": "uint64",
          "name": "cliffDurationInSeconds",
          "type": "uint64"
        },
        {
          "internalType": "uint64",
          "name": "firstClaimDurationInSeconds",
          "type": "uint64"
        },
        {
          "internalType": "uint256",
          "name": "firstClaimAmount",
          "type": "uint256"
        },
        {
          "internalType": "uint64",
          "name": "durationUnit",
          "type": "uint64"
        }
      ],
      "name": "initiate",
      "outputs": [],
      "payable": false,
      "stateMutability": "nonpayable",
      "type": "function"
    },
    {
      "constant": false,
      "inputs": [
        {
          "internalType": "address",
          "name": "vestingToken",
          "type": "address"
        },
        {
          "internalType": "uint64",
          "name": "tokenRatio",
          "type": "uint64"
        }
      ],
      "name": "updateRatio",
      "outputs": [],
      "payable": false,
      "stateMutability": "nonpayable",
      "type": "function"
    },
    {
      "constant": true,
      "inputs": [
        {
          "internalType": "address",
          "name": "vestingToken",
          "type": "address"
        }
      ],
      "name": "ratio",
      "outputs": [
        {
          "internalType": "uint64",
          "name": "",
          "type": "uint64"
        }
      ],
      "payable": false,
      "stateMutability": "view",
      "type": "function"
    },
    {
      "constant": true,
      "inputs": [
        {
          "internalType": "address",
          "name": "vestingToken",
          "type": "address"
        }
      ],
      "name": "initiated",
      "outputs": [
        {
          "internalType": "bool",
          "name": "",
          "type": "bool"
        }
      ],
      "payable": false,
      "stateMutability": "view",
      "type": "function"
    },
    {
      "constant": true,
      "inputs": [
        {
          "internalType": "address",
          "name": "vestingToken",
          "type": "address"
        }
      ],
      "name": "start",
      "outputs": [
        {
          "internalType": "uint64",
          "name": "",
          "type": "uint64"
        }
      ],
      "payable": false,
      "stateMutability": "view",
      "type": "function"
    },
    {
      "constant": true,
      "inputs": [
        {
          "internalType": "address",
          "name": "vestingToken",
          "type": "address"
        }
      ],
      "name": "cliff",
      "outputs": [
        {
          "internalType": "uint64",
          "name": "",
          "type": "uint64"
        }
      ],
      "payable": false,
      "stateMutability": "view",
      "type": "function"
    },
    {
      "constant": true,
      "inputs": [
        {
          "internalType": "address",
          "name": "vestingToken",
          "type": "address"
        }
      ],
      "name": "firstClaim",
      "outputs": [
        {
          "internalType": "uint64",
          "name": "",
          "type": "uint64"
        }
      ],
      "payable": false,
      "stateMutability": "view",
      "type": "function"
    },
    {
      "constant": true,
      "inputs": [
        {
          "internalType": "address",
          "name": "vestingToken",
          "type": "address"
        }
      ],
      "name": "duration",
      "outputs": [
        {
          "internalType": "uint64",
          "name": "",
          "type": "uint64"
        }
      ],
      "payable": false,
      "stateMutability": "view",
      "type": "function"
    },
    {
      "constant": true,
      "inputs": [
        {
          "internalType": "address",
          "name": "vestingToken",
          "type": "address"
        },
        {
          "internalType": "address",
          "name": "beneficiary",
          "type": "address"
        }
      ],
      "name": "totalAmount",
      "outputs": [
        {
          "internalType": "uint256",
          "name": "",
          "type": "uint256"
        }
      ],
      "payable": false,
      "stateMutability": "view",
      "type": "function"
    },
    {
      "constant": true,
      "inputs": [
        {
          "internalType": "address",
          "name": "vestingToken",
          "type": "address"
        },
        {
          "internalType": "address",
          "name": "beneficiary",
          "type": "address"
        }
      ],
      "name": "released",
      "outputs": [
        {
          "internalType": "uint256",
          "name": "",
          "type": "uint256"
        }
      ],
      "payable": false,
      "stateMutability": "view",
      "type": "function"
    },
    {
      "constant": true,
      "inputs": [
        {
          "internalType": "address",
          "name": "vestingToken",
          "type": "address"
        },
        {
          "internalType": "address",
          "name": "beneficiary",
          "type": "address"
        }
      ],
      "name": "releasableAmount",
      "outputs": [
        {
          "internalType": "uint256",
          "name": "",
          "type": "uint256"
        }
      ],
      "payable": false,
      "stateMutability": "view",
      "type": "function"
    }
  ],
  "bytecode": "0x60806040523480156200001157600080fd5b506040516200417538038062004175833981810160405260408110156200003757600080fd5b810190808051906020019092919080519060200190929190505050336000806101000a81548173ffffffffffffffffffffffffffffffffffffffff021916908373ffffffffffffffffffffffffffffffffffffffff1602179055507f4101e71e974f68df5e9730cc223280b41654676bbb052cdcc735c3337e64d2d96000809054906101000a900473ffffffffffffffffffffffffffffffffffffffff16604051808273ffffffffffffffffffffffffffffffffffffffff1673ffffffffffffffffffffffffffffffffffffffff16815260200191505060405180910390a181600360006101000a81548173ffffffffffffffffffffffffffffffffffffffff021916908373ffffffffffffffffffffffffffffffffffffffff16021790555080600460006101000a81548173ffffffffffffffffffffffffffffffffffffffff021916908373ffffffffffffffffffffffffffffffffffffffff160217905550620001a981620001b160201b60201c565b5050620002b3565b6000809054906101000a900473ffffffffffffffffffffffffffffffffffffffff1673ffffffffffffffffffffffffffffffffffffffff163373ffffffffffffffffffffffffffffffffffffffff161462000258576040517f08c379a000000000000000000000000000000000000000000000000000000000815260040180806020018281038252602c81526020018062004149602c913960400191505060405180910390fd5b6001600660008373ffffffffffffffffffffffffffffffffffffffff1673ffffffffffffffffffffffffffffffffffffffff16815260200190815260200160002060006101000a81548160ff02191690831515021790555050565b613e8680620002c36000396000f3fe6080604052600436106101f95760003560e01c8063932974dd1161010d578063da8a8837116100a0578063ecd0c0c31161006f578063ecd0c0c314610ecd578063f48c305414610f24578063f78e633d14610f80578063f9aefe4214611099578063fbfa77cf14611102576101f9565b8063da8a883714610d85578063dd0b281e14610dc4578063df9be2e314610e3d578063e6fd48bc14610e8e576101f9565b8063cdce101b116100dc578063cdce101b14610b8b578063d457b51a14610c04578063d8948a8914610c6d578063da682aeb14610cf2576101f9565b8063932974dd146109ca578063b36760a314610a2f578063c6dbdf6114610aa8578063cc17ddf914610aff576101f9565b8063424b44601161019057806368591cf51161015f57806368591cf5146106ec5780637243cfbb1461079757806373f9ab181461081c5780638d562866146108735780638f4ffcb1146108b8576101f9565b8063424b4460146105385780634a393149146105b1578063538ba4f9146106445780636817031b1461069b576101f9565b80632348238c116101cc5780632348238c1461039a57806327810b6e146103eb5780633e11e37814610442578063406072a9146104b3576101f9565b806303438dd0146101fe578063049939f3146102675780630b40495b146102d05780630e5e61a214610349575b600080fd5b34801561020a57600080fd5b5061024d6004803603602081101561022157600080fd5b81019080803573ffffffffffffffffffffffffffffffffffffffff169060200190929190505050611159565b604051808215151515815260200191505060405180910390f35b34801561027357600080fd5b506102b66004803603602081101561028a57600080fd5b81019080803573ffffffffffffffffffffffffffffffffffffffff169060200190929190505050611979565b604051808215151515815260200191505060405180910390f35b3480156102dc57600080fd5b5061031f600480360360208110156102f357600080fd5b81019080803573ffffffffffffffffffffffffffffffffffffffff1690602001909291905050506119d7565b604051808267ffffffffffffffff1667ffffffffffffffff16815260200191505060405180910390f35b34801561035557600080fd5b506103986004803603602081101561036c57600080fd5b81019080803573ffffffffffffffffffffffffffffffffffffffff169060200190929190505050611a3c565b005b3480156103a657600080fd5b506103e9600480360360208110156103bd57600080fd5b81019080803573ffffffffffffffffffffffffffffffffffffffff169060200190929190505050611b3c565b005b3480156103f757600080fd5b50610400611d2e565b604051808273ffffffffffffffffffffffffffffffffffffffff1673ffffffffffffffffffffffffffffffffffffffff16815260200191505060405180910390f35b34801561044e57600080fd5b506104b16004803603604081101561046557600080fd5b81019080803573ffffffffffffffffffffffffffffffffffffffff169060200190929190803573ffffffffffffffffffffffffffffffffffffffff169060200190929190505050611d33565b005b3480156104bf57600080fd5b50610522600480360360408110156104d657600080fd5b81019080803573ffffffffffffffffffffffffffffffffffffffff169060200190929190803573ffffffffffffffffffffffffffffffffffffffff169060200190929190505050611e73565b6040518082815260200191505060405180910390f35b34801561054457600080fd5b506105876004803603602081101561055b57600080fd5b81019080803573ffffffffffffffffffffffffffffffffffffffff169060200190929190505050611efd565b604051808267ffffffffffffffff1667ffffffffffffffff16815260200191505060405180910390f35b3480156105bd57600080fd5b5061062a600480360360608110156105d457600080fd5b81019080803573ffffffffffffffffffffffffffffffffffffffff169060200190929190803573ffffffffffffffffffffffffffffffffffffffff16906020019092919080359060200190929190505050611f62565b604051808215151515815260200191505060405180910390f35b34801561065057600080fd5b50610659611f6f565b604051808273ffffffffffffffffffffffffffffffffffffffff1673ffffffffffffffffffffffffffffffffffffffff16815260200191505060405180910390f35b3480156106a757600080fd5b506106ea600480360360208110156106be57600080fd5b81019080803573ffffffffffffffffffffffffffffffffffffffff169060200190929190505050611f74565b005b3480156106f857600080fd5b50610795600480360360c081101561070f57600080fd5b81019080803573ffffffffffffffffffffffffffffffffffffffff169060200190929190803567ffffffffffffffff169060200190929190803567ffffffffffffffff169060200190929190803567ffffffffffffffff16906020019092919080359060200190929190803567ffffffffffffffff1690602001909291905050506120c0565b005b3480156107a357600080fd5b50610806600480360360408110156107ba57600080fd5b81019080803573ffffffffffffffffffffffffffffffffffffffff169060200190929190803573ffffffffffffffffffffffffffffffffffffffff169060200190929190505050612747565b6040518082815260200191505060405180910390f35b34801561082857600080fd5b5061083161277b565b604051808273ffffffffffffffffffffffffffffffffffffffff1673ffffffffffffffffffffffffffffffffffffffff16815260200191505060405180910390f35b34801561087f57600080fd5b506108b66004803603602081101561089657600080fd5b81019080803567ffffffffffffffff1690602001909291905050506127a1565b005b3480156108c457600080fd5b506109c8600480360360808110156108db57600080fd5b81019080803573ffffffffffffffffffffffffffffffffffffffff16906020019092919080359060200190929190803573ffffffffffffffffffffffffffffffffffffffff1690602001909291908035906020019064010000000081111561094257600080fd5b82018360208201111561095457600080fd5b8035906020019184600183028401116401000000008311171561097657600080fd5b91908080601f016020809104026020016040519081016040528093929190818152602001838380828437600081840152601f19601f8201169050808301925050505050505091929192905050506128eb565b005b3480156109d657600080fd5b50610a2d600480360360408110156109ed57600080fd5b81019080803573ffffffffffffffffffffffffffffffffffffffff169060200190929190803567ffffffffffffffff169060200190929190505050612bcf565b005b348015610a3b57600080fd5b50610a7e60048036036020811015610a5257600080fd5b81019080803573ffffffffffffffffffffffffffffffffffffffff169060200190929190505050612dff565b604051808267ffffffffffffffff1667ffffffffffffffff16815260200191505060405180910390f35b348015610ab457600080fd5b50610abd612e64565b604051808273ffffffffffffffffffffffffffffffffffffffff1673ffffffffffffffffffffffffffffffffffffffff16815260200191505060405180910390f35b348015610b0b57600080fd5b50610b6e60048036036040811015610b2257600080fd5b81019080803573ffffffffffffffffffffffffffffffffffffffff169060200190929190803573ffffffffffffffffffffffffffffffffffffffff169060200190929190505050612e8d565b604051808381526020018281526020019250505060405180910390f35b348015610b9757600080fd5b50610bda60048036036020811015610bae57600080fd5b81019080803573ffffffffffffffffffffffffffffffffffffffff169060200190929190505050612ebe565b604051808267ffffffffffffffff1667ffffffffffffffff16815260200191505060405180910390f35b348015610c1057600080fd5b50610c5360048036036020811015610c2757600080fd5b81019080803573ffffffffffffffffffffffffffffffffffffffff169060200190929190505050612f23565b604051808215151515815260200191505060405180910390f35b348015610c7957600080fd5b50610cdc60048036036040811015610c9057600080fd5b81019080803573ffffffffffffffffffffffffffffffffffffffff169060200190929190803573ffffffffffffffffffffffffffffffffffffffff169060200190929190505050612f80565b6040518082815260200191505060405180910390f35b348015610cfe57600080fd5b50610d6b60048036036060811015610d1557600080fd5b81019080803573ffffffffffffffffffffffffffffffffffffffff169060200190929190803573ffffffffffffffffffffffffffffffffffffffff1690602001909291908035906020019092919050505061300a565b604051808215151515815260200191505060405180910390f35b348015610d9157600080fd5b50610d9a613017565b604051808267ffffffffffffffff1667ffffffffffffffff16815260200191505060405180910390f35b348015610dd057600080fd5b50610e1360048036036020811015610de757600080fd5b81019080803573ffffffffffffffffffffffffffffffffffffffff16906020019092919050505061301e565b604051808267ffffffffffffffff1667ffffffffffffffff16815260200191505060405180910390f35b348015610e4957600080fd5b50610e8c60048036036020811015610e6057600080fd5b81019080803573ffffffffffffffffffffffffffffffffffffffff169060200190929190505050613083565b005b348015610e9a57600080fd5b50610ea3613183565b604051808267ffffffffffffffff1667ffffffffffffffff16815260200191505060405180910390f35b348015610ed957600080fd5b50610ee261319d565b604051808273ffffffffffffffffffffffffffffffffffffffff1673ffffffffffffffffffffffffffffffffffffffff16815260200191505060405180910390f35b610f6660048036036020811015610f3a57600080fd5b81019080803573ffffffffffffffffffffffffffffffffffffffff1690602001909291905050506131c3565b604051808215151515815260200191505060405180910390f35b348015610f8c57600080fd5b50610fcf60048036036020811015610fa357600080fd5b81019080803573ffffffffffffffffffffffffffffffffffffffff1690602001909291905050506131ce565b604051808a1515151581526020018967ffffffffffffffff1667ffffffffffffffff1681526020018867ffffffffffffffff1667ffffffffffffffff1681526020018767ffffffffffffffff1667ffffffffffffffff1681526020018667ffffffffffffffff1667ffffffffffffffff1681526020018567ffffffffffffffff1667ffffffffffffffff1681526020018467ffffffffffffffff1667ffffffffffffffff168152602001838152602001828152602001995050505050505050505060405180910390f35b3480156110a557600080fd5b506110e8600480360360208110156110bc57600080fd5b81019080803573ffffffffffffffffffffffffffffffffffffffff1690602001909291905050506132a1565b604051808215151515815260200191505060405180910390f35b34801561110e57600080fd5b506111176132c1565b604051808273ffffffffffffffffffffffffffffffffffffffff1673ffffffffffffffffffffffffffffffffffffffff16815260200191505060405180910390f35b600080600260008473ffffffffffffffffffffffffffffffffffffffff1673ffffffffffffffffffffffffffffffffffffffff16815260200190815260200160002060000160019054906101000a900467ffffffffffffffff16905060008167ffffffffffffffff161415611219576040517f08c379a000000000000000000000000000000000000000000000000000000000815260040180806020018281038252602c815260200180613d1b602c913960400191505060405180910390fd5b60006112258433612747565b9050600081141561123b57600192505050611974565b600061125a8367ffffffffffffffff16836132e790919063ffffffff16565b905060008114156112b6576040517f08c379a0000000000000000000000000000000000000000000000000000000008152600401808060200182810382526023815260200180613be46023913960400191505060405180910390fd5b6000809050600660008773ffffffffffffffffffffffffffffffffffffffff1673ffffffffffffffffffffffffffffffffffffffff16815260200190815260200160002060009054906101000a900460ff16156113d7578573ffffffffffffffffffffffffffffffffffffffff1663a9059cbb6001856040518363ffffffff1660e01b8152600401808373ffffffffffffffffffffffffffffffffffffffff1673ffffffffffffffffffffffffffffffffffffffff16815260200182815260200192505050602060405180830381600087803b15801561139557600080fd5b505af11580156113a9573d6000803e3d6000fd5b505050506040513d60208110156113bf57600080fd5b810190808051906020019092919050505090506115c9565b828673ffffffffffffffffffffffffffffffffffffffff166370a08231306040518263ffffffff1660e01b8152600401808273ffffffffffffffffffffffffffffffffffffffff1673ffffffffffffffffffffffffffffffffffffffff16815260200191505060206040518083038186803b15801561145557600080fd5b505afa158015611469573d6000803e3d6000fd5b505050506040513d602081101561147f57600080fd5b81019080805190602001909291905050501015611504576040517f08c379a00000000000000000000000000000000000000000000000000000000081526004018080602001828103825260128152602001807f737761703a2074657374206572726f722031000000000000000000000000000081525060200191505060405180910390fd5b8573ffffffffffffffffffffffffffffffffffffffff1663d3ce77fe30856040518363ffffffff1660e01b8152600401808373ffffffffffffffffffffffffffffffffffffffff1673ffffffffffffffffffffffffffffffffffffffff16815260200182815260200192505050602060405180830381600087803b15801561158b57600080fd5b505af115801561159f573d6000803e3d6000fd5b505050506040513d60208110156115b557600080fd5b810190808051906020019092919050505090505b8061161f576040517f08c379a0000000000000000000000000000000000000000000000000000000008152600401808060200182810382526026815260200180613c956026913960400191505060405180910390fd5b600360009054906101000a900473ffffffffffffffffffffffffffffffffffffffff1673ffffffffffffffffffffffffffffffffffffffff166323b872dd600560009054906101000a900473ffffffffffffffffffffffffffffffffffffffff1630856040518463ffffffff1660e01b8152600401808473ffffffffffffffffffffffffffffffffffffffff1673ffffffffffffffffffffffffffffffffffffffff1681526020018373ffffffffffffffffffffffffffffffffffffffff1673ffffffffffffffffffffffffffffffffffffffff1681526020018281526020019350505050602060405180830381600087803b15801561171e57600080fd5b505af1158015611732573d6000803e3d6000fd5b505050506040513d602081101561174857600080fd5b81019080805190602001909291905050509050806117b1576040517f08c379a000000000000000000000000000000000000000000000000000000000815260040180806020018281038252603e815260200180613e14603e913960400191505060405180910390fd5b600360009054906101000a900473ffffffffffffffffffffffffffffffffffffffff1673ffffffffffffffffffffffffffffffffffffffff1663a9059cbb33846040518363ffffffff1660e01b8152600401808373ffffffffffffffffffffffffffffffffffffffff1673ffffffffffffffffffffffffffffffffffffffff16815260200182815260200192505050602060405180830381600087803b15801561185a57600080fd5b505af115801561186e573d6000803e3d6000fd5b505050506040513d602081101561188457600080fd5b81019080805190602001909291905050509050806118ed576040517f08c379a0000000000000000000000000000000000000000000000000000000008152600401808060200182810382526035815260200180613c346035913960400191505060405180910390fd5b6118f886338561336d565b7f3a9a9f34f5831e9c8ecb66ab3aa308b2ff31eaca434615f6c9cadc656a9af71c338484604051808473ffffffffffffffffffffffffffffffffffffffff1673ffffffffffffffffffffffffffffffffffffffff168152602001838152602001828152602001935050505060405180910390a160019450505050505b919050565b600080600260008473ffffffffffffffffffffffffffffffffffffffff1673ffffffffffffffffffffffffffffffffffffffff16815260200190815260200160002090508060000160009054906101000a900460ff16915050919050565b600080600260008473ffffffffffffffffffffffffffffffffffffffff1673ffffffffffffffffffffffffffffffffffffffff16815260200190815260200160002090508060000160019054906101000a900467ffffffffffffffff16915050919050565b6000809054906101000a900473ffffffffffffffffffffffffffffffffffffffff1673ffffffffffffffffffffffffffffffffffffffff163373ffffffffffffffffffffffffffffffffffffffff1614611ae1576040517f08c379a000000000000000000000000000000000000000000000000000000000815260040180806020018281038252602c815260200180613de8602c913960400191505060405180910390fd5b6000600660008373ffffffffffffffffffffffffffffffffffffffff1673ffffffffffffffffffffffffffffffffffffffff16815260200190815260200160002060006101000a81548160ff02191690831515021790555050565b6000809054906101000a900473ffffffffffffffffffffffffffffffffffffffff1673ffffffffffffffffffffffffffffffffffffffff163373ffffffffffffffffffffffffffffffffffffffff1614611be1576040517f08c379a000000000000000000000000000000000000000000000000000000000815260040180806020018281038252602c815260200180613de8602c913960400191505060405180910390fd5b600073ffffffffffffffffffffffffffffffffffffffff168173ffffffffffffffffffffffffffffffffffffffff161415611c67576040517f08c379a000000000000000000000000000000000000000000000000000000000815260040180806020018281038252602a815260200180613d68602a913960400191505060405180910390fd5b806000806101000a81548173ffffffffffffffffffffffffffffffffffffffff021916908373ffffffffffffffffffffffffffffffffffffffff1602179055507f4101e71e974f68df5e9730cc223280b41654676bbb052cdcc735c3337e64d2d96000809054906101000a900473ffffffffffffffffffffffffffffffffffffffff16604051808273ffffffffffffffffffffffffffffffffffffffff1673ffffffffffffffffffffffffffffffffffffffff16815260200191505060405180910390a150565b600181565b6000809054906101000a900473ffffffffffffffffffffffffffffffffffffffff1673ffffffffffffffffffffffffffffffffffffffff163373ffffffffffffffffffffffffffffffffffffffff1614611dd8576040517f08c379a000000000000000000000000000000000000000000000000000000000815260040180806020018281038252602c815260200180613de8602c913960400191505060405180910390fd5b8173ffffffffffffffffffffffffffffffffffffffff16633cebb823826040518263ffffffff1660e01b8152600401808273ffffffffffffffffffffffffffffffffffffffff1673ffffffffffffffffffffffffffffffffffffffff168152602001915050600060405180830381600087803b158015611e5757600080fd5b505af1158015611e6b573d6000803e3d6000fd5b505050505050565b6000600160008473ffffffffffffffffffffffffffffffffffffffff1673ffffffffffffffffffffffffffffffffffffffff16815260200190815260200160002060008373ffffffffffffffffffffffffffffffffffffffff1673ffffffffffffffffffffffffffffffffffffffff16815260200190815260200160002060010154905092915050565b600080600260008473ffffffffffffffffffffffffffffffffffffffff1673ffffffffffffffffffffffffffffffffffffffff16815260200190815260200160002090508060010160009054906101000a900467ffffffffffffffff16915050919050565b6000600190509392505050565b600081565b6000809054906101000a900473ffffffffffffffffffffffffffffffffffffffff1673ffffffffffffffffffffffffffffffffffffffff163373ffffffffffffffffffffffffffffffffffffffff1614612019576040517f08c379a000000000000000000000000000000000000000000000000000000000815260040180806020018281038252602c815260200180613de8602c913960400191505060405180910390fd5b80600560006101000a81548173ffffffffffffffffffffffffffffffffffffffff021916908373ffffffffffffffffffffffffffffffffffffffff1602179055507fd459c7242e23d490831b5676a611c4342d899d28f342d89ae80793e56a930f3081604051808273ffffffffffffffffffffffffffffffffffffffff1673ffffffffffffffffffffffffffffffffffffffff16815260200191505060405180910390a150565b6000809054906101000a900473ffffffffffffffffffffffffffffffffffffffff1673ffffffffffffffffffffffffffffffffffffffff163373ffffffffffffffffffffffffffffffffffffffff1614612165576040517f08c379a000000000000000000000000000000000000000000000000000000000815260040180806020018281038252602c815260200180613de8602c913960400191505060405180910390fd5b85600260008273ffffffffffffffffffffffffffffffffffffffff1673ffffffffffffffffffffffffffffffffffffffff16815260200190815260200160002060000160009054906101000a900460ff161561220c576040517f08c379a000000000000000000000000000000000000000000000000000000000815260040180806020018281038252602f815260200180613cec602f913960400191505060405180910390fd5b61222c62278d008367ffffffffffffffff1661341290919063ffffffff16565b67ffffffffffffffff168567ffffffffffffffff161115612298576040517f08c379a000000000000000000000000000000000000000000000000000000000815260040180806020018281038252602d815260200180613c07602d913960400191505060405180910390fd5b60008267ffffffffffffffff161415612319576040517f08c379a000000000000000000000000000000000000000000000000000000000815260040180806020018281038252601d8152602001807f56657374696e67537761707065723a206475726174696f6e206973203000000081525060200191505060405180910390fd5b4261235661233d62278d008567ffffffffffffffff1661341290919063ffffffff16565b8867ffffffffffffffff166134ca90919063ffffffff16565b67ffffffffffffffff16116123b6576040517f08c379a0000000000000000000000000000000000000000000000000000000008152600401808060200182810382526031815260200180613cbb6031913960400191505060405180910390fd5b8673ffffffffffffffffffffffffffffffffffffffff166318160ddd6040518163ffffffff1660e01b815260040160206040518083038186803b1580156123fc57600080fd5b505afa158015612410573d6000803e3d6000fd5b505050506040513d602081101561242657600080fd5b810190808051906020019092919050505083111561244357600080fd5b61244b613b37565b6040518061012001604052806001151581526020016124698a6119d7565b67ffffffffffffffff1681526020018867ffffffffffffffff1681526020016124a5888a67ffffffffffffffff166134ca90919063ffffffff16565b67ffffffffffffffff1681526020016124d1878a67ffffffffffffffff166134ca90919063ffffffff16565b67ffffffffffffffff1681526020018467ffffffffffffffff16815260200161251062278d008667ffffffffffffffff1661341290919063ffffffff16565b67ffffffffffffffff1681526020018581526020018973ffffffffffffffffffffffffffffffffffffffff166318160ddd6040518163ffffffff1660e01b815260040160206040518083038186803b15801561256b57600080fd5b505afa15801561257f573d6000803e3d6000fd5b505050506040513d602081101561259557600080fd5b8101908080519060200190929190505050815250905080600260008a73ffffffffffffffffffffffffffffffffffffffff1673ffffffffffffffffffffffffffffffffffffffff16815260200190815260200160002060008201518160000160006101000a81548160ff02191690831515021790555060208201518160000160016101000a81548167ffffffffffffffff021916908367ffffffffffffffff16021790555060408201518160000160096101000a81548167ffffffffffffffff021916908367ffffffffffffffff16021790555060608201518160000160116101000a81548167ffffffffffffffff021916908367ffffffffffffffff16021790555060808201518160010160006101000a81548167ffffffffffffffff021916908367ffffffffffffffff16021790555060a08201518160010160086101000a81548167ffffffffffffffff021916908367ffffffffffffffff16021790555060c08201518160010160106101000a81548167ffffffffffffffff021916908367ffffffffffffffff16021790555060e0820151816002015561010082015181600301559050505050505050505050565b6000806127548484611e73565b9050612772816127648686613566565b6137c490919063ffffffff16565b91505092915050565b600460009054906101000a900473ffffffffffffffffffffffffffffffffffffffff1681565b6000809054906101000a900473ffffffffffffffffffffffffffffffffffffffff1673ffffffffffffffffffffffffffffffffffffffff163373ffffffffffffffffffffffffffffffffffffffff1614612846576040517f08c379a000000000000000000000000000000000000000000000000000000000815260040180806020018281038252602c815260200180613de8602c913960400191505060405180910390fd5b6000600560149054906101000a900467ffffffffffffffff1667ffffffffffffffff16146128bf576040517f08c379a000000000000000000000000000000000000000000000000000000000815260040180806020018281038252602c815260200180613c69602c913960400191505060405180910390fd5b80600560146101000a81548167ffffffffffffffff021916908367ffffffffffffffff16021790555050565b60006128f6836119d7565b67ffffffffffffffff161415612957576040517f08c379a000000000000000000000000000000000000000000000000000000000815260040180806020018281038252602c815260200180613d1b602c913960400191505060405180910390fd5b60008290508073ffffffffffffffffffffffffffffffffffffffff166370a08231866040518263ffffffff1660e01b8152600401808273ffffffffffffffffffffffffffffffffffffffff1673ffffffffffffffffffffffffffffffffffffffff16815260200191505060206040518083038186803b1580156129d957600080fd5b505afa1580156129ed573d6000803e3d6000fd5b505050506040513d6020811015612a0357600080fd5b8101908080519060200190929190505050841115612a6c576040517f08c379a000000000000000000000000000000000000000000000000000000000815260040180806020018281038252602c815260200180613dbc602c913960400191505060405180910390fd5b60008173ffffffffffffffffffffffffffffffffffffffff166323b872dd8730886040518463ffffffff1660e01b8152600401808473ffffffffffffffffffffffffffffffffffffffff1673ffffffffffffffffffffffffffffffffffffffff1681526020018373ffffffffffffffffffffffffffffffffffffffff1673ffffffffffffffffffffffffffffffffffffffff1681526020018281526020019350505050602060405180830381600087803b158015612b2957600080fd5b505af1158015612b3d573d6000803e3d6000fd5b505050506040513d6020811015612b5357600080fd5b8101908080519060200190929190505050905080612bbc576040517f08c379a0000000000000000000000000000000000000000000000000000000008152600401808060200182810382526022815260200180613bc26022913960400191505060405180910390fd5b612bc782878761384d565b505050505050565b6000809054906101000a900473ffffffffffffffffffffffffffffffffffffffff1673ffffffffffffffffffffffffffffffffffffffff163373ffffffffffffffffffffffffffffffffffffffff1614612c74576040517f08c379a000000000000000000000000000000000000000000000000000000000815260040180806020018281038252602c815260200180613de8602c913960400191505060405180910390fd5b600560149054906101000a900467ffffffffffffffff1667ffffffffffffffff16421080612cc257506000600560149054906101000a900467ffffffffffffffff1667ffffffffffffffff16145b612d17576040517f08c379a000000000000000000000000000000000000000000000000000000000815260040180806020018281038252602a815260200180613d92602a913960400191505060405180910390fd5b6000600260008473ffffffffffffffffffffffffffffffffffffffff1673ffffffffffffffffffffffffffffffffffffffff1681526020019081526020016000209050818160000160016101000a81548167ffffffffffffffff021916908367ffffffffffffffff1602179055507f267d4f57896d48bec53a9d9c75255026a299141cc8a60ccc3f2a2d451a268fdb8383604051808373ffffffffffffffffffffffffffffffffffffffff1673ffffffffffffffffffffffffffffffffffffffff1681526020018267ffffffffffffffff1681526020019250505060405180910390a1505050565b600080600260008473ffffffffffffffffffffffffffffffffffffffff1673ffffffffffffffffffffffffffffffffffffffff16815260200190815260200160002090508060010160089054906101000a900467ffffffffffffffff16915050919050565b60008060009054906101000a900473ffffffffffffffffffffffffffffffffffffffff16905090565b6001602052816000526040600020602052806000526040600020600091509150508060000154908060010154905082565b600080600260008473ffffffffffffffffffffffffffffffffffffffff1673ffffffffffffffffffffffffffffffffffffffff16815260200190815260200160002090508060000160119054906101000a900467ffffffffffffffff16915050919050565b600060011515600660008473ffffffffffffffffffffffffffffffffffffffff1673ffffffffffffffffffffffffffffffffffffffff16815260200190815260200160002060009054906101000a900460ff161515149050919050565b6000600160008473ffffffffffffffffffffffffffffffffffffffff1673ffffffffffffffffffffffffffffffffffffffff16815260200190815260200160002060008373ffffffffffffffffffffffffffffffffffffffff1673ffffffffffffffffffffffffffffffffffffffff16815260200190815260200160002060000154905092915050565b6000600190509392505050565b62278d0081565b600080600260008473ffffffffffffffffffffffffffffffffffffffff1673ffffffffffffffffffffffffffffffffffffffff16815260200190815260200160002090508060000160099054906101000a900467ffffffffffffffff16915050919050565b6000809054906101000a900473ffffffffffffffffffffffffffffffffffffffff1673ffffffffffffffffffffffffffffffffffffffff163373ffffffffffffffffffffffffffffffffffffffff1614613128576040517f08c379a000000000000000000000000000000000000000000000000000000000815260040180806020018281038252602c815260200180613de8602c913960400191505060405180910390fd5b6001600660008373ffffffffffffffffffffffffffffffffffffffff1673ffffffffffffffffffffffffffffffffffffffff16815260200190815260200160002060006101000a81548160ff02191690831515021790555050565b600560149054906101000a900467ffffffffffffffff1681565b600360009054906101000a900473ffffffffffffffffffffffffffffffffffffffff1681565b600060019050919050565b60026020528060005260406000206000915090508060000160009054906101000a900460ff16908060000160019054906101000a900467ffffffffffffffff16908060000160099054906101000a900467ffffffffffffffff16908060000160119054906101000a900467ffffffffffffffff16908060010160009054906101000a900467ffffffffffffffff16908060010160089054906101000a900467ffffffffffffffff16908060010160109054906101000a900467ffffffffffffffff16908060020154908060030154905089565b60066020528060005260406000206000915054906101000a900460ff1681565b600560009054906101000a900473ffffffffffffffffffffffffffffffffffffffff1681565b6000808314156132fa5760009050613367565b600082840290508284828161330b57fe5b0414613362576040517f08c379a0000000000000000000000000000000000000000000000000000000008152600401808060200182810382526021815260200180613d476021913960400191505060405180910390fd5b809150505b92915050565b6000600160008573ffffffffffffffffffffffffffffffffffffffff1673ffffffffffffffffffffffffffffffffffffffff16815260200190815260200160002060008473ffffffffffffffffffffffffffffffffffffffff1673ffffffffffffffffffffffffffffffffffffffff168152602001908152602001600020905061340482826001015461399190919063ffffffff16565b816001018190555050505050565b6000808367ffffffffffffffff16141561342f57600090506134c4565b600082840290508267ffffffffffffffff168467ffffffffffffffff168267ffffffffffffffff168161345e57fe5b0467ffffffffffffffff16146134bf576040517f08c379a0000000000000000000000000000000000000000000000000000000008152600401808060200182810382526021815260200180613d476021913960400191505060405180910390fd5b809150505b92915050565b60008082840190508367ffffffffffffffff168167ffffffffffffffff16101561355c576040517f08c379a000000000000000000000000000000000000000000000000000000000815260040180806020018281038252601b8152602001807f536166654d6174683a206164646974696f6e206f766572666c6f77000000000081525060200191505060405180910390fd5b8091505092915050565b600080600260008573ffffffffffffffffffffffffffffffffffffffff1673ffffffffffffffffffffffffffffffffffffffff16815260200190815260200160002090508060000160009054906101000a900460ff166135ca5760009150506137be565b8060000160119054906101000a900467ffffffffffffffff1667ffffffffffffffff164210156135fe5760009150506137be565b8060010160009054906101000a900467ffffffffffffffff1667ffffffffffffffff1642101561363a576136328484613a19565b9150506137be565b6136878160010160109054906101000a900467ffffffffffffffff168260010160009054906101000a900467ffffffffffffffff1667ffffffffffffffff166134ca90919063ffffffff16565b67ffffffffffffffff1642106136a9576136a18484612f80565b9150506137be565b60006136b58585613a19565b90506000613720600161371262278d0067ffffffffffffffff166137048760010160009054906101000a900467ffffffffffffffff1667ffffffffffffffff16426137c490919063ffffffff16565b613aa890919063ffffffff16565b61399190919063ffffffff16565b9050600061372e8787612f80565b9050600061379d8461378f8760010160089054906101000a900467ffffffffffffffff1667ffffffffffffffff16613781876137738a896137c490919063ffffffff16565b6132e790919063ffffffff16565b613aa890919063ffffffff16565b61399190919063ffffffff16565b90506137a98888612f80565b8111156137b557600080fd5b80955050505050505b92915050565b60008282111561383c576040517f08c379a000000000000000000000000000000000000000000000000000000000815260040180806020018281038252601e8152602001807f536166654d6174683a207375627472616374696f6e206f766572666c6f77000081525060200191505060405180910390fd5b600082840390508091505092915050565b6000600160008573ffffffffffffffffffffffffffffffffffffffff1673ffffffffffffffffffffffffffffffffffffffff16815260200190815260200160002060008473ffffffffffffffffffffffffffffffffffffffff1673ffffffffffffffffffffffffffffffffffffffff16815260200190815260200160002090506138e482826000015461399190919063ffffffff16565b81600001819055507f5548c837ab068cf56a2c2479df0882a4922fd203edb7517321831d95078c5f62848484604051808473ffffffffffffffffffffffffffffffffffffffff1673ffffffffffffffffffffffffffffffffffffffff1681526020018373ffffffffffffffffffffffffffffffffffffffff1673ffffffffffffffffffffffffffffffffffffffff168152602001828152602001935050505060405180910390a150505050565b600080828401905083811015613a0f576040517f08c379a000000000000000000000000000000000000000000000000000000000815260040180806020018281038252601b8152602001807f536166654d6174683a206164646974696f6e206f766572666c6f77000000000081525060200191505060405180910390fd5b8091505092915050565b600080600260008573ffffffffffffffffffffffffffffffffffffffff1673ffffffffffffffffffffffffffffffffffffffff16815260200190815260200160002090506000613a698585612f80565b9050600082600301549050613a9d81613a8f8486600201546132e790919063ffffffff16565b613aa890919063ffffffff16565b935050505092915050565b6000808211613b1f576040517f08c379a000000000000000000000000000000000000000000000000000000000815260040180806020018281038252601a8152602001807f536166654d6174683a206469766973696f6e206279207a65726f00000000000081525060200191505060405180910390fd5b6000828481613b2a57fe5b0490508091505092915050565b604051806101200160405280600015158152602001600067ffffffffffffffff168152602001600067ffffffffffffffff168152602001600067ffffffffffffffff168152602001600067ffffffffffffffff168152602001600067ffffffffffffffff168152602001600067ffffffffffffffff1681526020016000815260200160008152509056fe56657374696e67537761707065723a207472616e7366657246726f6d206572726f7256657374696e67537761707065723a207a65726f20616d6f756e7420746f207377617056657374696e67537761707065723a20636c696666206973206c6f6e676572207468616e206475726174696f6e56657374696e67537761707065723a206661696c656420746f207472616e7366657220544f4e20746f2062656e656669636961727956657374696e67537761707065723a2074686520737461727474696d6520697320616c72656164792073657456657374696e67537761707065723a206661696c656420746f20646573746f7920746f6b656e56657374696e67537761707065723a2066696e616c2074696d65206973206265666f72652063757272656e742074696d6556657374696e67537761707065723a2063616e6e6f74206578656375746520616674657220696e6974696174696f6e56657374696e67537761707065723a206e6f742076616c69642073616c6520746f6b656e2061646472657373536166654d6174683a206d756c7469706c69636174696f6e206f766572666c6f775365636f6e646172793a206e6577207072696d61727920697320746865207a65726f206164647265737356657374696e67537761707065723a2063616e6e6f74206578656375746520616674657220737461727456657374696e67537761707065723a2056657374696e67546f6b656e20616d6f756e742065786365656465645365636f6e646172793a2063616c6c6572206973206e6f7420746865207072696d617279206163636f756e7456657374696e67537761707065723a206661696c656420746f207472616e7366657220544f4e2066726f6d20746865207661756c7420636f6e7472616374a265627a7a72315820c387b63185e67a13a1a2b0aaad4d5c3a830618c8e932ce638141593bd3f3589964736f6c634300051000325365636f6e646172793a2063616c6c6572206973206e6f7420746865207072696d617279206163636f756e74",
  "source": "pragma solidity ^0.5.0;\n\nimport \"./openzeppelin-solidity/token/ERC20/ERC20Mintable.sol\";\nimport \"./openzeppelin-solidity/token/ERC20/ERC20Detailed.sol\";\nimport \"./openzeppelin-solidity/token/ERC20/IERC20.sol\";\nimport \"./openzeppelin-solidity/math/SafeMath.sol\";\nimport \"./openzeppelin-solidity/ownership/Secondary.sol\";\nimport \"./VestingToken.sol\";\nimport \"./TONVault.sol\";\nimport \"./Burner.sol\";\nimport \"./SafeMath64.sol\";\n\ncontract VestingSwapper is Secondary {\n    using SafeMath for uint256;\n    using SafeMath64 for uint64;\n\n    uint64 public constant UNIT_IN_SECONDS = 60 * 60 * 24 * 30;\n    address public constant ZERO_ADDRESS = address(0);\n\n    struct BeneficiaryInfo {\n        uint256 totalAmount; // total deposit amount\n        uint256 releasedAmount; // released amount\n    }\n\n    struct VestingInfo {\n        bool isInitiated;\n        uint64 ratio;\n        uint64 start; // start timestamp\n        uint64 cliff; // cilff timestamp\n        uint64 firstClaimTimestamp; // the timestamp of the first claim\n        uint64 durationUnit; // duration unit\n        uint64 durationInSeconds; // duration in seconds\n        uint256 firstClaimAmount; // the first claim amount of the VestingToken\n        uint256 initialTotalSupply; // totalSupply of the VestingToken when initiated\n    }\n\n    // (VestingToken => (beneficiary => info))\n    mapping(address => mapping(address => BeneficiaryInfo)) public beneficiaryInfo;\n\n    // VestingToken => info\n    mapping(address => VestingInfo) public vestingInfo;\n\n    ERC20Mintable public _token;\n    IERC20 public mton;\n    TONVault public vault;\n    address public constant burner = 0x0000000000000000000000000000000000000001; // not deployed yet\n    uint64 public startTimestamp;\n    mapping(address => bool) public usingBurnerContracts;\n\n    event Swapped(address account, uint256 unreleased, uint256 transferred);\n    event Withdrew(address recipient, uint256 amount);\n    event Deposit(address vestingToken, address from, uint256 amount);\n    event UpdateRatio(address vestingToken, uint256 tokenRatio);\n    event SetVault(address vaultAddress);\n\n    modifier beforeInitiated(address vestingToken) {\n        require(!vestingInfo[vestingToken].isInitiated, \"VestingSwapper: cannot execute after initiation\");\n        _;\n    }\n\n    modifier onlyBeforeStart() {\n        require(block.timestamp < startTimestamp || startTimestamp == 0, \"VestingSwapper: cannot execute after start\");\n        _;\n    }\n\n    // @param token ton token\n    constructor (ERC20Mintable token, address mtonAddress) public {\n        _token = token;\n        mton = IERC20(mtonAddress);\n        addUsingBurnerContract(mtonAddress);\n    }\n\n    // @param vestingToken the address of vesting token\n    function swap(address payable vestingToken) external returns (bool) {\n        uint64 ratio = vestingInfo[vestingToken].ratio;\n        require(ratio != 0, \"VestingSwapper: not valid sale token address\");\n\n        uint256 unreleased = releasableAmount(vestingToken, msg.sender);\n        if (unreleased == 0) {\n            return true;\n        }\n        uint256 ton_amount = unreleased.mul(ratio);\n        require(ton_amount != 0, \"VestingSwapper: zero amount to swap\"); //\n        bool success = false;\n        if (usingBurnerContracts[vestingToken]) {\n            success = IERC20(vestingToken).transfer(burner, unreleased);\n        } else {\n            require(VestingToken(vestingToken).balanceOf(address(this)) >= unreleased, \"swap: test error 1\");\n            success = VestingToken(vestingToken).destroyTokens(address(this), unreleased);\n        }\n        require(success, \"VestingSwapper: failed to destoy token\");\n        success = _token.transferFrom(address(vault), address(this), ton_amount);\n        require(success, \"VestingSwapper: failed to transfer TON from the vault contract\");\n        success = _token.transfer(msg.sender, ton_amount);\n        require(success, \"VestingSwapper: failed to transfer TON to beneficiary\");\n        increaseReleasedAmount(vestingToken, msg.sender, unreleased);\n        \n        emit Swapped(msg.sender, unreleased, ton_amount);\n        return true;\n    }\n\n    function changeController(VestingToken vestingToken, address payable newController) external onlyPrimary {\n        vestingToken.changeController(newController);\n    }\n\n    function setVault(TONVault vaultAddress) external onlyPrimary {\n        vault = vaultAddress;\n        emit SetVault(address(vaultAddress));\n    }\n\n    function setStart(uint64 _startTimestamp) external onlyPrimary {\n        require(startTimestamp == 0, \"VestingSwapper: the starttime is already set\");\n        startTimestamp = _startTimestamp;\n    }\n\n    // TokenController\n\n    /// @notice Called when `_owner` sends ether to the MiniMe Token contract\n    /// @param _owner The address that sent the ether to create tokens\n    /// @return True if the ether is accepted, false if it throws\n    function proxyPayment(address _owner) public payable returns(bool) {\n        return true;\n    }\n\n    /// @notice Notifies the controller about a token transfer allowing the\n    ///  controller to react if desired\n    /// @param _from The origin of the transfer\n    /// @param _to The destination of the transfer\n    /// @param _amount The amount of the transfer\n    /// @return False if the controller does not authorize the transfer\n    function onTransfer(address _from, address _to, uint _amount) public returns(bool) {\n        return true;\n    }\n\n    /// @notice Notifies the controller about an approval allowing the\n    ///  controller to react if desired\n    /// @param _owner The address that calls `approve()`\n    /// @param _spender The spender in the `approve()` call\n    /// @param _amount The amount in the `approve()` call\n    /// @return False if the controller does not authorize the approval\n    function onApprove(address _owner, address _spender, uint _amount) public returns(bool) {\n        return true;\n    }\n\n    function addUsingBurnerContract(address token) public onlyPrimary {\n        usingBurnerContracts[token] = true;\n    }\n\n    function delUsingBurnerContract(address token) public onlyPrimary {\n        usingBurnerContracts[token] = false;\n    }\n\n\n    function isUsingBurnerContract(address token) public view returns(bool) {\n        return usingBurnerContracts[token] == true;\n    }\n\n    //\n    // init\n    //\n\n    function receiveApproval(address from, uint256 _amount, address payable _token, bytes memory _data) public {\n        require(ratio(_token) != 0, \"VestingSwapper: not valid sale token address\");\n        VestingToken token = VestingToken(_token);\n        require(_amount <= token.balanceOf(from), \"VestingSwapper: VestingToken amount exceeded\");\n\n        bool success = token.transferFrom(from, address(this), _amount);\n        require(success, \"VestingSwapper: transferFrom error\");\n\n        add(token, from, _amount);\n    }\n\n    function add(VestingToken vestingToken, address beneficiary, uint256 amount) internal {\n        BeneficiaryInfo storage info = beneficiaryInfo[address(vestingToken)][beneficiary];\n        info.totalAmount = info.totalAmount.add(amount);\n        emit Deposit(address(vestingToken), beneficiary, amount);\n    }\n\n    //\n    // init vesting info\n    //\n\n    // @notice initiate VestingToken\n    // @param vestingToken the address of vesting token\n    // @param start start timestamp\n    // @param cliffDurationInSeconds cliff duration from start date in seconds\n    // @param firstClaimDurationInSeconds the first claim duration from start date in seconds\n    // @param firstClaimAmount the first claim amount of the VestingToken\n    // @param durationUnit duration unit \n    function initiate(address vestingToken, uint64 start, uint64 cliffDurationInSeconds, uint64 firstClaimDurationInSeconds, uint256 firstClaimAmount, uint64 durationUnit) public onlyPrimary beforeInitiated(vestingToken) {\n        require(cliffDurationInSeconds <= durationUnit.mul(UNIT_IN_SECONDS), \"VestingSwapper: cliff is longer than duration\");\n        require(durationUnit != 0, \"VestingSwapper: duration is 0\");\n        require(start.add(durationUnit.mul(UNIT_IN_SECONDS)) > block.timestamp, \"VestingSwapper: final time is before current time\");\n        require(firstClaimAmount <= IERC20(vestingToken).totalSupply());\n\n        VestingInfo memory info = VestingInfo({\n            isInitiated: true,\n            ratio: ratio(vestingToken),\n            start: start,\n            cliff: start.add(cliffDurationInSeconds),\n            firstClaimTimestamp: start.add(firstClaimDurationInSeconds),\n            firstClaimAmount: firstClaimAmount,\n            durationUnit: durationUnit,\n            durationInSeconds: durationUnit.mul(UNIT_IN_SECONDS),\n            initialTotalSupply: IERC20(vestingToken).totalSupply()\n        });\n        vestingInfo[vestingToken] = info;\n    }\n\n    function updateRatio(address vestingToken, uint64 tokenRatio) external onlyPrimary onlyBeforeStart {\n        VestingInfo storage info = vestingInfo[vestingToken];\n        info.ratio = tokenRatio;\n        emit UpdateRatio(vestingToken, tokenRatio);\n    }\n\n    // @notice get swapping ratio of VestingToken\n    // @param vestingToken the address of vesting token\n    // @param beneficiary the address of beneficiary\n    // @return the swapping ratio of the token\n    function ratio(address vestingToken) public view returns (uint64) {\n        VestingInfo storage info = vestingInfo[vestingToken];\n        return info.ratio;\n    }\n\n    //\n    // get vesting info\n    //\n\n    function initiated(address vestingToken) public view returns (bool) {\n        VestingInfo storage info = vestingInfo[vestingToken];\n        return info.isInitiated;\n    }\n\n    // @notice get vesting start date\n    // @param vestingToken the address of vesting token\n    // @return timestamp of the start date\n    function start(address vestingToken) public view returns (uint64) {\n        VestingInfo storage info = vestingInfo[vestingToken];\n        return info.start;\n    }\n\n    // @notice get vesting cliff date\n    // @param vestingToken the address of vesting token\n    // @return timestamp of the cliff date\n    function cliff(address vestingToken) public view returns (uint64) {\n        VestingInfo storage info = vestingInfo[vestingToken];\n        return info.cliff;\n    }\n\n    function firstClaim(address vestingToken) public view returns (uint64) {\n        VestingInfo storage info = vestingInfo[vestingToken];\n        return info.firstClaimTimestamp;\n    }\n\n    // @notice get the number of duration unit\n    // @param vestingToken the address of vesting token\n    // @return the number of duration unit\n    function duration(address vestingToken) public view returns (uint64) {\n        VestingInfo storage info = vestingInfo[vestingToken];\n        return info.durationUnit;\n    }\n\n    //\n    // beneficiary info\n    //\n\n    // @notice get total deposit amount of VestingToken\n    // @param vestingToken the address of vesting token\n    // @param beneficiary the address of beneficiary\n    // @return the amount of the token deposited\n    function totalAmount(address vestingToken, address beneficiary) public view returns (uint256) {\n        return beneficiaryInfo[vestingToken][beneficiary].totalAmount;\n    }\n\n    // @notice get released(swapped) amount of VestingToken\n    // @param vestingToken the address of vesting token\n    // @param beneficiary the address of beneficiary\n    // @return the amount of the token released\n    function released(address vestingToken, address beneficiary) public view returns (uint256) {\n        return beneficiaryInfo[vestingToken][beneficiary].releasedAmount;\n    }\n\n    // @notice get releasable amount of VestingToken\n    // @param vestingToken the address of vesting token\n    // @param beneficiary the address of beneficiary\n    // @return the releasable amount of the token\n    function releasableAmount(address vestingToken, address beneficiary) public view returns (uint256) {\n        uint256 releasedAmount = released(vestingToken, beneficiary);\n        return _releasableAmountLimit(vestingToken, beneficiary).sub(releasedAmount);\n    }\n\n    function increaseReleasedAmount(address vestingToken, address beneficiary, uint256 amount) internal {\n        BeneficiaryInfo storage info = beneficiaryInfo[vestingToken][beneficiary];\n        info.releasedAmount = info.releasedAmount.add(amount);\n    }\n\n    function _releasableAmountLimit(address vestingToken, address beneficiary) internal view returns (uint256) {\n        VestingInfo storage vestingInfo = vestingInfo[vestingToken];\n\n        if (!vestingInfo.isInitiated) {\n            return 0;\n        }\n\n        if (block.timestamp < vestingInfo.cliff) {\n            return 0;\n        } else if (block.timestamp < vestingInfo.firstClaimTimestamp) {\n            return firstClaimAmount(vestingToken, beneficiary);\n        } else if (block.timestamp >= vestingInfo.firstClaimTimestamp.add(vestingInfo.durationInSeconds)) {\n            return totalAmount(vestingToken, beneficiary);\n        } else {\n            uint256 userFirstClaimAmount = firstClaimAmount(vestingToken, beneficiary);\n            uint256 currenUnit = block.timestamp.sub(vestingInfo.firstClaimTimestamp).div(UNIT_IN_SECONDS).add(1);\n            uint256 total = totalAmount(vestingToken, beneficiary);\n            uint256 limit = total.sub(userFirstClaimAmount).mul(currenUnit).div(vestingInfo.durationUnit).add(userFirstClaimAmount);\n            require(limit <= totalAmount(vestingToken, beneficiary));\n            return limit;\n        }\n    }\n    \n    function firstClaimAmount(address vestingToken, address beneficiary) internal view returns (uint256) {\n        VestingInfo storage vestingInfo = vestingInfo[vestingToken];\n\n        uint256 userTotalAmount = totalAmount(vestingToken, beneficiary);\n        uint256 tokenTotalAmount = vestingInfo.initialTotalSupply;\n        return vestingInfo.firstClaimAmount.mul(userTotalAmount).div(tokenTotalAmount);\n    }\n}\n",
  "sourcePath": "/home/modagi/github/onther/presale-contracts4/contracts/VestingSwapper.sol",
  "compiler": {
    "name": "solc",
    "version": "0.5.16+commit.9c3226ce.Emscripten.clang"
  },
  "schemaVersion": "3.2.0",
  "updatedAt": "2020-08-11T10:57:27.613Z",
  "devdoc": {
    "methods": {
      "onApprove(address,address,uint256)": {
        "params": {
          "_amount": "The amount in the `approve()` call",
          "_owner": "The address that calls `approve()`",
          "_spender": "The spender in the `approve()` call"
        },
        "return": "False if the controller does not authorize the approval"
      },
      "onTransfer(address,address,uint256)": {
        "params": {
          "_amount": "The amount of the transfer",
          "_from": "The origin of the transfer",
          "_to": "The destination of the transfer"
        },
        "return": "False if the controller does not authorize the transfer"
      },
      "primary()": {
        "return": "the address of the primary."
      },
      "proxyPayment(address)": {
        "params": {
          "_owner": "The address that sent the ether to create tokens"
        },
        "return": "True if the ether is accepted, false if it throws"
      },
      "transferPrimary(address)": {
        "details": "Transfers contract to a new primary.",
        "params": {
          "recipient": "The address of new primary."
        }
      }
    }
  },
  "userdoc": {
    "methods": {
      "onApprove(address,address,uint256)": {
        "notice": "Notifies the controller about an approval allowing the  controller to react if desired"
      },
      "onTransfer(address,address,uint256)": {
        "notice": "Notifies the controller about a token transfer allowing the  controller to react if desired"
      },
      "proxyPayment(address)": {
        "notice": "Called when `_owner` sends ether to the MiniMe Token contract"
      }
    }
  }
}